:1026000002A618008F828E83E0540100000070F84B
:102610002278FFE4F6D8FD02A6A6900026EEF0A3ED
:10262000EFF078287C007D017BFF7A6D79547E067F
:102630007F7312803590069B7406F0A37473F07854
:10264000A37C067D017BFF7A7379C77E007F0F1222
:10265000803578B27C067D017BFF7A7379D67E0067
:102660007F1C12803578CE7C067D017BFF7A7379E2
:10267000F27E007F1B12803578E97C067D017BFFAE
:102680007A74790D7E007F1C12803578057C077D79
:10269000017BFF7A7479297E007F221280357827AA
:1026A0007C077D017BFF7A74794B7E007F27128047
:1026B00035784E7C077D017BFF7A7479727E007FCE
:1026C00011128035785F7C077D017BFF7A747983F6
:1026D0007E007F1912803578787C077D017BFF7A38
:1026E00074799C7E007F1112803578897C077D018A
:1026F0007BFF7A7479AD7E007F1C12803578A57CD3
:10270000077D017BFF7A7479C97E007F1D128035B9
:1027100078C27C077D017BFF7A7479E67E007F1B9F
:1027200012803578DD7C077D017BFF7A7579017E2B
:10273000007F1412803578F17C077D017BFF7A756C
:1027400079157E007F2512803578167C087D017B07
:10275000FF7A75793A7E007F15128035782B7C08D8
:102760007D017BFF7A75794F7E007F151280357869
:10277000407C087D017BFF7A7579647E007F1412AE
:10278000803578547C087D017BFF7A7579787E00EE
:102790007F2412803578787C087D017BFF7A7579FB
:1027A0009C7E007F1912803578917C087D017BFF2B
:1027B0007A7579B57E007F1812803578A97C087DFE
:1027C000017BFF7A7579CD7E007F1512803578BE4A
:1027D0007C087D017BFF7A7579E27E007F14128090
:1027E0003578D27C087D017BFF7A7579F67E007F93
:1027F0001A12803578EC7C087D017BFF7A7679109F
:102800007E007F1512803578017C097D017BFF7A7F
:102810007679257E007F6412803578657C097D019C
:102820007BFF7A7679897E007F3B12803578A07CA9
:10283000097D017BFF7A7679C47E007F2A1280357C
:102840007B017A0679A312C5A69009CAEFF07B0135
:102850007A0679B212C5A69009CBEFF07B017A0611
:1028600079CE12C5A69009CCEFF07B017A07794E9C
:1028700012C5A69009CDEFF07B017A07795F12C5EA
:10288000A69009CEEFF07B017A07797812C5A69061
:1028900009CFEFF07B017A0779A512C5A69009D080
:1028A000EFF07B017A0779C212C5A69009D1EFF04B
:1028B0007B017A0779DD12C5A69009D2EFF07B0182
:1028C0007A08791612C5A69009D3EFF07B017A0831
:1028D000792B12C5A69009D4EFF07B017A087940D4
:1028E00012C5A69009D5EFF07B017A08797812C558
:1028F000A69009D6EFF07B017A0879A912C5A690B7
:1029000009D7EFF07B017A0879BE12C5A69009D8E5
:10291000EFF07B017A0879D212C5A69009D9EFF0C1
:102920007B017A0879EC12C5A69009DAEFF07B01F9
:102930007A09790112C5A69009DBEFF07B017A09CB
:10294000796512C5A69009DCEFF07B017A0979A0C0
:1029500012C5A69009DDEFF0900028740CF0A37466
:1029600018F0900026E0FEA3E0FFEE6003023F8235
:10297000EFB419004003023F82902980F8282873A1
:102980000229CB02397402397D023A4D023B1D0205
:102990003B30023B39023B42023B7B023C2F023C74
:1029A00096023C9F023DC4023E4A023E5A023E63EA
:1029B000023E82023EAB023EB4023ECB023ED40255
:1029C0003EDD023F44023F54023F6490002A7402FD
:1029D000F0A314F09009E8E090002CF09009CAE010
:1029E000755F00F560E560455F602E9009CAE0C341
:1029F0009560FFE4955FFE74A32FF58274063EF5A3
:102A000083E0FD742D2FF58274003EF583EDF0E533
:102A10006015607002155F80CC90005C7407F0A3B5
:102A20007403F0900A1DE0640360689009E9E0FC1B
:102A3000A3E0FDA3E0FEA3E0FFEC12790DE4FBFAB6
:102A4000798078471277F790005E127ED69009ED74
:102A5000E0FCA3E0FDA3E0FEA3E0FFEC12790DE4AF
:102A6000FBFA798078471277F7900062127ED69051
:102A700009F1E0FCA3E0FDA3E0FEA3E0FFEC127986
:102A80000DE4FBFA798078471277F7900066127EA2
:102A9000D68066900A01E0FCA3E0FDA3E0FEA3E07F
:102AA000FFEC12790DE4FBFA798078471277F79002
:102AB000005E127ED6900A05E0FCA3E0FDA3E0FED6
:102AC000A3E0FFEC12790DE4FBFA798078471277E6
:102AD000F7900062127ED6900A09E0FCA3E0FDA305
:102AE000E0FEA3E0FFEC12790DE4FBFA7980784771
:102AF0001277F7900066127ED69009CBE0755F00E2
:102B0000F560E560455F602E9009CBE0C39560FFFE
:102B1000E4955FFE74B22FF58274063EF583E0FD06
:102B2000746A2FF58274003EF583EDF0E560156060
:102B30007002155F80CC90008E7407F0A37403F0D0
:102B4000900A1DE0640360689009F5E0FCA3E0FDD5
:102B5000A3E0FEA3E0FFEC12790DE4FBFA798078A4
:102B6000471277F7900090127ED69009F9E0FCA307
:102B7000E0FDA3E0FEA3E0FFEC12790DE4FBFA799F
:102B80008078471277F7900094127ED69009FDE086
:102B9000FCA3E0FDA3E0FEA3E0FFEC12790DE4FB53
:102BA000FA798078471277F7900098127ED680667F
:102BB000900A0DE0FCA3E0FDA3E0FEA3E0FFEC1211
:102BC000790DE4FBFA798078471277F7900090123C
:102BD0007ED6900A11E0FCA3E0FDA3E0FEA3E0FF97
:102BE000EC12790DE4FBFA798078471277F79000C0
:102BF00094127ED6900A15E0FCA3E0FDA3E0FEA3AC
:102C0000E0FFEC12790DE4FBFA798078471277F750
:102C1000900098127ED69009CCE0755F00F560E5D3
:102C200060455F602E9009CCE0C39560FFE4955F3E
:102C3000FE74CE2FF58274063EF583E0FD749C2F62
:102C4000F58274003EF583EDF0E5601560700215C5
:102C50005F80CCE49000C0F0A304F0900A1BE090E9
:102C600000C2F0900A1B601F9009E174FFF0A3748A
:102C700067F0A374EBF07B017A0679E912B85E90F5
:102C8000069D741CF0801D9009E174FFF0A3746729
:102C9000F0A374F1F07B017A0679E912B85E900630
:102CA0009D741BF090069DE0755F00F560E5604542
:102CB0005F602E90069DE0C39560FFE4955FFE7413
:102CC000E92FF58274063EF583E0FD74C32FF5828B
:102CD00074003EF583EDF0E56015607002155F80CD
:102CE000CC90069DE024C3F582E43400F5837403A0
:102CF000F0E49000F2F0A304F0900A1CE09000F4DD
:102D0000F0900A1CB407004003022E01902D13F826
:102D1000282873022D28022D48022D68022D8702D3
:102D20002DA6022DC5022DE49009E174FFF0A374D5
:102D300067F0A374F6F07B017A07790512B85E900C
:102D4000069D7414F0022E019009E174FFF0A37443
:102D500067F0A374FCF07B017A07790512B85E90E6
:102D6000069D7417F0022E019009E174FFF0A37420
:102D700068F0A37405F07B017A07790512B85E90BC
:102D8000069D7421F0807A9009E174FFF0A37468C5
:102D9000F0A37418F07B017A07790512B85E9006EB
:102DA0009D741DF0805B9009E174FFF0A37468F0DE
:102DB000A37427F07B017A07790512B85E90069D0F
:102DC0007419F0803C9009E174FFF0A37468F0A3DB
:102DD0007432F07B017A07790512B85E90069D7413
:102DE00022F0801D9009E174FFF0A37468F0A374D1
:102DF00046F07B017A07790512B85E90069D74193A
:102E0000F090069DE0755F00F560E560455F602E1F
:102E100090069DE0C39560FFE4955FFE74052FF575
:102E20008274073EF583E0FD74F52FF58274003E51
:102E3000F583EDF0E56015607002155F80CC9006BB
:102E40009DE024F5F582E43400F5837401F0E4900C
:102E50000124F0A304F0900A1DE0900126F0900AEE
:102E60001D1460291460451460612403707A900970
:102E7000E174FFF0A37468F0A37451F07B017A074A
:102E8000792712B85E90069D741BF0805B9009E173
:102E900074FFF0A37468F0A3745CF07B017A077987
:102EA0002712B85E90069D7416F0803C9009E1747C
:102EB000FFF0A37468F0A37462F07B017A077927AE
:102EC00012B85E90069D741AF0801D9009E174FF9F
:102ED000F0A37468F0A3746CF07B017A0779271271
:102EE000B85E90069D7427F090069DE0755F00F532
:102EF00060E560455F602E90069DE0C39560FFE44D
:102F0000955FFE74272FF58274073EF583E0FD740C
:102F1000272FF58274013EF583EDF0E560156070B2
:102F200002155F80CC90069DE02427F582E43401F1
:102F3000F5837402F0900156F0A37404F0E4F55F99
:102F4000F560C3E5609404E55F94005026741E2587
:102F500060F582740A355FF583E0FF74582560F5EB
:102F6000827401355FF583EFF00560E5607002055E
:102F70005F80CF9009CDE0755F00F560E560455F4B
:102F8000602E9009CDE0C39560FFE4955FFE744E1E
:102F90002FF58274073EF583E0FD745C2FF5827493
:102FA000013EF583EDF0E56015607002155F80CCA1
:102FB0009001887403F0A304F0E4F55FF560C3E5C5
:102FC000609404E55F94005059E560AE5F7802C3F9
:102FD00033CE33CED8F92422F582740A3EF583E04D
:102FE000FCA3E0FDA3E0FEA3E0FF741E2560F582D4
:102FF000740A355FF583E0F9F8127E75AD07AC060B
:10300000E56025E0FFE55F33FE748A2FF5827401E9
:103010003EF583ECF0A3EDF00560E5607002055F1E
:10302000809C9009CEE0755F00F560E560455F60CB
:103030002E9009CEE0C39560FFE4955FFE745F2F8C
:10304000F58274073EF583E0FD74922FF5827401DA
:103050003EF583EDF0E56015607002155F80CC9061
:1030600001BA7407F0A37404F0E4F55FF560C3E5FA
:10307000609404E55F94005054E560AE5F7802C34D
:1030800033CE33CED8F92432F582740A3EF583E08C
:10309000FCA3E0FDA3E0FEA3E0FFC004C005C00662
:1030A000C007E560AE5F7802C333CE33CED8F924D3
:1030B000BCF58274013EF583D007D006D005D0045C
:1030C000127ED60560E5607002055F80A19009CF91
:1030D000E0755F00F560E560455F602E9009CFE028
:1030E000C39560FFE4955FFE74782FF58274073E08
:1030F000F583E0FD74CC2FF58274013EF583EDF08D
:10310000E56015607002155F80CCE49001ECF0A3DF
:1031100004F0900A42E09001EEF0900A42601F90A5
:1031200009E174FFF0A37467F0A374EBF07B017AFC
:1031300007798912B85E90069D741CF0801D900975
:10314000E174FFF0A37467F0A374F1F07B017A07D8
:10315000798912B85E90069D741BF090069DE0750B
:103160005F00F560E560455F602E90069DE0C395C9
:1031700060FFE4955FFE74892FF58274073EF58346
:10318000E0FD74EF2FF58274013EF583EDF0E5600C
:1031900015607002155F80CC90069DE024EFF582EB
:1031A000E43401F5837403F090021E7405F0A31457
:1031B000F0E4F55FF560C3E5609403E55F940040DB
:1031C00003023287E560AE5F7802C333CE33CED8D8
:1031D000F92443F582740A3EF583E0FCA3E0FDA3E5
:1031E000E0FEA3E0FF741E2560F582740A355FF5EA
:1031F00083E0F9F8127E75C004C005C006C007E57B
:1032000060AE5F7803C333CE33CED8F92420F58285
:1032100074023EF583D007D006D005D004127ED6C6
:10322000E560AE5F7802C333CE33CED8F9244BF5D8
:1032300082740A3EF583E0FCA3E0FDA3E0FEA3E078
:10324000FF741E2560F582740A355FF583E0F9F896
:10325000127E75C004C005C006C007E560AE5F7889
:1032600003C333CE33CED8F92424F58274023EF55D
:1032700083D007D006D005D004127ED60560E56065
:103280007002055F0231B69009D0E0755F00F5600D
:10329000E560455F602E9009D0E0C39560FFE4953E
:1032A0005FFE74A52FF58274073EF583E0FD743050
:1032B0002FF58274023EF583EDF0E5601560700233
:1032C000155F80CC9002507405F0A37402F0900A50
:1032D00055E0FCA3E0FDA3E0FEA3E0FF9002521244
:1032E0007ED6900A59E0FCA3E0FDA3E0FEA3E0FF38
:1032F000900256127ED69009D1E0755F00F560E528
:1033000060455F602E9009D1E0C39560FFE4955F52
:10331000FE74C22FF58274073EF583E0FD745A2FC8
:10332000F58274023EF583EDF0E5601560700215DC
:103330005F80CC9002827403F0A37401F0900A19AC
:10334000E0FFA3E0900284CFF0A3EFF09009D2E079
:10335000755F00F560E560455F602E9009D2E0C3BF
:103360009560FFE4955FFE74DD2FF58274073EF5EE
:1033700083E0FD74862FF58274023EF583EDF0E55F
:103380006015607002155F80CCE49002B4F0A30475
:10339000F0900A61E09002B6F0900A61601F900917
:1033A000E174FFF0A37467F0A374EBF07B017A077C
:1033B00079F112B85E90069D7425F0801D9009E1A8
:1033C00074FFF0A37467F0A374F1F07B017A0779BE
:1033D000F112B85E90069D7424F090069DE0755F32
:1033E00000F560E560455F602E90069DE0C3956046
:1033F000FFE4955FFE74F12FF58274073EF583E0DC
:10340000FD74B72FF58274023EF583EDF0E560158B
:10341000607002155F80CC90069DE024B7F582E4D1
:103420003402F5837403F09002E604F0A37402F012
:10343000900A5DE0FFA3E09002E8CFF0A3EFF090E8
:103440000A5FE0FFA3E09002EACFF0A3EFF090095B
:10345000D3E0755F00F560E560455F602E9009D3AD
:10346000E0C39560FFE4955FFE74162FF582740843
:103470003EF583E0FD74EC2FF58274023EF583ED9A
:10348000F0E56015607002155F80CC90031874063B
:10349000F0A37402F0900A62E0FCA3E0FDA3E0FE5A
:1034A000A3E0FF90031A127ED6900A66E0FCA3E028
:1034B000FDA3E0FEA3E0FF90031E127ED69009D488
:1034C000E0755F00F560E560455F602E9009D4E02F
:1034D000C39560FFE4955FFE742B2FF58274083E60
:1034E000F583E0FD74222FF58274033EF583EDF041
:1034F000E56015607002155F80CC90034A7402F09D
:10350000A314F0900A6AE090034CF09009D5E0759E
:103510005F00F560E560455F602E9009D5E0C395DA
:1035200060FFE4955FFE74402FF58274083EF583DA
:10353000E0FD744D2FF58274033EF583EDF0E560F8
:1035400015607002155F80CCE490037CF0A304F05A
:10355000900A6BE090037EF0900A6B601F9009E187
:1035600074FFF0A37467F0A374EBF07B017A087921
:103570005412B85E90069D7424F0801D9009E17489
:10358000FFF0A37467F0A374F1F07B017A0879541B
:1035900012B85E90069D7423F090069DE0755F0062
:1035A000F560E560455F602E90069DE0C39560FF85
:1035B000E4955FFE74542FF58274083EF583E0FDB8
:1035C000747F2FF58274033EF583EDF0E56015609E
:1035D0007002155F80CC90069DE0247FF582E43474
:1035E00003F5837403F09003AE7401F0A3F0900A26
:1035F0006CE09003B0F09009D6E0755F00F560E5EF
:1036000060455F602E9009D6E0C39560FFE4955F4A
:10361000FE74782FF58274083EF583E0FD74B12FB7
:10362000F58274033EF583EDF0E5601560700215D8
:103630005F80CCE49003E0F0A304F0900A85E09072
:1036400003E2F0900A85601F9009E174FFF0A37413
:1036500067F0A374EBF07B017A08799112B85E9061
:10366000069D7418F0801D9009E174FFF0A3746743
:10367000F0A374F1F07B017A08799112B85E90069C
:103680009D7417F090069DE0755F00F560E560455C
:103690005F602E90069DE0C39560FFE4955FFE7429
:1036A000912FF58274083EF583E0FD74E32FF582D7
:1036B00074033EF583EDF0E56015607002155F80E0
:1036C000CC90069DE024E3F582E43403F583740393
:1036D000F09004127407F0A314F0E4F55FF560C3F2
:1036E000E5609406E55F94005054E560AE5F7802B3
:1036F000C333CE33CED8F9246DF582740A3EF583F8
:10370000E0FCA3E0FDA3E0FEA3E0FFC004C005C011
:1037100006C007E560AE5F7802C333CE33CED8F97A
:103720002414F58274043EF583D007D006D005D06A
:1037300004127ED60560E5607002055F80A19009E5
:10374000D7E0755F00F560E560455F602E9009D7B2
:10375000E0C39560FFE4955FFE74A92FF5827408BD
:103760003EF583E0FD742C2FF58274043EF583ED65
:10377000F0E56015607002155F80CC90044474041D
:10378000F0A37401F0900A86E0FFA3E0900446CF16
:10379000F0A3EFF09009D8E0755F00F560E56045B3
:1037A0005F602E9009D8E0C39560FFE4955FFE74DA
:1037B000BE2FF58274083EF583E0FD74482FF58234
:1037C00074043EF583EDF0E56015607002155F80CE
:1037D000CC9004767403F0A37401F0900A88E0FFA3
:1037E000A3E0900478CFF0A3EFF09009D9E0755FE3
:1037F00000F560E560455F602E9009D9E0C39560F3
:10380000FFE4955FFE74D22FF58274083EF583E0E5
:10381000FD747A2FF58274043EF583EDF0E56015B2
:10382000607002155F80CC9004A87404F0A3740249
:10383000F0900A8AE0FFA3E090092CCFF0A3EFF00C
:10384000900A8CE0FFA3E0900930CFF0A3EFF09056
:1038500009DAE0755F00F560E560455F602E90096C
:10386000DAE0C39560FFE4955FFE74EC2FF5827497
:10387000083EF583E0FD74AE2FF58274043EF583B7
:10388000EDF0E56015607002155F80CC9009DBE01B
:10389000755F00F560E560455F602E9009DBE0C371
:1038A0009560FFE4955FFE74012FF58274093EF583
:1038B00083E0FD74DA2FF58274043EF583EDF0E5C4
:1038C0006015607002155F80CC9009DCE0755F00C8
:1038D000F560E560455F602E9009DCE0C39560FF10
:1038E000E4955FFE74652FF58274093EF583E0FD73
:1038F00074702FF58274053EF583EDF0E560156078
:103900007002155F80CC9009DDE0755F00F560E521
:1039100060455F602E9009DDE0C39560FFE4955F30
:10392000FE74A02FF58274093EF583E0FD74062F26
:10393000F58274063EF583EDF0E5601560700215C2
:103940005F80CC7B017A00792890069BE0A3E0148D
:10395000FD12C14190069BE0FCA3E0FD2427F58207
:1039600074003CF583EFF07B017A00792812B08E69
:1039700012C6C622900B87E0900A98F022900A1D8A
:10398000E064036064E4FFFE7D807C47900B87E089
:10399000F8A3E0F9A3E0FAA3E0FB1276EE12794B6C
:1039A000900A99127ED6E4FFFE7D807C47900B8BB7
:1039B000E0F8A3E0F9A3E0FAA3E0FB1276EE1279B7
:1039C0004B900A9D127ED6E4FFFE7D807C47900BD3
:1039D0008FE0F8A3E0F9A3E0FAA3E0FB1276EE1281
:1039E000794B900AA1127ED622E4FFFE7D807C47AF
:1039F000900B87E0F8A3E0F9A3E0FAA3E0FB1276CE
:103A0000EE12794B900AB1127ED6E4FFFE7D807CE7
:103A100047900B8BE0F8A3E0F9A3E0FAA3E0FB12D8
:103A200076EE12794B900AB5127ED6E4FFFE7D80C9
:103A30007C47900B8FE0F8A3E0F9A3E0FAA3E0FB4A
:103A40001276EE12794B900AB9127ED622900A1D98
:103A5000E064036064E4FFFE7D807C47900B87E0B8
:103A6000F8A3E0F9A3E0FAA3E0FB1276EE12794B9B
:103A7000900AA5127ED6E4FFFE7D807C47900B8BDA
:103A8000E0F8A3E0F9A3E0FAA3E0FB1276EE1279E6
:103A90004B900AA9127ED6E4FFFE7D807C47900BF6
:103AA0008FE0F8A3E0F9A3E0FAA3E0FB1276EE12B0
:103AB000794B900AAD127ED622E4FFFE7D807C47D2
:103AC000900B87E0F8A3E0F9A3E0FAA3E0FB1276FD
:103AD000EE12794B900ABD127ED6E4FFFE7D807C0B
:103AE00047900B8BE0F8A3E0F9A3E0FAA3E0FB1208
:103AF00076EE12794B900AC1127ED6E4FFFE7D80ED
:103B00007C47900B8FE0F8A3E0F9A3E0FAA3E0FB79
:103B10001276EE12794B900AC5127ED622900B8750
:103B2000E06007900ACB7403F022E4900ACBF02205
:103B3000900B87E0900ACCF022900B87E0900ACDA2
:103B4000F022E4F55FF560C3E5609404E55F94005E
:103B50004003023F8274872560F582740B355FF560
:103B600083E0FF74CE2560F582740A355FF583EF3C
:103B7000F00560E5607002055F80CCE4F55FF560FC
:103B8000C3E5609404E55F94004003023C2CE560CB
:103B900025E0FFE55F33FE74872FF582740B3EF559
:103BA00083E0FEA3E0FFEE3395E0FDFCC004C0051A
:103BB000C006C007E560AE5F7802C333CE33CED80F
:103BC000F9FBAA0624D2F582740A3AF583D007D00D
:103BD00006D005D004127ED674D22BF582740A3A30
:103BE000F583C083C082E0FCA3E0FDA3E0FEA3E078
:103BF000FF74CE2560F582740A355FF583E0F9F82D
:103C0000127E89D082D083127ED6E56025E0FFE562
:103C10005F33FE743E2FF582740C3EF583E4F0A30F
:103C2000F00560E5607002055F023B80D20A22E485
:103C3000F55FF560C3E5609404E55F94004003021E
:103C40003F82E560AE5F7802C333CE33CED8F9242D
:103C500087F582740B3EF583E0FCA3E0FDA3E0FE54
:103C6000A3E0FFC004C005C006C007E560AE5F78F2
:103C700002C333CE33CED8F924E2F582740A3EF57E
:103C800083D007D006D005D004127ED60560E5604B
:103C90007002055F809E900B87E0900AF2F022E4AC
:103CA000F55FF560C3E5609402E55F9400400302B0
:103CB0003F82E560AE5F7803C333CE33CED8F924BC
:103CC00087F582740B3EF583E0FCA3E0FDA3E0FEE4
:103CD000A3E0FFC004C005C006C007E560AE5F7882
:103CE00002C333CE33CED8F924F3F582740A3EF5FD
:103CF00083D007D006D005D004127ED6E560AE5F33
:103D00007803C333CE33CED8F9248BF582740B3EBF
:103D1000F583E0FCA3E0FDA3E0FEA3E0FFC004C048
:103D200005C006C007E560AE5F7802C333CE33CE70
:103D3000D8F9FBAA0624FBF582740A3AF583D0076A
:103D4000D006D005D004127ED674F32BF582740A07
:103D50003AF583C083C082E0FCA3E0FDA3E0FEA3AC
:103D6000E0FF74CE2560F582740A355FF583E0F9D3
:103D7000F8127E89D082D083127ED6E560AE5F785D
:103D800002C333CE33CED8F924FBF582740A3EF554
:103D900083C083C082E0FCA3E0FDA3E0FEA3E0FFBC
:103DA00074CE2560F582740A355FF583E0F9F81268
:103DB0007E89D082D083127ED60560E560700205D0
:103DC0005F023CA4900B87E0FCA3E0FDA3E0FEA310
:103DD000E0FF90069E127ED6E4FFFEFDFC90069E5C
:103DE000E0F8A3E0F9A3E0FAA3E0FBD3127E3B5096
:103DF0001490069EE0FCA3E0FDA3E0FEA3E0FF908C
:103E00000B05127ED6900B8BE0FCA3E0FDA3E0FE39
:103E1000A3E0FF90069E127ED6E4FFFEFDFC900616
:103E20009EE0F8A3E0F9A3E0FAA3E0FBC3127E3B17
:103E30005003023F8290069EE0FCA3E0FDA3E0FE5B
:103E4000A3E0FF900B09127ED622900B87E0FFA320
:103E5000E0900AC9CFF0A3EFF022900B87E0900B1F
:103E600011F022900B87E0FFA3E0900B0DCFF0A3A1
:103E7000EFF0900B89E0FFA3E0900B0FCFF0A3EFE2
:103E8000F022900B87E0FCA3E0FDA3E0FEA3E0FF9F
:103E9000900B12127ED6900B8BE0FCA3E0FDA3E00A
:103EA000FEA3E0FF900B16127ED622900B87E090C7
:103EB0000B1AF022900B87E09006A2F06007900B9F
:103EC0001B7401F022E4900B1BF022900B87E09012
:103ED0000B1CF022900B87E0900B35F022E4F55F8D
:103EE000F560C3E5609406E55F94004003023F82FD
:103EF000E560AE5F7802C333CE33CED8F92487F5C0
:103F000082740B3EF583E0FCA3E0FDA3E0FEA3E09A
:103F1000FFC004C005C006C007E560AE5F7802C3FD
:103F200033CE33CED8F9241DF582740B3EF583D001
:103F300007D006D005D004127ED60560E560700279
:103F4000055F809E900B87E0FFA3E0900B36CFF0DB
:103F5000A3EFF022900B87E0FFA3E0900B38CFF0A7
:103F6000A3EFF022900B87E0FFA3E0900B3ACFF095
:103F7000A3EFF0900B89E0FFA3E0900B3CCFF0A300
:103F8000EFF022900666EBF0A3EAF0A3E9F09006CA
:103F900066E0FBA3E0FAA3E0F8AC02AD037BFF7A96
:103FA0006879831281139009E174FFF0A37468F0BB
:103FB000A37484F0900666E0FBA3E0FAA3E0F91294
:103FC000B85E9009E174FFF0A37468F0A37487F001
:103FD000900666E0FBA3E0FAA3E0F912B85E900950
:103FE000E174FFF0A37468F0A3749AF0900666E0A1
:103FF000FBA3E0FAA3E0F912B85E9009E174FFF0C8
:10400000A37468F0A374B1F0900666E0FBA3E0FA35
:10401000A3E0F912B85E9009E174FFF0A37468F0B0
:10402000A374B7F0900666E0FBA3E0FAA3E0F912F0
:10403000B85E90069E74FFF0A37468F0A374C5F098
:104040009009E8E0FF9006A1E4F0A3EFF07B017A8D
:10405000067969128A649009E17401F0A37406F08C
:10406000A37469F0900666E0FBA3E0FAA3E0F912FE
:10407000B85E9009E174FFF0A37468F0A374CEF009
:10408000900666E0FBA3E0FAA3E0F912B85E900A9E
:1040900085E0B4011E9009E174FFF0A37468F0A3F9
:1040A00074E9F0900666E0FBA3E0FAA3E0F912B829
:1040B0005E801C9009E174FFF0A37468F0A374EEB5
:1040C000F0900666E0FBA3E0FAA3E0F912B85E9078
:1040D000069E74FFF0A37468F0A374F2F0900C5283
:1040E000E0FF9006A1E4F0A3EFF07B017A06796986
:1040F000128A649009E17401F0A37406F0A3746954
:10410000F0900666E0FBA3E0FAA3E0F912B85E9037
:1041100009E174FFF0A37468F0A37484F09006665C
:10412000E0FBA3E0FAA3E0F912B85E9009E174FFA6
:10413000F0A37469F0A37402F0900666E0FBA3E0BC
:10414000FAA3E0F912B85E9009E174FFF0A3746974
:10415000F0A3740FF0900666E0FBA3E0FAA3E0F989
:1041600012B85EE4F55FF560C3E5609402E55F6454
:10417000809480507990069E74FFF0A37469F0A338
:104180007422F0E560AE5F7802C333CE33CED8F947
:10419000247BF582740B3EF583E0FCA3E0FDA3E0F5
:1041A000FEA3E0FF741E2560F582740A355FF58377
:1041B000E0F9F8127E759006A1EEF0A3EFF07B0116
:1041C0007A067969128A649009E17401F0A3740691
:1041D000F0A37469F0900666E0FBA3E0FAA3E0F9AF
:1041E00012B85E0560E5607002055F0241689009E3
:1041F000E174FFF0A37468F0A37484F0900666E0A5
:10420000FBA3E0FAA3E0F912B85E90069E74FFF0FB
:10421000A37469F0A37426F07B017A067969128A87
:1042200064900B83E0540360199009E174FFF0A3DC
:104230007469F0A37436F07B017A06796912B85E6E
:1042400080179009E174FFF0A37469F0A3743CF047
:104250007B017A06796912B85E9009E17401F0A3D6
:104260007406F0A37469F0900666E0FBA3E0FAA37D
:10427000E0F912B85E9009E174FFF0A37469F0A34D
:104280007441F0900666E0FBA3E0FAA3E0F912B8EF
:104290005E9009E174FFF0A37469F0A37457F09085
:1042A0000666E0FBA3E0FAA3E0F912B85EE4F55F6E
:1042B000F560C3E5609404E55F6480948040030288
:1042C000436690069E74FFF0A37469F0A37467F0D0
:1042D000E56024019006A2F0E4355F9006A1F0E5C8
:1042E00060AE5F7802C333CE33CED8F9244FF58267
:1042F000740B3EF583E0FCA3E0FDA3E0FEA3E0FF2A
:10430000741E2560F582740A355FF583E0F9F812B2
:104310007E759006A3EEF0A3EFF07B017A06796933
:10432000128A649009E17401F0A37406F0A3746921
:10433000F0900666E0FBA3E0FAA3E0F912B85E9005
:1043400009E174FFF0A37468F0A37484F09006662A
:10435000E0FBA3E0FAA3E0F912B85E0560E5607047
:1043600002055F0242B290069E74FFF0A37469F0EA
:10437000A37470F0900B77E0FCA3E0FDA3E0FEA334
:10438000E0FF9006A1127ED67B017A067969128A37
:10439000649009E17401F0A37406F0A37469F090CD
:1043A0000666E0FBA3E0FAA3E0F912B85E9009E12B
:1043B00074FFF0A37468F0A37484F0900666E0FBC9
:1043C000A3E0FAA3E0F912B85E90069E74FFF0A392
:1043D0007469F0A37482F0900B47E0FCA3E0FDA3A6
:1043E000E0FEA3E0FF9006A1127ED67B017A06795B
:1043F00069128A649009E17401F0A37406F0A37451
:1044000069F0900666E0FBA3E0FAA3E0F912B85E5B
:104410009009E174FFF0A37468F0A37484F090062F
:1044200066E0FBA3E0FAA3E0F912B85E90069E7482
:10443000FFF0A37469F0A37496F0900B4BE0FCA31B
:10444000E0FDA3E0FEA3E0FF9006A1127ED67B0173
:104450007A067969128A649009E17401F0A37406FE
:10446000F0A37469F0900666E0FBA3E0FAA3E0F91C
:1044700012B85E9009E174FFF0A37468F0A374842D
:10448000F0900666E0FBA3E0FAA3E0F912B85E90B4
:10449000069E74FFF0A37469F0A374AAF0900B6FEA
:1044A000E0FFA3E09006A1CFF0A3EFF0900B71E046
:1044B000FFA3E09006A3CFF0A3EFF07B017A06798B
:1044C00069128A649009E17401F0A37406F0A37480
:1044D00069F0900666E0FBA3E0FAA3E0F912B85E8B
:1044E0009009E174FFF0A37468F0A37484F090065F
:1044F00066E0FBA3E0FAA3E0F912B85E9009E1746C
:10450000FFF0A37469F0A374CAF0900666E0FBA301
:10451000E0FAA3E0F912B85E9009E174FFF0A37429
:1045200069F0A374E0F0900666E0FBA3E0FAA3E074
:10453000F912B85E900A1DE06403700302464190D0
:10454000069E74FFF0A37469F0A374F2F09009E979
:10455000E0FCA3E0FDA3E0FEA3E0FFEC12790DE494
:10456000FBFA798078471277F79006A1127ED67B06
:10457000017A067969128A649009E17401F0A374E2
:1045800006F0A37469F0900666E0FBA3E0FAA3E0EE
:10459000F912B85E90069E74FFF0A37469F0A374DC
:1045A000FCF09009EDE0FCA3E0FDA3E0FEA3E0FF3A
:1045B000EC12790DE4FBFA798078471277F79006D0
:1045C000A1127ED67B017A067969128A649009E18C
:1045D0007401F0A37406F0A37469F0900666E0FB22
:1045E000A3E0FAA3E0F912B85E90069E74FFF0A370
:1045F000746AF0A37406F09009F1E0FCA3E0FDA357
:10460000E0FEA3E0FFEC12790DE4FBFA7980784735
:104610001277F79006A1127ED67B017A067969128D
:104620008A649009E17401F0A37406F0A37469F040
:10463000900666E0FBA3E0FAA3E0F912B85E024739
:104640004090069E74FFF0A37469F0A374F2F0909A
:104650000A01E0FCA3E0FDA3E0FEA3E0FFEC127979
:104660000DE4FBFA798078471277F79006A1127E65
:10467000D67B017A067969128A649009E17401F0A7
:10468000A37406F0A37469F0900666E0FBA3E0FA59
:10469000A3E0F912B85E90069E74FFF0A37469F06F
:1046A000A374FCF0900A05E0FCA3E0FDA3E0FEA3E8
:1046B000E0FFEC12790DE4FBFA798078471277F786
:1046C0009006A1127ED67B017A067969128A6490DF
:1046D00009E17401F0A37406F0A37469F090066612
:1046E000E0FBA3E0FAA3E0F912B85E90069E74FF27
:1046F000F0A3746AF0A37406F0900A09E0FCA3E04A
:10470000FDA3E0FEA3E0FFEC12790DE4FBFA798053
:1047100078471277F79006A1127ED67B017A067948
:1047200069128A649009E17401F0A37406F0A3741D
:1047300069F0900666E0FBA3E0FAA3E0F912B85E28
:104740009009E174FFF0A3746AF0A37410F090066E
:1047500066E0FBA3E0FAA3E0F912B85E900A1DE060
:104760006403700302486990069E74FFF0A37469A5
:10477000F0A374F2F09009F5E0FCA3E0FDA3E0FEE5
:10478000A3E0FFEC12790DE4FBFA79807847127709
:10479000F79006A1127ED67B017A067969128A64A7
:1047A0009009E17401F0A37406F0A37469F0900617
:1047B00066E0FBA3E0FAA3E0F912B85E90069E74EF
:1047C000FFF0A37469F0A374FCF09009F9E0FCA376
:1047D000E0FDA3E0FEA3E0FFEC12790DE4FBFA7923
:1047E0008078471277F79006A1127ED67B017A0671
:1047F0007969128A649009E17401F0A37406F0A348
:104800007469F0900666E0FBA3E0FAA3E0F912B841
:104810005E90069E74FFF0A3746AF0A37406F09095
:1048200009FDE0FCA3E0FDA3E0FEA3E0FFEC1279AC
:104830000DE4FBFA798078471277F79006A1127E93
:10484000D67B017A067969128A649009E17401F0D5
:10485000A37406F0A37469F0900666E0FBA3E0FA87
:10486000A3E0F912B85E02496890069E74FFF0A3B7
:104870007469F0A374F2F0900A0DE0FCA3E0FDA3CC
:10488000E0FEA3E0FFEC12790DE4FBFA79807847B3
:104890001277F79006A1127ED67B017A067969120B
:1048A0008A649009E17401F0A37406F0A37469F0BE
:1048B000900666E0FBA3E0FAA3E0F912B85E90066A
:1048C0009E74FFF0A37469F0A374FCF0900A11E0E9
:1048D000FCA3E0FDA3E0FEA3E0FFEC12790DE4FBF6
:1048E000FA798078471277F79006A1127ED67B017D
:1048F0007A067969128A649009E17401F0A374065A
:10490000F0A37469F0900666E0FBA3E0FAA3E0F977
:1049100012B85E90069E74FFF0A3746AF0A374064A
:10492000F0900A15E0FCA3E0FDA3E0FEA3E0FFEC9D
:1049300012790DE4FBFA798078471277F79006A197
:10494000127ED67B017A067969128A649009E17435
:1049500001F0A37406F0A37469F0900666E0FBA36F
:10496000E0FAA3E0F912B85E9009E174FFF0A374D5
:1049700068F0A37484F0900666E0FBA3E0FAA3E07D
:10498000F912B85E900A1BE0B4031E9009E174FFAF
:10499000F0A3746AF0A3742AF0900666E0FBA3E02B
:1049A000FAA3E0F912B85E801C9009E174FFF0A34D
:1049B000746AF0A37444F0900666E0FBA3E0FAA3E7
:1049C000E0F912B85E900A1CE0B407004003024A06
:1049D000BF9049D8F82828730249ED024A0C024AD0
:1049E0002B024A49024A67024A85024AA39009E11A
:1049F00074FFF0A3746AF0A3745DF0900666E0FBA8
:104A0000A3E0FAA3E0F912B85E024ABF9009E1748C
:104A1000FFF0A3746AF0A3746FF0900666E0FBA346
:104A2000E0FAA3E0F912B85E024ABF9009E174FF10
:104A3000F0A3746AF0A37484F0900666E0FBA3E030
:104A4000FAA3E0F912B85E80769009E174FFF0A352
:104A5000746AF0A374A3F0900666E0FBA3E0FAA3E7
:104A6000E0F912B85E80589009E174FFF0A3746A0F
:104A7000F0A374BEF0900666E0FBA3E0FAA3E0F9B1
:104A800012B85E803A9009E174FFF0A3746AF0A353
:104A900074D5F0900666E0FBA3E0FAA3E0F912B843
:104AA0005E801C9009E174FFF0A3746AF0A374F0B7
:104AB000F0900666E0FBA3E0FAA3E0F912B85E907E
:104AC00009E174FFF0A3746BF0A37407F09006661D
:104AD000E0FBA3E0FAA3E0F912B85E900A1DE0142F
:104AE000602814604314605E240370769009E174BA
:104AF000FFF0A3746BF0A37416F0900666E0FBA3BE
:104B0000E0FAA3E0F912B85E80589009E174FFF072
:104B1000A3746BF0A37421F0900666E0FBA3E0FAA7
:104B2000A3E0F912B85E803A9009E174FFF0A37433
:104B30006BF0A37427F0900666E0FBA3E0FAA3E015
:104B4000F912B85E801C9009E174FFF0A3746BF059
:104B5000A37431F0900666E0FBA3E0FAA3E0F9123B
:104B6000B85E900A6BE0601E9009E174FFF0A374D8
:104B70006BF0A37448F0900666E0FBA3E0FAA3E0B4
:104B8000F912B85E801C9009E174FFF0A3746BF019
:104B9000A37469F0900666E0FBA3E0FAA3E0F912C3
:104BA000B85E90069E74FFF0A3746BF0A37489F056
:104BB000900A6CE0FE3395E09006A1F0A3CEF07B66
:104BC000017A067969128A649009E17401F0A3748C
:104BD00006F0A37469F0900666E0FBA3E0FAA3E098
:104BE000F912B85E9009E174FFF0A3746BF0A3743E
:104BF000A2F0900666E0FBA3E0FAA3E0F912B85E2B
:104C0000E4F55FF560C3E5609404E55F648094803B
:104C1000507F90069E74FFF0A37469F0A37467F050
:104C2000E56024019006A2F0E4355F9006A1F074DF
:104C30001E2560F582740A355FF583E0FF9006A3B8
:104C4000E4F0A3EFF07B017A067969128A64900997
:104C5000E17401F0A37406F0A37469F0900666E0B5
:104C6000FBA3E0FAA3E0F912B85E9009E174FFF04B
:104C7000A37468F0A37484F0900666E0FBA3E0FAE6
:104C8000A3E0F912B85E0560E5607002055F024CB2
:104C9000059009E174FFF0A3746BF0A374B7F09072
:104CA0000666E0FBA3E0FAA3E0F912B85EE4F55F64
:104CB000F560C3E5609404E55F648094804003027E
:104CC0004D6490069E74FFF0A3746BF0A374CDF056
:104CD000E56024019006A2F0E4355F9006A1F0E5BE
:104CE00060AE5F7802C333CE33CED8F92422F5828A
:104CF000740A3EF583E0FCA3E0FDA3E0FEA3E0FF21
:104D0000741E2560F582740A355FF583E0F9F812A8
:104D10007E759006A3127ED67B017A067969128A87
:104D2000649009E17401F0A37406F0A37469F09033
:104D30000666E0FBA3E0FAA3E0F912B85E9009E191
:104D400074FFF0A37468F0A37484F0900666E0FB2F
:104D5000A3E0FAA3E0F912B85E0560E56070020511
:104D60005F024CB29009E174FFF0A3746BF0A3747E
:104D7000D7F0900666E0FBA3E0FAA3E0F912B85E74
:104D8000E4F55FF560C3E5609404E55F64809480BA
:104D90004003024E2590069E74FFF0A3746BF0A3AF
:104DA00074F1F0E56024019006A2F0E4355F90060E
:104DB000A1F0E560AE5F7802C333CE33CED8F924DC
:104DC00032F582740A3EF583E0FCA3E0FDA3E0FE29
:104DD000A3E0FF9006A3127ED67B017A06796912C2
:104DE0008A649009E17401F0A37406F0A37469F079
:104DF000900666E0FBA3E0FAA3E0F912B85E900922
:104E0000E174FFF0A37468F0A37484F0900666E088
:104E1000FBA3E0FAA3E0F912B85E0560E56070025A
:104E2000055F024D8590069E74FFF0A3746BF0A39E
:104E300074FAF0900A42E0FF9006A1E4F0A3EFF0CC
:104E40007B017A067969128A649009E17401F0A302
:104E50007406F0A37469F0900666E0FBA3E0FAA381
:104E6000E0F912B85E9009E174FFF0A37468F0A352
:104E70007484F0900666E0FBA3E0FAA3E0F912B8B0
:104E80005EE4F55FF560C3E5609402E55F648094DD
:104E9000804003024F8890069E74FFF0A3746CF06C
:104EA000A37414F0E56024019006A2F0E4355F904D
:104EB00006A1F0E560AE5F7802C333CE33CED8F9F9
:104EC0002443F582740A3EF583E0FCA3E0FDA3E0F1
:104ED000FEA3E0FF741E2560F582740A355FF5833A
:104EE000E0F9F8127E759006A3127ED67B017A0651
:104EF0007969128A649009E17401F0A37406F0A341
:104F00007469F0900666E0FBA3E0FAA3E0F912B83A
:104F10005E90069E74FFF0A3746CF0A3743AF0E503
:104F200060AE5F7802C333CE33CED8F9244BF5821E
:104F3000740A3EF583E0FCA3E0FDA3E0FEA3E0FFDE
:104F4000741E2560F582740A355FF583E0F9F81266
:104F50007E759006A1127ED67B017A067969128A47
:104F6000649009E17401F0A37406F0A37469F090F1
:104F70000666E0FBA3E0FAA3E0F912B85E0560E57F
:104F8000607002055F024E8690069E74FFF0A37467
:104F90006CF0A37447F0900A59E0A3E0A3E0FFA3EC
:104FA000E09006A1CFF0A3EFF0900A55E0A3E0A3B4
:104FB000E0FFA3E09006A3CFF0A3EFF07B017A0619
:104FC0007969128A649009E17401F0A37406F0A370
:104FD0007469F0900666E0FBA3E0FAA3E0F912B86A
:104FE0005E9009E174FFF0A37468F0A37484F090FC
:104FF0000666E0FBA3E0FAA3E0F912B85E90069E15
:1050000074FFF0A3746CF0A37463F0900A19E0FFCE
:10501000A3E09006A1CFF0A3EFF07B017A067969B7
:10502000128A649009E17401F0A37406F0A3746914
:10503000F0900666E0FBA3E0FAA3E0F912B85E90F8
:1050400009E174FFF0A37468F0A37484F09006661D
:10505000E0FBA3E0FAA3E0F912B85E9009E174FF67
:10506000F0A37468F0A37484F0900666E0FBA3E0FC
:10507000FAA3E0F912B85E90069E74FFF0A3746C78
:10508000F0A37475F0900A86E0FFA3E09006A1CF2C
:10509000F0A3EFF07B017A067969128A649009E146
:1050A0007401F0A37406F0A37469F0900666E0FB47
:1050B000A3E0FAA3E0F912B85E9009E174FFF0A34F
:1050C0007468F0A37484F0900666E0FBA3E0FAA392
:1050D000E0F912B85E90069E74FFF0A3746CF0A322
:1050E0007487F0900A88E0FFA3E09006A1CFF0A3B8
:1050F000EFF07B017A067969128A649009E1740104
:10510000F0A37406F0A37469F0900666E0FBA3E0D8
:10511000FAA3E0F912B85E9009E174FFF0A3746895
:10512000F0A37484F0900666E0FBA3E0FAA3E0F934
:1051300012B85E90069E74FFF0A3746CF0A3749E88
:10514000F0900A8AE0FFA3E09006A1CFF0A3EFF071
:10515000900A8CE0FFA3E09006A3CFF0A3EFF07BD2
:10516000017A067969128A649009E17401F0A374E6
:1051700006F0A37469F0900666E0FBA3E0FAA3E0F2
:10518000F912B85E9009E174FFF0A37468F0A3749B
:1051900084F0900666E0FBA3E0FAA3E0F912B85EA3
:1051A0009009E174FFF0A37468F0A37484F0900692
:1051B00066E0FBA3E0FAA3E0F912B85E90069E74E5
:1051C000FFF0A3746CF0A374BCF0900A5DE0FFA341
:1051D000E09006A1CFF0A3EFF0900A5FE0FFA3E01C
:1051E0009006A3CFF0A3EFF07B017A067969128ACB
:1051F000649009E17401F0A37406F0A37469F0905F
:105200000666E0FBA3E0FAA3E0F912B85E9009E1BC
:1052100074FFF0A37468F0A37484F0900666E0FB5A
:10522000A3E0FAA3E0F912B85E90069E74FFF0A323
:10523000746CF0A374DEF0900A62E0FCA3E0FDA3BE
:10524000E0FEA3E0FF9006A1127ED6900A66E0FC85
:10525000A3E0FDA3E0FEA3E0FF9006A5127ED67BAF
:10526000017A067969128A649009E17401F0A374E5
:1052700006F0A37469F0900666E0FBA3E0FAA3E0F1
:10528000F912B85E9009E174FFF0A37468F0A3749A
:1052900084F0900666E0FBA3E0FAA3E0F912B85EA2
:1052A000900B11E0601E9009E174FFF0A3746DF0A3
:1052B000A37402F0900666E0FBA3E0FAA3E0F91203
:1052C000B85E801C9009E174FFF0A3746DF0A374C4
:1052D0001DF0900666E0FBA3E0FAA3E0F912B85EC9
:1052E00090069E74FFF0A3746DF0A37437F0900ADB
:1052F0006AE0FF9006A1E4F0A3EFF07B017A067963
:1053000069128A649009E17401F0A37406F0A37431
:1053100069F0900666E0FBA3E0FAA3E0F912B85E3C
:105320009009E174FFF0A37468F0A37484F0900610
:1053300066E0FBA3E0FAA3E0F912B85E90069E7463
:10534000FFF0A3746DF0A37449F0900B73E0F8A321
:10535000E0F9A3E0FAA3E0FB900C12E0FCA3E0FD6F
:10536000A3E0FEA3E0C39BFFEE9AFEED99FDEC984F
:10537000FC9006A1127ED67B017A067969128A64B6
:105380009009E17401F0A37406F0A37469F090062B
:1053900066E0FBA3E0FAA3E0F912B85E9009E174BD
:1053A000FFF0A37468F0A37484F0900666E0FBA39A
:1053B000E0FAA3E0F912B85E228F23E4F52BF52A78
:1053C000F529F5289009E9E0FCA3E0FDA3E0FEA3A0
:1053D000E0F5538E528D518C50A3E0FCA3E0FDA369
:1053E000E0FEA3E0F5578E568D558C54A3E0FCA348
:1053F000E0FDA3E0FEA3E0F55B8E5A8D598C58A327
:10540000E0FCA3E0FDA3E0FEA3E0FF900002127E1B
:10541000D69009F9E0FCA3E0FDA3E0FEA3E0FF9035
:105420000006127ED69009FDE0FCA3E0FDA3E0FE9D
:10543000A3E0FF90000A127ED6900A01E0FCA3E0F0
:10544000FDA3E0FEA3E0FF90000E127ED6900A05B9
:10545000E0FCA3E0FDA3E0FEA3E0FF900012127EBB
:10546000D6900A09E0FCA3E0FDA3E0FEA3E0FF90D4
:105470000016127ED6900A0DE0FCA3E0FDA3E0FE2C
:10548000A3E0FF90001A127ED6900A11E0FCA3E080
:10549000FDA3E0FEA3E0FF90001E127ED6900A1549
:1054A000E0FCA3E0FDA3E0FEA3E0FF900022127E5B
:1054B000D6900A5DE0FEA3E0FFFBAA06E4900C464E
:1054C000E0FCA3E0FDA3E0FEA3E0C39BF53BEE9A66
:1054D000F53AED9400F539EC9400F538900A5FE068
:1054E000FEA3E0FFFBAA06E4900C4AE0FCA3E0FD6B
:1054F000A3E0FEA3E0C39BF53FEE9AF53EED9400DA
:10550000F53DEC9400F53CE523C3940240030267AB
:10551000EA900A1CE024FA6009025BBE025BBE024C
:105520005BBEE4F543F542F541F540F547F546F538
:1055300045F544D3900C4FE09484900C4EE0648089
:1055400094834003D38001C3500302598B900B38DE
:10555000E0FAA3E0FB900C4FE09BFF900C4EE09A2A
:10556000FE3395E08F438E42F541F540D3A3E09B97
:10557000EA6480F8900C4EE064809850030256551F
:10558000900C09E0F8A3E0F9A3E0FAA3E0FBC00067
:10559000C001C002C003900B36E0FEA3E0FFE4FCB4
:1055A000FDAB43AA42A941A840127D03C006C00733
:1055B000900B38E0FEA3E0FFC3E49FFF74049EFE5F
:1055C000AB07FA3395E0F9F8D007D00612BD96D0B4
:1055D00003D002D001D000EB2FFFEA3EFEE93DFDF3
:1055E000E83CFC900C09127ED6900C0DE0F8A3E08C
:1055F000F9A3E0FAA3E0FBC000C001C002C0039021
:105600000B36E0FEA3E0FFE4FCFDAB43AA42A94158
:10561000A840127D03C006C007900B38E0FEA3E04F
:10562000FFC3E49FFF74049EFEAB07FA3395E0F9D5
:10563000F8D007D00612BD96D003D002D001D0001A
:10564000EB2FFFEA3EFEE93DFDE83CFC900C0D121D
:105650007ED6025761900B38E0FAA3E0FB900C4F26
:10566000E02BFF900C4EE03AFE3395E08F438E42E4
:10567000F541F540C3E49BFFE49AFEC3A3E09FEE2F
:105680006480F8900C4EE06480984003025761906B
:105690000C09E0F8A3E0F9A3E0FAA3E0FBC000C026
:1056A00001C002C003900B36E0FEA3E0FFE4FCFD66
:1056B000AB43AA42A941A840127D03C006C007908F
:1056C0000B38E0FEA3E0FFC3E49FFF74049EFEAB33
:1056D00007FA3395E0F9F8D007D00612BD96D0034B
:1056E000D002D001D000EB2FFFEA3EFEE93DFDE8FD
:1056F0003CFC900C09127ED6900C0DE0F8A3E0F96A
:10570000A3E0FAA3E0FBC000C001C002C003900BFD
:1057100036E0FEA3E0FFE4FCFDAB43AA42A941A8AA
:1057200040127D03C006C007900B38E0FEA3E0FFE7
:10573000C3E49FFF74049EFEAB07FA3395E0F9F8CB
:10574000D007D00612BD96D003D002D001D000EB16
:105750002FFFEA3EFEE93DFDE83CFC900C0D127E79
:10576000D6900B38E0FAA3E0FBC3900C51E09BFF0E
:10577000900C50E09AFE3395E08F478E46F545F544
:1057800044D3A3E09BEA6480F8900C50E0648098D6
:105790005003025873900C09E0F8A3E0F9A3E0FA73
:1057A000A3E0FBC000C001C002C003900B36E0FEC6
:1057B000A3E0FFE4FCFDAB47AA46A945A844127D3F
:1057C00003C006C007900B38E0FEA3E0FFC3E49FD0
:1057D000FF74049EFEAB07FA3395E0F9F8D007D0CA
:1057E0000612BD96D003D002D001D000EB2FFFEA05
:1057F0003EFEE93DFDE83CFC900C09127ED6900C83
:105800000DE0FCA3E0FDA3E0FEA3E0FFC004C005A3
:10581000C006C007900B36E0FEA3E0FFE4FCFDAB42
:1058200047AA46A945A844127D03C006C007900BAD
:1058300038E0FEA3E0FFC3E49FFF74049EFEAB07C5
:10584000FA3395E0F9F8D007D00612BD96A804A95E
:1058500005AA06AB07D007D006D005D004C3EF9B3E
:10586000FFEE9AFEED99FDEC98FC900C0D127ED6A1
:10587000025BBE900B38E0FAA3E0FB900C51E02BEA
:10588000FF900C50E03AFE3395E08F478E46F54589
:10589000F544C3E49BFFE49AFEC3A3E09FEE64805B
:1058A000F8900C50E06480984003025BBE900C09B5
:1058B000E0F8A3E0F9A3E0FAA3E0FBC000C001C058
:1058C00002C003900B36E0FEA3E0FFE4FCFDAB4713
:1058D000AA46A945A844127D03C006C007900B380C
:1058E000E0FEA3E0FFC3E49FFF74049EFEAB07FA53
:1058F0003395E0F9F8D007D00612BD96D003D00258
:10590000D001D000EB2FFFEA3EFEE93DFDE83CFC74
:10591000900C09127ED6900C0DE0FCA3E0FDA3E0F4
:10592000FEA3E0FFC004C005C006C007900B36E030
:10593000FEA3E0FFE4FCFDAB47AA46A945A844123C
:105940007D03C006C007900B38E0FEA3E0FFC3E470
:105950009FFF74049EFEAB07FA3395E0F9F8D00779
:10596000D00612BD96A804A905AA06AB07D007D099
:1059700006D005D004C3EF9BFFEE9AFEED99FDEC37
:1059800098FC900C0D127ED6025BBE900C32E0F8B3
:10599000A3E0F9A3E0FAA3E0FB900C2EE0FCA3E067
:1059A000FDA3E0FEA3E0C39BFFEE9AFEED99FDECA4
:1059B00098FC900A1EE0F9F8127E758F4B8E4A8D86
:1059C000498C48900C32E0FCA3E0FDA3E0FEA3E08C
:1059D000FF900C2EE0F8A3E0F9A3E0FAA3E02FFF7C
:1059E000EA3EFEE93DFDE83CFC900A1EE0F9F812B3
:1059F0007E758F4F8E4E8D4D8C4CAE4AAF4B12C87C
:105A00003ED3EF94F4EE648094815003025B01E492
:105A1000FFFEFDFCAB4BAA4AA949A848127E3B40B9
:105A2000067E007F0180047EFF7FFFEF64014E70E1
:105A300068900C0DE0F8A3E0F9A3E0FAA3E0FB9076
:105A40000B36E0FEA3E0FFE4FCFDEB2FFFEA3EFE99
:105A5000ED39FDEC38FC900C0D127ED6900C09E06F
:105A6000FCA3E0FDA3E0FEA3E0FFC006C007900B8F
:105A700036E0C313FEA3E013FFFBAA06E4D007D071
:105A800006C3EF9BFFEE9AFEED9400FDEC9400FC44
:105A9000900C09127ED6025BBE900C09E0F8A3E0E0
:105AA000F9A3E0FAA3E0FB900B36E0FEA3E0FFE4ED
:105AB000FCFDEB2FFFEA3EFEED39FDEC38FC900CCF
:105AC00009127ED6900C0DE0FCA3E0FDA3E0FEA33E
:105AD000E0FFC006C007900B36E0C313FEA3E0133F
:105AE000FFFBAA06E4D007D006C3EF9BFFEE9AFEA9
:105AF000ED9400FDEC9400FC900C0D127ED6025B40
:105B0000BEE4FFFEFDFCAB4FAA4EA94DA84CD3123C
:105B10007E3B5003025BBE900C09E0FCA3E0FDA3BA
:105B2000E0FEA3E0FFC006C007900B37E025E0FFD2
:105B3000900B36E033FEAB07FAE4D007D006C3EF94
:105B40009BFFEE9AFEED9400FDEC9400FC900C0996
:105B5000127ED6900C0DE0FCA3E0FDA3E0FEA3E0D6
:105B6000FFC006C007900B37E025E0FF900B36E042
:105B700033FEAB07FAE4D007D006C3EF9BFFEE9AE3
:105B8000FEED9400FDEC9400FC900C0D127ED6E42A
:105B9000FFFEFDFC900C09E0F8A3E0F9A3E0FAA3F6
:105BA000E0FBC3127E3B500BE4FFFEFDFC900C09B2
:105BB000127ED6E4FFFEFDFC900C0D127ED6900AFC
:105BC0001DE014700302666B14700302634E1470C0
:105BD00003025E28240360030266D5E52325E02541
:105BE000E025E0242EF582E4340CF583E0F8A3E010
:105BF000F9A3E0FAA3E0FBE52325E025E0248EF5F8
:105C000082E4340AF583E0FCA3E0FDA3E0FEA3E018
:105C1000C39BF52FEE9AF52EED99F52DEC98F52C0A
:105C2000300C05C20C12A4F1E52325E025E024DBAD
:105C3000F582E4340CF583C083C082E0FCA3E0FD70
:105C4000A3E0FEA3E0252FFFEE352EFEED352DFD62
:105C5000EC352CFCD082D083127ED6E52325E025BE
:105C6000E024DBF582E4340CF583E0FCA3E0FDA343
:105C7000E0FEA3E0FFE47BE87A03F9F8C3127E3B81
:105C8000501BE47FE87E03FDFCE52325E025E024AE
:105C9000DBF582E4340CF583127ED68042E52325C1
:105CA000E025E024DBF582E4340CF583E0FCA3E09E
:105CB000FDA3E0FEA3E0FF7B187AFC79FF78FFD319
:105CC000127E3B401A7F187EFC7DFF7CFFE523257A
:105CD000E025E024DBF582E4340CF583127ED63037
:105CE0000C05C20C12A4F1E4F52BF52AF529F528D0
:105CF000FFFEFDFCAB53AA52A951A850C3127E3B34
:105D0000601AAF2FAE2EAD2DAC2CA850127D0378AB
:105D100010127E758F2B8E2A8D298C28E4FFFEFDB4
:105D2000FCAB57AA56A955A854C3127E3B6038E570
:105D30002325E025E024DBF582E4340CF583E0FC48
:105D4000A3E0FDA3E0FEA3E0FFA854127D037810BA
:105D5000127E75E52B2FF52BE52A3EF52AE5293D28
:105D6000F529E5283CF528E4FFFEFDFCAB5BAA5ACB
:105D7000A959A858C3127E3B604FE52325E025E0D2
:105D800024F3F582E4340CF583E0F8A3E0F9A3E012
:105D9000FAA3E0FBC3E52F9BFFE52E9AFEE52D99C4
:105DA000FDE52C98FCAB5BAA5AA959A858127D03B3
:105DB0007810127E75E52B2FF52BE52A3EF52AE5A6
:105DC000293DF529E5283CF528AF2FAE2EAD2DACA9
:105DD0002CE52325E025E024F3F582E4340CF5835B
:105DE000127ED6300C05C20C12A4F1E523701CFF04
:105DF000FEFDFCAB2BAA2AA929A828C3127E3B4092
:105E000005D20E0266D5C20E0266D5E4FFFEFDFC89
:105E1000AB2BAA2AA929A828C3127E3B4005D20F82
:105E20000266D5C20F0266D5E52325E025E025E010
:105E3000242EF582E4340CF583E0F8A3E0F9A3E026
:105E4000FAA3E0FBE52325E025E0248EF582E43487
:105E50000AF583E0FCA3E0FDA3E0FEA3E0C39BF50D
:105E60002FEE9AF52EED99F52DEC98F52CE52325DE
:105E7000E025E024DBF582E4340CF583C083C082A6
:105E8000E0FCA3E0FDA3E0FEA3E0252FFFEE352E0E
:105E9000FEED352DFDEC352CFCD082D083127ED664
:105EA000300C05C20C12A4F1E52325E025E024DB2B
:105EB000F582E4340CF583E0FCA3E0FDA3E0FEA34F
:105EC000E0FF7B807AF079FA7802C3127E3B501CA7
:105ED0007F807EF07DFA7C02E52325E025E024DB4F
:105EE000F582E4340CF583127ED68042E52325E06A
:105EF00025E024DBF582E4340CF583E0FCA3E0FD2F
:105F0000A3E0FEA3E0FF7B807A0F790578FDD31232
:105F10007E3B401A7F807E0F7D057CFDE52325E0DA
:105F200025E024DBF582E4340CF583127ED6E4F51B
:105F300027F526F525F524300C05C20C12A4F1E452
:105F4000FFFEFDFC90000EE0F8A3E0F9A3E0FAA349
:105F5000E0FBC3127E3B602FAF2FAE2EAD2DAC2CDD
:105F600090000EE0F8A3E0A3E0A3E0127D03781018
:105F7000127E75E5272FF527E5263EF526E5253D1A
:105F8000F525E5243CF524E4FFFEFDFC900012E03D
:105F9000F8A3E0F9A3E0FAA3E0FBC3127E3B604163
:105FA000E52325E025E024DBF582E4340CF583E0ED
:105FB000FCA3E0FDA3E0FEA3E0FF900012E0F8A345
:105FC000E0A3E0A3E0127D037810127E75E5272F91
:105FD000F527E5263EF526E5253DF525E5243CF5A6
:105FE00024E4FFFEFDFC900016E0F8A3E0F9A3E036
:105FF000FAA3E0FBC3127E3B6055E52325E025E0D4
:1060000024F3F582E4340CF583E0F8A3E0F9A3E08F
:10601000FAA3E0FBC3E52F9BFFE52E9AFEE52D9941
:10602000FDE52C98FC900016E0F8A3E0F9A3E0FA57
:10603000A3E0FB127D037810127E75E5272FF5276C
:10604000E5263EF526E5253DF525E5243CF524AF7E
:106050002FAE2EAD2DAC2CE52325E025E024F3F565
:1060600082E4340CF583127ED6300C05C20C12A4E7
:10607000F1900A19E0FEA3E0FFEE3395E0FDFCABE2
:1060800027AA26A925A824D3127E3B4016900A19D8
:10609000E0FEA3E0FFEE3395E08F278E26F525F591
:1060A00024803C900A19E0FEA3E0FFC3E49FFFE4D4
:1060B0009EFE3395E0FDFCAB27AA26A925A824C3A4
:1060C000127E3B501A900A19E0FEA3E0FFC3E49F42
:1060D000FFE49EFE3395E08F278E26F525F52430CC
:1060E0000C05C20C12A4F1E52325E025E02426F5D9
:1060F00082E4340CF583E0F8A3E0F9A3E0FAA3E02E
:10610000FBC3E5279BF533E5269AF532E52599F59E
:1061100031E52498F530E52325E025E024E3F582F8
:10612000E4340CF583C083C082E0FCA3E0FDA3E06F
:10613000FEA3E02533FFEE3532FEED3531FDEC35C3
:1061400030FCD082D083127ED6E52325E025E024E2
:10615000E3F582E4340CF583E0FCA3E0FDA3E0FE6C
:10616000A3E0FF7BA07A8679017800C3127E3B50C2
:106170001C7FA07E867D017C00E52325E025E024B0
:10618000E3F582E4340CF583127ED68042E52325C4
:10619000E025E024E3F582E4340CF583E0FCA3E0A1
:1061A000FDA3E0FEA3E0FF7B607A7979FE78FFD360
:1061B000127E3B401A7F607E797DFE7CFFE52325C1
:1061C000E025E024E3F582E4340CF583127ED6303A
:1061D0000C05C20C12A4F1E4F52BF52AF529F528DB
:1061E000FFFEFDFC90001AE0F8A3E0F9A3E0FAA39B
:1061F000E0FBC3127E3B602FAF33AE32AD31AC302B
:1062000090001AE0F8A3E0A3E0A3E0127D03781069
:10621000127E75E52B2FF52BE52A3EF52AE5293D63
:10622000F529E5283CF528E4FFFEFDFC90001EE082
:10623000F8A3E0F9A3E0FAA3E0FBC3127E3B6041C0
:10624000E52325E025E024E3F582E4340CF583E042
:10625000FCA3E0FDA3E0FEA3E0FF90001EE0F8A396
:10626000E0A3E0A3E0127D037810127E75E52B2FEA
:10627000F52BE52A3EF52AE5293DF529E5283CF5EB
:1062800028E4FFFEFDFC900022E0F8A3E0F9A3E083
:10629000FAA3E0FBC3127E3B6055E52325E025E031
:1062A00024EBF582E4340CF583E0F8A3E0F9A3E0F5
:1062B000FAA3E0FBC3E5339BFFE5329AFEE5319993
:1062C000FDE53098FC900022E0F8A3E0F9A3E0FAA5
:1062D000A3E0FB127D037810127E75E52B2FF52BC2
:1062E000E52A3EF52AE5293DF529E5283CF528AFC4
:1062F00033AE32AD31AC30E52325E025E024EBF5BB
:1063000082E4340CF583127ED6300C05C20C12A444
:10631000F1E523701CFFFEFDFCAB2BAA2AA929A8DE
:1063200028C3127E3B4005D20E0266D5C20E02661D
:10633000D5E4FFFEFDFCAB2BAA2AA929A828C3128D
:106340007E3B4005D20F0266D5C20F0266D5900A89
:1063500096E070030266D5200D030266D5E523257D
:10636000E025E0248EF582E4340AF583E0FCA3E026
:10637000FDA3E0FEA3E0FF74CE2523F582E4340AFA
:10638000F583E0F9F8127E758F278E268D258C24F3
:10639000900A19E0FEA3E0FFEE3395E0FDFCAB2789
:1063A000AA26A925A824D3127E3B4016900A19E0FC
:1063B000FEA3E0FFEE3395E08F278E26F525F5242A
:1063C000803C900A19E0FEA3E0FFC3E49FFFE49E37
:1063D000FE3395E0FDFCAB27AA26A925A824C3120D
:1063E0007E3B501A900A19E0FEA3E0FFC3E49FFF32
:1063F000E49EFE3395E08F278E26F525F524E523D0
:1064000025E025E02426F582E4340CF583E0F8A3AA
:10641000E0F9A3E0FAA3E0FBC3E5279BF533E5260B
:106420009AF532E52599F531E52498F530E52325EF
:10643000E025E024E3F582E4340CF583C083C082D8
:10644000E0FCA3E0FDA3E0FEA3E02533FFEE353240
:10645000FEED3531FDEC3530FCD082D083127ED696
:10646000E52325E025E024E3F582E4340CF583E020
:10647000FCA3E0FDA3E0FEA3E0FF7BA07A86790108
:106480007800C3127E3B501C7FA07E867D017C007D
:10649000E52325E025E024E3F582E4340CF58312BE
:1064A0007ED68042E52325E025E024E3F582E4342E
:1064B0000CF583E0FCA3E0FDA3E0FEA3E0FF7B601E
:1064C0007A7979FE78FFD3127E3B401A7F607E791D
:1064D0007DFE7CFFE52325E025E024E3F582E4341E
:1064E0000CF583127ED6300C05C20C12A4F1E4F533
:1064F0002BF52AF529F528FFFEFDFC900002E0F8B7
:10650000A3E0F9A3E0FAA3E0FBC3127E3B602CAF4B
:1065100033AE32AD31AC30AB53AA52A951A85012B0
:106520007D037810127E75E52B2FF52BE52A3EF5BD
:106530002AE5293DF529E5283CF528E4FFFEFDFC88
:10654000900006E0F8A3E0F9A3E0FAA3E0FBC31291
:106550007E3B6046E52325E025E024E3F582E43434
:106560000CF583E0FCA3E0FDA3E0FEA3E0FF7806CA
:10657000127E75900006E0F8A3E0A3E0A3E0127D90
:1065800003780A127E75E52B2FF52BE52A3EF52AB6
:10659000E5293DF529E5283CF528E4FFFEFDFC90C2
:1065A000000AE0F8A3E0F9A3E0FAA3E0FBC3127E3F
:1065B0003B6055E52325E025E024EBF582E4340C2F
:1065C000F583E0F8A3E0F9A3E0FAA3E0FBC3E53329
:1065D0009BFFE5329AFEE53199FDE53098FC90008D
:1065E0000AE0F8A3E0F9A3E0FAA3E0FB127D037848
:1065F00010127E75E52B2FF52BE52A3EF52AE529AD
:106600003DF529E5283CF528300C05C20C12A4F113
:10661000AF33AE32AD31AC30E52325E025E024EBDD
:10662000F582E4340CF583127ED6E523701AFFFE62
:10663000FDFCAB2BAA2AA929A828C3127E3B400443
:10664000D20E801DC20E8019E4FFFEFDFCAB2BAA0A
:106650002AA929A828C3127E3B4004D20F8002C277
:106660000F300C71C20C12A4F1806AE52325E025DD
:10667000E0248EF582E4340AF583E0FCA3E0FDA378
:10668000E0FEA3E0FF74CE2523F582E4340AF5830F
:10669000E0F9F8127E758F2B8E2A8D298C28E52340
:1066A000701AFFFEFDFCAB2BAA2AA929A828C31249
:1066B0007E3B4004D20E801DC20E8019E4FFFEFD19
:1066C000FCAB2BAA2AA929A828C3127E3B4004D2DE
:1066D0000F8002C20F300C05C20C12A4F1E47F64DB
:1066E000FEFDFCAB2BAA2AA929A828D3127E3B4089
:1066F0000AE4752B64F52AF529F52874FF7F9CFEC2
:10670000FDFCAB2BAA2AA929A828C3127E3B500B5B
:1067100074FF752B9CF52AF529F528300C05C20C61
:1067200012A4F1900A1DE064016037AF2BAE2AADD0
:1067300029AC28780A127E89E47B64FAF9F812BD44
:1067400096A804A905AA06AB07900C52E0FFE4FC4A
:10675000FDFE127D03780A127E758F2B8E2A8D29FD
:106760008C28300E11300F077F0312C9E480167F8A
:106770000112C9E4800F300F077F0212C9E48005BF
:10678000E4FF12C9E4300C05C20C12A4F1E5237039
:1067900029FFFEFDFCAB2BAA2AA929A828C3127E3B
:1067A0003B40047F0180027FFF900C1CEFF0AE2A7B
:1067B000AF2B12C83E12C96C8028E4FFFEFDFCAB73
:1067C0002BAA2AA929A828C3127E3B40047F018056
:1067D000027FFF900C1DEFF0AE2AAF2B12C83E12C5
:1067E000C972300C05C20C12A4F122205945530085
:1067F00000204E4F00002055736200002048616E5B
:10680000646C65000020454D472070726F706F7298
:1068100074696F6E616C000020454D4720696E748D
:10682000656772616C000020454D47204643465322
:10683000000020454D472046434653204164766181
:106840006E6365640000204A6F79737469636B003E
:106850000020506F736974696F6E00002050574DAF
:1068600000002043757272656E74000020506F73D3
:106870006974696F6E20616E642043757272656E13
:10688000740000000D0A004669726D776172652020
:1068900076657273696F6E3A200054574F204D4FE2
:1068A000544F52532048414E442076362E312E30DC
:1068B000002E0D0A0D0A0044455649434520494E15
:1068C000464F0D0A0049443A2025640D0A005057EE
:1068D0004D2072657363616C696E672061637469D2
:1068E000766174696F6E3A20005945530A004E4F25
:1068F0000A0050574D204C696D69743A2025640D8B
:106900000A004D4F544F5220494E464F0D0A004D3C
:106910006F746F72207265666572656E6365733A37
:106920002000256420004D6F746F7220656E6162D7
:106930006C65643A20005945530D0A004E4F0D0A0C
:10694000000D0A4D4541535552454D454E54532077
:10695000494E464F0D0A0053656E736F7220766183
:106960006C75653A0D0A002564202D3E20256400D3
:10697000566F6C7461676520286D56293A20256C26
:10698000640043757272656E74203120286D412950
:106990003A20256C640043757272656E7420322053
:1069A000286D41293A20256C64004A6F7973746917
:1069B000636B206D6561737572656D656E74733A96
:1069C000202568642C20256864000D0A444556493A
:1069D000434520504152414D45544552530D0A0004
:1069E00050494420436F6E74726F6C6C65723A0D3F
:1069F0000A0050202D3E2025660D0A0049202D3E1C
:106A00002025660D0A0044202D3E2025660D0A0033
:106A100043757272656E742050494420436F6E74E2
:106A2000726F6C6C65723A0D0A0053746172747502
:106A3000702061637469766174696F6E3A2059459C
:106A4000530D0A0053746172747570206163746928
:106A5000766174696F6E3A204E4F0D0A00496E7070
:106A60007574206D6F64653A205553420D0A0049D4
:106A70006E707574206D6F64653A2048616E646C49
:106A8000650D0A00496E707574206D6F64653A205B
:106A9000454D472070726F706F7274696F6E616CD4
:106AA0000D0A00496E707574206D6F64653A20455B
:106AB0004D4720696E74656772616C0D0A00496EFE
:106AC000707574206D6F64653A20454D47204643CC
:106AD00046530D0A00496E707574206D6F64653AF7
:106AE00020454D472046434653204144560D0A0059
:106AF000496E707574206D6F64653A204A6F7973C2
:106B00007469636B0D0A00436F6E74726F6C204D75
:106B10006F64653A2000506F736974696F6E0D0A77
:106B20000050574D0D0A0043757272656E740D0A60
:106B300000506F736974696F6E20616E64206375B5
:106B40007272656E740D0A004162736F6C757465C4
:106B500020656E636F64657220706F736974696F0E
:106B60006E3A205945530D0A004162736F6C75747B
:106B70006520656E636F64657220706F73697469F8
:106B80006F6E3A204E4F0D0A004D6F746F722D4894
:106B9000616E646C6520526174696F3A2025640DE2
:106BA0000A0053656E736F72207265736F6C757433
:106BB000696F6E3A0D0A004D6561737572656D659A
:106BC0006E74204F66667365743A0D0A0025642062
:106BD0002D3E20256C64004D6561737572656D6591
:106BE0006E74204D756C7469706C6965723A0D0A2B
:106BF000002564202D3E20256600506F736974695E
:106C00006F6E206C696D6974206163746976653A92
:106C100020256400506F736974696F6E206C696D14
:106C20006974206D6F746F722025643A20696E66F6
:106C3000202D3E20256C64202000737570202D3E91
:106C400020256C640D0A004D6178207374657020F6
:106C5000706F7320616E64206E65673A2025642032
:106C600025640043757272656E74206C696D697479
:106C70003A20256400436C6F7375726520737065EC
:106C800065643A202564004A6F79737469636B20E8
:106C90005468726573686F6C643A202564004A6FAB
:106CA00079737469636B204761696E73202D205876
:106CB0003A2568752020593A25687500454D4720CA
:106CC0007468726573686F6C6473205B30202D206C
:106CD000313032345D3A2025752C20257500454D24
:106CE00047206D61782076616C756573205B30207C
:106CF0002D20343039365D3A20256C752C20256CDA
:106D0000750043616C6962726174696F6E20656EB3
:106D100061626C65643A205945530D0A0043616C09
:106D20006962726174696F6E20656E61626C656420
:106D30003A204E4F0D0A00454D47206D6178207373
:106D4000706565643A2025640064656275673A2061
:106D5000256C64000000000000000000000000003E
:106D60000000000000000000000000000000000023
:106D70000000000000000000000000000000000013
:106D80000000000000000000000000000000000003
:106D900000000000000000000000000000000000F3
:1073C0000000000000000031202D20446576696334
:1073D000652049443A0032202D20506F736974694A
:1073E0006F6E20504944205B502C20492C20445D76
:1073F0003A0033202D2043757272656E7420504917
:1074000044205B502C20492C20445D3A0034202D30
:10741000205374617274757020416374697661746D
:10742000696F6E3A000000000035202D20496E7013
:107430007574206D6F64653A000000000000000064
:10744000000000000000000000000036202D204356
:107450006F6E74726F6C206D6F64653A000000008F
:10746000000000000000000000000000000000001C
:10747000000037202D205265736F6C7574696F6E34
:10748000733A0038202D204D6561737572656D6506
:107490006E74204F6666736574733A0039202D2030
:1074A0004D756C7469706C696572733A0031302087
:1074B0002D20506F732E206C696D69742061637488
:1074C0006976653A00000000003131202D20506FB0
:1074D000732E206C696D697473205B696E662C2055
:1074E0007375705D3A003132202D204D6178207324
:1074F00074657073205B6E65672C20706F735D3AE6
:10750000003133202D2043757272656E74206C69D2
:107510006D69743A003134202D20454D4720636158
:107520006C6962726174696F6E206F6E2073746132
:10753000727475703A00000000003135202D20452E
:107540004D47207468726573686F6C64733A0031DC
:1075500036202D20454D47206D61782076616C7571
:1075600065733A003137202D20454D47206D6178F5
:107570002073706565643A003138202D20416273B4
:107580006F6C75746520656E636F64657220706FD3
:10759000736974696F6E3A00000000003139202D64
:1075A000204D6F746F722068616E646C652072612B
:1075B00074696F3A003230202D2050574D2072658B
:1075C0007363616C696E673A00000000003231201D
:1075D0002D2043757272656E74206C6F6F6B7570C1
:1075E0003A003232202D20436C6F73757265207320
:1075F000706565643A003233202D204A6F797374C8
:1076000069636B207468726573686F6C64733A00A9
:107610003234202D204A6F79737469636B2067615F
:10762000696E733A0030202D3E205573620A312076
:107630002D3E2048616E646C650A32202D3E204547
:107640004D472070726F702E0A33202D3E20454D1D
:107650004720496E7465672E0A34202D3E20454D23
:107660004720464346530A35202D3E20454D4720AE
:1076700046434653204164762E0A36202D3E204A4A
:107680006F79737469636B0A0030202D3E20506F50
:10769000736974696F6E0A31202D3E2050574D0A70
:1076A00032202D3E2043757272656E740A33202D90
:1076B0003E20506F736974696F6E2D4375727265E9
:1076C0006E740A0030202D3E204465616374697633
:1076D000617465205B4E4F5D0A31202D3E20416371
:1076E000746976617465205B5945535D0A00EC4D01
:1076F0006011E8497017ED33EC3304600DE4FCFFD2
:10770000FEFD22E933E8330470F80279B71279827A
:1077100058046009E4CC248150062850090279C13C
:107720002840030279BEC0E0EB4A7044B98006D01D
:10773000E0FB0279ADEF4E701CBD8008EBFFEAFE66
:10774000E9FD80EBE98DF0A4FEE5F00277D7E9CD05
:10775000F9EAFEEBFFEF89F0A4FCE5F0CE89F0A496
:107760002EFFE435F0CD89F0A42DFEE435F08067DE
:10777000EF4E7005BD80D780C3EF8BF0A4ACF0EE68
:107780008BF0A42CFCE435F0F8EF8AF0A42CE5F0A3
:1077900038FCE433CB8DF0A42CFCE5F03BF8EE8A0A
:1077A000F0A42CFCE5F038F8E433CF89F0A42CFCED
:1077B000E5F038CF3400CE89F0A42FFFE5F03EFE8F
:1077C000E433C98DF0A42EFEE5F039CD8AF0A42F64
:1077D000FFE5F03EFEE43DFD33D0E0FB50070BBB80
:1077E000000F0279C1EC2CFCEF33FFEE33FEED33DA
:1077F000FD0279990279C1EC5D046005E8590470D5
:10780000030279B7127982580460F6EC4860F2EC12
:107810007004FDFEFF22C860DB2481C85009C398B4
:10782000600250060279BE9850CAF582E9294B4A97
:107830007005AB820279AD75F0007C1A7880C3EFD9
:107840009BEE9AED99400DC3EF9BFFEE9AFEED99EA
:10785000FDE842F0DC23ACF0D0E0FFD0E0FED0E069
:10786000FDAB8220E7101BEB60BAEC2CFCEF33FF82
:10787000EE33FEED33FD027999E803F830E705C0F9
:10788000F075F000EF2FFFEE33FEED33FD40B83022
:10789000E7C280AA74F8CC6480CCC86480C8F58242
:1078A00004604FC3EB9FF5F0EA9E42F0E99D42F081
:1078B000E89C45F0603C501DE5825FFFE582D313F4
:1078C000CB5BCBF42B5582FB50280ABA002409B9B4
:1078D000002008801DE5825BFBE582D313CF5FCFDC
:1078E000F4C3132F5582FF50090EBE00050DBD00D5
:1078F000010CC3EB9FF5F0EA9E42F0E99D42F0E8EF
:107900009C45F06007CC4820E701B3EC2275F020DD
:10791000800E75F010800575F0087D007E007F00F8
:107920003392D530D503127E2DEC334010EF33FF68
:10793000EE33FEED33FDEC33FCD5F0ED22E5F02423
:107940007EA2D513CC92E7CDCEFF22EDD2E7CD3388
:10795000EC3392D524814006E4FFFEFDFC22FCE4DA
:10796000CFCECDCC24E0501174FF80EDC3CC13CC2E
:10797000CD13CDCE13CECF13CF0470F030D5DE02B1
:107980007E2DE9D2E7C933E833F892D5EDD2E7CDC1
:1079900033EC33FC5002B2D522EC30E7100FBF00BD
:1079A0000C0EBE00080DBD00040BEB6014A2D5EB5D
:1079B00013FCED92E7FD2274FFFCFDFEFF22E48044
:1079C000F8A2D574FF13FC7D80E480EFF920E73640
:1079D00024F950037907E4F42402FBE58215827050
:1079E000021583DBF6E024FB501BE96014E4F0E5AC
:1079F00082158270021583E004F0B40A08E4F0D91D
:107A0000EE7401F00A22C2D522ED33EC3392D5FA9E
:107A1000602AB4FF33EDC2E77BFF60067A7A792EE5
:107A2000E4227A7A793720D5047A7A7932224E6143
:107A30004E002B494E46002D494E4600E47A08F090
:107A4000A3DAFC7B00740722C083C082ECC0E0EDA7
:107A5000C0E0EEC0E0EFC0E0EA75F010A4CAABF001
:107A600075F04DA42BFBE435F0FCEA2410FAEB345E
:107A7000C5FBEC34D9FCEDC2E7FF75F056A4F42445
:107A800011C5F0F434C58FF0A42AE5F03BE43CF0D6
:107A900020E714127C36D0E0FFD0E0FED0E0FDD02D
:107AA000E0FC1277F78014F404127C36D0E0FFD0AB
:107AB000E0FED0E0FDD0E0FC1276EED082D083E094
:107AC000FAEDD2E7CD33EC332482FBE4C3CF33CFDE
:107AD000CE33CECD33CD33DBF37B0775F00A846034
:107AE00004F0A31B0AE5F0F0A38FF0740AA4FFAC26
:107AF000F08EF0740AA42CFEACF050010C8DF074E2
:107B00000AA42CFDE435F0F0A3DBDE740722027931
:107B1000B7E86480F8E933E83360110460F0ED33CE
:107B2000EC337009E8FCE9FDEAFEEBFF220460DEBD
:107B3000D3EB9FEA9EE99DE8C2E78CF0C2F795F08F
:107B4000400CE8CCF8E9CDF9EACEFAEBCFFB12799C
:107B50008285D0F05804700320D5B3E80470075034
:107B600002B2D50279C192D5EC0460F7E4CCC0E052
:107B7000C398F8603B94186008400DD0E0FB027990
:107B800099E4FBFAC9FC8028E830E406E4C9FBE488
:107B9000CAFCE830E305E4C9CACBFCE8540760102E
:107BA000F8C3E913F9EA13FAEB13FBEC13FCD8F171
:107BB00030F52FC3E49CFCEF9BFFEE9AFEED99FDA0
:107BC000D0E0FBEF4E4D4C701222DB030279BEEC8D
:107BD0002CFCEF33FFEE33FEED33FDED30E7EB022F
:107BE0007999EF2BFFEE3AFEED39FDD0E0FB501313
:107BF0000BBB00030279C1ED13FDEE13FEEF13FF83
:107C0000EC13FC0279993F8000004120000042C83B
:107C10000000447A0000461C400047C350004974ED
:107C200024004B1896804CBEBC205A0E1BCA6753CA
:107C3000C21C749DC5AEFB60065407601C23231252
:107C40007C64EB54386009127C50127C5F1276EE33
:107C5000ECF8EDF9EEFAEFCB22EB127C5F80F154F9
:107C60003803241C907C06FE93FC0EEE93FD0EEE72
:107C7000930ECE93FF22BB010689828A83E02250B5
:107C800002E722BBFE02E32289828A83E49322BBBD
:107C9000010CE58229F582E5833AF583E02250065E
:107CA000E92582F8E622BBFE06E92582F8E222E514
:107CB0008229F582E5833AF583E49322BB010689A4
:107CC000828A83F0225002F722BBFE01F322C5F024
:107CD000F8A3E028F0C5F0F8E5821582700215835C
:107CE000E038F022BB010A89828A83F0E5F0A3F034
:107CF000225006F709A7F01922BBFE06F3E5F009AA
:107D0000F31922E88FF0A4CC8BF0A42CFCE98EF0C0
:107D1000A42CFC8AF0EDA42CFCEA8EF0A4CDA8F0F3
:107D20008BF0A42DCC3825F0FDE98FF0A42CCD35B7
:107D3000F0FCEB8EF0A4FEA9F0EB8FF0A4CFC5F021
:107D40002ECD39FEE43CFCEAA42DCE35F0FDE43C1A
:107D5000FC2275F008758200EF2FFFEE33FECD3365
:107D6000CDCC33CCC58233C5829BED9AEC99E582AC
:107D700098400CF582EE9BFEED9AFDEC99FC0FD538
:107D8000F0D6E4CEFBE4CDFAE4CCF9A88222B80028
:107D9000C1B90059BA002DEC8BF084CFCECDFCE5F3
:107DA000F0CBF97818EF2FFFEE33FEED33FDEC3317
:107DB000FCEB33FB10D703994004EB99FB0FD8E59C
:107DC000E4F9FA227818EF2FFFEE33FEED33FDECE5
:107DD00033FCC933C910D7059BE99A4007EC9BFCDB
:107DE000E99AF90FD8E0E4C9FAE4CCFB2275F01067
:107DF000EF2FFFEE33FEED33FDCC33CCC833C8108C
:107E0000D7079BEC9AE899400AED9BFDEC9AFCE8B9
:107E100099F80FD5F0DAE4CDFBE4CCFAE4C8F92206
:107E2000CFF4CFCEF4CECDF4CDCCF4CC22C3E49FAE
:107E3000FFE49EFEE49DFDE49CFC22EB9FF5F0EA4E
:107E40009E42F0E99D42F0EC6480C864809845F061
:107E500022EB9FF5F0EA9E42F0E99D42F0E89C4556
:107E6000F022E8600FECC313FCED13FDEE13FEEF00
:107E700013FFD8F122E86010ECA2E713FCED13FD2C
:107E8000EE13FEEF13FFD8F022E8600FEFC333FFCD
:107E9000EE33FEED33FDEC33FCD8F122BB01078954
:107EA000828A830281525005E9F8028146BBFE05B1
:107EB000E9F802815E89828A8302816ABB010789AF
:107EC000828A83027ED65005E9F802817ABBFE05DC
:107ED000E9F802818622ECF0A3EDF0A3EEF0A3EF27
:107EE000F022F8E0FBA3A3E0F925F0F0E58215828B
:107EF00070021583E0FA38F022EBF0A3EAF0A3E970
:107F0000F022D083D082F8E4937012740193700D44
:107F1000A3A393F8740193F5828883E473740293A6
:107F20006860EFA3A3A380DFE5142582F582E51343
:107F30003583F583B513048582142210AF0685823C
:107F400014F51322858214F513D2AF22EC8EF0A41F
:107F5000CCC5F0CCCDF8EFA4CEC5F02DFDE43CFCB3
:107F6000E8A42EC8C5F03DFDE43CFCEFA4FFE5F01D
:107F700028FEE43DFDE43CFC22E709F608DFFA8038
:107F800046E709F208DFFA803E88828C83E709F031
:107F9000A3DFFA8032E309F608DFFA806EE309F224
:107FA00008DFFA806688828C83E309F0A3DFFA8019
:107FB0005A89828A83E0A3F608DFFA804E89828A92
:107FC00083E0A3F208DFFA804280D280FA80C68084
:107FD000D4805580F28029801080A680EA809A8023
:107FE000A880DA80E280CA802988848C8589828A88
:107FF00083E493A30586F0A30586DFF5DEF3800B0B
:1080000089828A83E493A3F608DFF9ECFAA9F0EDFC
:10801000FB2288848C8589828A83E0A30586F0A36D
:108020000586DFF6DEF480E389828A83E493A3F297
:1080300008DFF980D688F0EF60010E4E60CD88F041
:10804000ED2402B4040050C3F582EB2402B4040012
:1080500050B92323458223907FC973E709F608703E
:10806000FA8046E709F20870FA803E88828C83E73E
:1080700009F0A370FA8074E309F60870FA806CE3E3
:1080800009F20870FA806488828C83E309F0A37097
:10809000FA805889828A83E0A3F60870FA804C89B6
:1080A000828A83E0A3F20870FA804080D280FA804E
:1080B000C680D4805180F28027801080A680EA801C
:1080C0009A80A880DA80E280CA802788848C85899B
:1080D000828A83E493A30586F0A3058670F5800B5E
:1080E00089828A83E493A3F60870F9ECFAA9F0ED8B
:1080F000FB2288848C8589828A83E0A30586F0A38D
:10810000058670F680E589828A83E493A3F208707D
:10811000F980D888F0ED2402B4040050CEF582EB4B
:108120002402B4040050C423234582239080AB73FF
:10813000A3F8E0C5F025F0F0E58215827002158302
:10814000E0C838F0E822E6FC08E6FD08E6FE08E6AE
:10815000FF22E0FCA3E0FDA3E0FEA3E0FF22E2FC9F
:1081600008E2FD08E2FE08E2FF22E493FC740193BA
:10817000FD740293FE740393FF22ECF608EDF608FB
:10818000EEF608EFF622ECF208EDF208EEF208EF58
:10819000F22212C9EAEF700A300CF7C20C12A4F1F5
:1081A00080F0900C17E0249AFF900C16E034F9FE52
:1081B0003395E0FDFCE47BA07A07F9F8127D0378A3
:1081C00007127E75900B77127ED6300C05C20C120A
:1081D000A4F1E4FFFEFDFC900B77E0F8A3E0F9A327
:1081E000E0FAA3E0FBD3127E3B500302898312C95D
:1081F00030300C05C20C12A4F1900C19E0249AFF47
:10820000900C18E034F9FE3395E0FDFCE47BAB7A8A
:1082100064F9F8127D03780D127E75A804A905AAE9
:1082200006AB07900C1CE0FF3395E0FEFDFC127DD1
:108230000312B629900C26127ED6300C05C20C1201
:10824000A4F1900C1BE0249AFF900C1AE034F9FE84
:108250003395E0FDFCE47BAB7A64F9F8127D03789A
:108260000D127E75A804A905AA06AB07900C1DE0A7
:10827000FF3395E0FEFDFC127D0312B69E900C2AA2
:10828000127ED6300C05C20C12A4F1900B11E070D6
:1082900004F50EF50FE50E1470030283311470031C
:1082A000028348147003028380240360030284174E
:1082B000900C1CE0FEA3E0FFEE3395E0FDFC12B352
:1082C000398E238F24E5247F0025E025E0FE3395B9
:1082D000E0FDFC900B12E0F8A3E0F9A3E0FAA3E0C4
:1082E000FB127D8E8E238F24300C05C20C12A4F15C
:1082F000C3E523648094805007E4F523F5248013BC
:10830000D3E5249400E52364809484400675230417
:10831000752400AE23AF24EE3395E0FDFC900C46AF
:10832000127ED6200C03028417C20C12A4F1028420
:1083300017E4900CFCF0A3F0FFFEFDFC900B121272
:108340007ED6750E02028417900CFDE004F07006D4
:10835000900CFCE004F0900CFCE064017004A3E0DD
:1083600064F46003028417900CFCF0A3F07F011208
:10837000CA08300C05C20C12A4F1750E0302841752
:10838000900CFDE004F07006900CFCE004F0900B03
:1083900012E0F8A3E0F9A3E0FAA3E0FBC000C001FB
:1083A000C002C003900C1CE0FEA3E0FFEE3395E09A
:1083B000FDFC12B339D003D002D001D000EB2FFF67
:1083C000EA3EFEE93DFDE83CFC900B12127ED63001
:1083D0000C05C20C12A4F1900CFCE0B40339A3E02C
:1083E000B4E834900B12E0FCA3E0FDA3E0FEA3E0B0
:1083F000FFE47BE87A03F9F8127D8E900B12127E6F
:10840000D6300C05C20C12A4F1E4FF12CA08E490A5
:108410000CFCF0A3F0F50E300C05C20C12A4F1E533
:108420000F1470030284B61470030284D514700311
:1084300002850D1470030285FD2404600302860486
:10844000900C1EE0FEA3E0FFEE3395E0FDFC12B3BE
:10845000BC8E238F24E5247F0025E025E0FE3395A4
:10846000E0FDFC900B16E0F8A3E0F9A3E0FAA3E02E
:10847000FB127D8E8E238F24300C05C20C12A4F1CA
:10848000C3E523648094805007E4F523F52480132A
:10849000D3E5249400E52364809484400675230486
:1084A000752400AE23AF24EE3395E0FDFC900C4A1A
:1084B000127ED6028604E4900CFEF0A3F0FFFEFDCF
:1084C000FC900B16127ED6300C05C20C12A4F1756E
:1084D0000F04028604900CFFE004F07006900CFE7E
:1084E000E004F0900CFEE064017004A3E064F4602A
:1084F00003028604900CFEF0A3F07F0112CA08303C
:108500000C05C20C12A4F1750F03028604900CFF37
:10851000E004F07006900CFEE004F0900B16E0F81A
:10852000A3E0F9A3E0FAA3E0FBC000C001C002C0D1
:1085300003900C1EE0FEA3E0FFEE3395E0FDFC127D
:10854000B3BCD003D002D001D000EB2FFFEA3EFE37
:10855000E93DFDE83CFC900B16127ED6300C05C2BE
:108560000C12A4F1900CFEE064037004A3E064E834
:108570006003028604900B16E0FCA3E0FDA3E0FE7E
:10858000A3E0FFE47BE87A03F9F8127D8E900B16E6
:10859000127ED6E4FF12CA08E4900CFEF0A3F0307D
:1085A0000C05C20C12A4F1900A1CE0FF6402600EDC
:1085B000EF64036009EF64046004EFB4053A900AC5
:1085C0001DE07028900C2EE0FCA3E0FDA3E0FEA3CC
:1085D000E0FF900A8E127ED6900C32E0FCA3E0FD04
:1085E000A3E0FEA3E0FF900A92127ED6900A1BE061
:1085F000FF900A96F012C9BAE4F50F8007E50E70F5
:1086000003750F02300C05C20C12A4F1E5101470B2
:10861000030286F314700302870A14700302873B77
:108620001470030287BB240460030287C6900C20E9
:10863000E0F523A3E0F524AE23EE3395E0FDFC90B6
:108640000D04E0F8A3E0F9A3E0FAA3E0FBC3E524FE
:108650009BFFEE9AFEED99FDEC98FC12790DC0049B
:10866000C005C006C007900D04E0FCA3E0FDA3E038
:10867000FEA3E0FFEC12790DA804A905AA06AB073A
:10868000D007D006D005D0041277F7C004C005C0CB
:1086900006C007900B3CE0FCA3E0FDE4127912D089
:1086A00003D002D001D0001276EE12794B8E238FC8
:1086B00024300C05C20C12A4F1C3E5236480947C21
:1086C00050067523FC752400D3E5249400E523644B
:1086D0008094844006752304752400900C50E52393
:1086E000F0A3E524F0200C030287C6C20C12A4F10B
:1086F0000287C6E4900D00F0A3F0FFFEFDFC900D94
