:10260000027500008F828E83E0540100000070F894
:102610002278FFE4F6D8FD02758E900452124AE447
:102620007BFF7A58795AC003C002C001900452124D
:102630004AC4A801AC02AD03D001D002D003124DB0
:102640002B900452124AC4C003C002C0017BFF7A1F
:1026500058795B90048A124AE4D001D002D0031268
:1026600087A8900452124AC4C003C002C0017BFF75
:102670007A58795E90048A124AE4D001D002D003DD
:102680001287A8900452124AC4C003C002C0017B42
:10269000FF7A58797190048A124AE4D001D002D0AE
:1026A000031287A8900452124AC4C003C002C0019A
:1026B0007BFF7A58797E90048A124AE4D001D002D6
:1026C000D0031287A8900452124AC4C003C002C0AB
:1026D000017BFF7A58798490048A124AE4D001D0B1
:1026E00002D0031287A87B017A047955C003C00287
:1026F000C0017BFF7A58799290048A124AE49004D0
:10270000BCE0FF7E0090048DEEF0A3EFF0D001D08E
:1027100002D003124E03900452124AC4C003C002F6
:10272000C0017B017A04795590048A124AE4D001F1
:10273000D002D0031287A87B017A047955C003C068
:1027400002C0017BFF7A58799B90048A124AE49078
:10275000048DE4F0A37403F0D001D002D003124E34
:1027600003900452124AC4C003C002C0017B017A24
:1027700004795590048A124AE4D001D002D00312A1
:1027800087A87B017A047955C003C002C0017BFF92
:102790007A5879B390048A124AE490063EE0FF7EAC
:1027A0000090048DEEF0A3EFF0D001D002D0031220
:1027B0004E03900452124AC4C003C002C0017B0100
:1027C0007A04795590048A124AE4D001D002D003E9
:1027D0001287A8900452124AC4C003C002C0017BF1
:1027E000FF7A58795B90048A124AE4D001D002D073
:1027F000031287A8900452124AC4C003C002C00149
:102800007BFF7A5879C390048A124AE4D001D0023F
:10281000D0031287A8900452124AC4C003C002C059
:10282000017BFF7A5879D090048A124AE4D001D013
:1028300002D0031287A8754F00755000C3E550946D
:1028400002E54F6480948040030228D17B017A0422
:102850007955C003C002C0017BFF7A5879E3900428
:102860008A124AE4E550AE4F7802C333CE33CED855
:10287000F9FF74842FF58274053EF583124A72AA1B
:102880004FAB5074DA2BF58274043AF583E0F9A863
:1028900001124A1190048DEEF0A3EFF0D001D002A6
:1028A000D003124E03900452124AC4C003C002C0A7
:1028B000017B017A04795590048A124AE4D001D050
:1028C00002D0031287A80550E5507002054F022878
:1028D0003C900452124AC4C003C002C0017BFF7A7C
:1028E00058795B90048A124AE4D001D002D00312D6
:1028F00087A87B017A047955C003C002C0017BFF21
:102900007A5879E790048A124AE4D001D002D003C1
:10291000124E0390058CE0FFEF5403FFEF60237B22
:10292000017A047955C003C002C0017BFF7A58794F
:10293000F790048A124AE4D001D002D0031287A88B
:1029400080217B017A047955C003C002C0017BFF5E
:102950007A5879FD90048A124AE4D001D002D0035B
:102960001287A8900452124AC4C003C002C0017B5F
:10297000017A04795590048A124AE4D001D002D039
:10298000031287A8900452124AC4C003C002C001B7
:102990007BFF7A59790290048A124AE4D001D0026E
:1029A000D0031287A8900452124AC4C003C002C0C8
:1029B000017BFF7A59791890048A124AE4D001D039
:1029C00002D0031287A8754F00755000C3E55094DC
:1029D00003E54F648094804003022A947B017A04CB
:1029E0007955C003C002C0017BFF7A597928900451
:1029F0008A124AE4E5502401FFE54F3400FE9004BA
:102A00008DEEF0A3EFF0E550AE4F7802C333CE3336
:102A1000CED8F9FF74632FF58274053EF583124A10
:102A200072AA4FAB5074DA2BF58274043AF583E046
:102A3000F9A801124A1190048FEEF0A3EFF0D00133
:102A4000D002D003124E03900452124AC4C003C0F5
:102A500002C0017B017A04795590048A124AE4D0BD
:102A600001D002D0031287A8900452124AC4C003B6
:102A7000C002C0017BFF7A58795B90048A124AE455
:102A8000D001D002D0031287A80550E5507002058E
:102A90004F0229CC7B017A047955C003C002C001E2
:102AA0007BFF7A59793190048A124AE490058012AA
:102AB0004A7290048D124A8AD001D002D003124E7D
:102AC00003900452124AC4C003C002C0017B017AC1
:102AD00004795590048A124AE4D001D002D003123E
:102AE00087A8900452124AC4C003C002C0017BFFF1
:102AF0007A58795B90048A124AE4D001D002D0035C
:102B00001287A87B017A047955C003C002C0017BFB
:102B1000FF7A59794390048A124AE490056FE0FEE7
:102B2000A3E0FFEE3395E0FDFC90048D124A8AD0BD
:102B300001D002D003124E03900452124AC4C003C3
:102B4000C002C0017B017A04795590048A124AE4DC
:102B5000D001D002D0031287A8900452124AC4C0F8
:102B600003C002C0017BFF7A58795B90048A124A45
:102B7000E4D001D002D0031287A87B017A047955F2
:102B8000C003C002C0017BFF7A59795790048A12B2
:102B90004AE4900571E0FEA3E0FFEE3395E0FDFC12
:102BA00090048D124A8AD001D002D003124E0390B5
:102BB0000452124AC4C003C002C0017B017A0479E6
:102BC0005590048A124AE4D001D002D0031287A89B
:102BD000900452124AC4C003C002C0017BFF7A585D
:102BE000795B90048A124AE4D001D002D0031287A4
:102BF000A8900452124AC4C003C002C0017BFF7AED
:102C000059796B90048A124AE4D001D002D00312A1
:102C100087A8900452124AC4C003C002C0017BFFBF
:102C20007A59798190048A124AE4D001D002D00303
:102C30001287A87B017A047955C003C002C0017BCA
:102C4000FF7A59799390048A124AE49004BD124A9B
:102C500072EC1244747B007A007980784712435EEC
:102C600090048D124A8AD001D002D003124E0390F4
:102C70000452124AC4C003C002C0017B017A047925
:102C80005590048A124AE4D001D002D0031287A8DA
:102C90007B017A047955C003C002C0017BFF7A59D9
:102CA000799D90048A124AE49004C1124A72EC128F
:102CB00044747B007A007980784712435E90048DDB
:102CC000124A8AD001D002D003124E03900452124D
:102CD0004AC4C003C002C0017B017A047955900444
:102CE0008A124AE4D001D002D0031287A87B017A6D
:102CF000047955C003C002C0017BFF7A5979A790BF
:102D0000048A124AE49004C5124A72EC1244747B9D
:102D1000007A007980784712435E90048D124A8AC7
:102D2000D001D002D003124E03900452124AC4C004
:102D300003C002C0017B017A04795590048A124ACB
:102D4000E4D001D002D0031287A8900452124AC4E2
:102D5000C003C002C0017BFF7A5979B190048A1286
:102D60004AE4D001D002D0031287A87B017A04790B
:102D700055C003C002C0017BFF7A59799390048A41
:102D8000124AE49004C9124A72EC1244747B007A2D
:102D9000007980784712435E90048D124A8AD001F0
:102DA000D002D003124E03900452124AC4C003C092
:102DB00002C0017B017A04795590048A124AE4D05A
:102DC00001D002D0031287A87B017A047955C00391
:102DD000C002C0017BFF7A59799D90048A124AE4AF
:102DE0009004CD124A72EC1244747B007A00798010
:102DF000784712435E90048D124A8AD001D002D0E7
:102E000003124E03900452124AC4C003C002C00110
:102E10007B017A04795590048A124AE4D001D002E9
:102E2000D0031287A87B017A047955C003C002C081
:102E3000017BFF7A5979A790048A124AE49004D161
:102E4000124A72EC1244747B007A0079807847123F
:102E5000435E90048D124A8AD001D002D003124EF4
:102E600003900452124AC4C003C002C0017B017A1D
:102E700004795590048A124AE4D001D002D003129A
:102E800087A8900452124AC4C003C002C0017BFF4D
:102E90007A58795B90048A124AE4D001D002D003B8
:102EA0001287A89004D7E0FFEFB4032390045212D6
:102EB0004AC4C003C002C0017BFF7A5979CB900499
:102EC0008A124AE4D001D002D0031287A880219050
:102ED0000452124AC4C003C002C0017BFF7A597970
:102EE000E590048A124AE4D001D002D0031287A8E8
:102EF0009004D8E0FFEF124AED2F03002F260100C7
:102F0000002F47900452124AC4C003C002C0017B84
:102F1000FF7A5979FE90048A124AE4D001D002D097
:102F2000031287A88021900452124AC4C003C00231
:102F3000C0017BFF7A5A791090048A124AE4D001CA
:102F4000D002D0031287A8900452124AC4C003C012
:102F500002C0017BFF7A5A792790048A124AE4D092
:102F600001D002D0031287A89004D9E0FFEF124AE3
:102F7000ED2F81002FA4012FC7022FEA030000309C
:102F80000B900452124AC4C003C002C0017BFF7AF6
:102F90005A793690048A124AE4D001D002D0031242
:102FA00087A88067900452124AC4C003C002C001BF
:102FB0007BFF7A5A794190048A124AE4D001D00208
:102FC000D0031287A88044900452124AC4C003C0A0
:102FD00002C0017BFF7A5A794790048A124AE4D0F2
:102FE00001D002D0031287A88021900452124AC453
:102FF000C003C002C0017BFF7A5A795190048A1243
:103000004AE4D001D002D0031287A8900452124A99
:10301000C4C003C002C0017BFF7A5A796890048A59
:10302000124AE4D001D002D0031287A8754F007570
:103030005000C3E5509403E54F6480948040030240
:1030400030DC7B017A047955C003C002C0017BFFEC
:103050007A59792890048A124AE4E5502401FFE560
:103060004F3400FE90048DEEF0A3EFF0AE4FAF5062
:1030700074DA2FF58274043EF583E0FF7E0090043D
:103080008FEEF0A3EFF0D001D002D003124E0390E8
:103090000452124AC4C003C002C0017B017A047901
:1030A0005590048A124AE4D001D002D0031287A8B6
:1030B000900452124AC4C003C002C0017BFF7A5878
:1030C000795B90048A124AE4D001D002D0031287BF
:1030D000A80550E5507002054F023032900452129C
:1030E0004AC4C003C002C0017BFF7A5A797D9004B4
:1030F0008A124AE4D001D002D0031287A8754F008B
:10310000755000C3E5509403E54F648094804003FC
:103110000231C97B017A047955C003C002C0017B2A
:10312000FF7A5A799390048A124AE4E5502401FF09
:10313000E54F3400FE90048DEEF0A3EFF0E550AEC5
:103140004F7802C333CE33CED8F9FF74DD2FF5822A
:1031500074043EF583124A72AA4FAB5074DA2BF511
:103160008274043AF583E0F9A801124A1190048FA1
:10317000124A8AD001D002D003124E039004521298
:103180004AC4C003C002C0017B017A04795590048F
:103190008A124AE4D001D002D0031287A8900452C8
:1031A000124AC4C003C002C0017BFF7A58795B9009
:1031B000048A124AE4D001D002D0031287A8055035
:1031C000E5507002054F023103900452124AC4C008
:1031D00003C002C0017BFF7A5A799D90048A124A8B
:1031E000E4D001D002D0031287A8754F00755000BB
:1031F000C3E5509403E54F6480948040030232A1FC
:103200007B017A047955C003C002C0017BFF7A5A62
:1032100079B790048A124AE4E5502401FFE54F345F
:1032200000FE90048DEEF0A3EFF0E550AE4F780273
:10323000C333CE33CED8F9FF74E92FF58274043E40
:10324000F583124A7290048F124A8AD001D002D0BC
:1032500003124E03900452124AC4C003C002C001BC
:103260007B017A04795590048A124AE4D001D00295
:10327000D0031287A8900452124AC4C003C002C0EF
:10328000017BFF7A58795B90048A124AE4D001D01E
:1032900002D0031287A80550E5507002054F023195
:1032A000F07B017A047955C003C002C0017BFF7A2C
:1032B0005A79C090048A124AE490054DE0FF7E00DE
:1032C00090048DEEF0A3EFF0D001D002D003124EA7
:1032D00003900452124AC4C003C002C0017B017AA9
:1032E00004795590048A124AE4D001D002D0031226
:1032F00087A8900452124AC4C003C002C0017BFFD9
:103300007A58795B90048A124AE4D001D002D00343
:103310001287A8754F00755000C3E5509402E54F21
:103320006480948040030234367B017A047955C06E
:1033300003C002C0017BFF7A5A79DA90048A124AEC
:10334000E4E5502401FFE54F3400FE90048DEEF0DB
:10335000A3EFF0E550AE4F7802C333CE33CED8F9A9
:10336000FF744E2FF58274053EF583124A72AA4F00
:10337000AB5074322BF58274053AF583E0F9A8015D
:10338000124A1190048F124A8AD001D002D003123F
:103390004E03900452124AC4C003C002C0017B0114
:1033A0007A04795590048A124AE4D001D002D003FD
:1033B0001287A87B017A047955C003C002C0017B43
:1033C000FF7A5B790090048A124AE4E550AE4F78A8
:1033D00002C333CE33CED8F9FF74562FF58274056D
:1033E0003EF583124A72AA4FAB5074322BF58274A9
:1033F000053AF583E0F9A801124A1190048D124AAA
:103400008AD001D002D003124E03900452124AC453
:10341000C003C002C0017B017A04795590048A126E
:103420004AE4D001D002D0031287A80550E55070BD
:1034300002054F0233197B017A047955C003C0029B
:10344000C0017BFF7A5B790D90048A124AE49005F3
:103450005EE0FEA3E0FF900532E0FDEFA8050880E6
:1034600006CEA2E713CE13D8F8FF90048DEEF0A39A
:10347000EFF0D001D002D003124E03900452124A52
:10348000C4C003C002C0017B017A04795590048A4C
:10349000124AE4D001D002D0031287A8900452123D
:1034A0004AC4C003C002C0017BFF7A58795B900414
:1034B0008A124AE4D001D002D0031287A87B017A95
:1034C000047955C003C002C0017BFF7A5B791F906D
:1034D000048A124AE490052DE0FEA3E0FF90048DDB
:1034E000EEF0A3EFF0D001D002D003124E0390040F
:1034F00052124AC4C003C002C0017B017A0479554C
:1035000090048A124AE4D001D002D0031287A89016
:103510000452124AC4C003C002C0017BFF7A58792A
:103520005B90048A124AE4D001D002D0031287A82B
:103530007B017A047955C003C002C0017BFF7A5B2E
:10354000793190048A124AE490057C124A7E9006F2
:103550001B124A7212487790048D124A8AD001D009
:1035600002D003124E03900452124AC4C003C00298
:10357000C0017B017A04795590048A124AE4D00193
:10358000D002D0031287A8900452124AC4C003C0CC
:1035900002C0017BFF7A58795B90048A124AE4D01A
:1035A00001D002D0031287A822900003EFF0900010
:1035B00003E0FF8F237F007E007D007C008F2B8E39
:1035C0002A8D298C289004BD124A728F378E368D31
:1035D000358C349004C1124A728F3B8E3A8D398CEF
:1035E000389004C5124A728F3F8E3E8D3D8C3C90C0
:1035F00004C9124A728F438E428D418C409004CD93
:10360000124A728F478E468D458C449004D1124ADF
:10361000728F4B8E4A8D498C48E523C39402400338
:103620000242549004D9E0FFEF124AED363C0040CC
:10363000F8013E0C0238CF0300004168AF23EF25AC
:10364000E025E02425F582E43406F583124A7EAFB6
:1036500023EF25E025E0240AF582E43405F5831202
:103660004A721248778F2F8E2E8D2D8C2C300C05A0
:10367000C20C126ED1AF23EF25E025E024C9F582FC
:10368000E43406F583C083C082124A72EF252FFF0F
:10369000EE352EFEED352DFDEC352CFCD082D083A1
:1036A000124A8AAF23EF25E025E024C9F582E434ED
:1036B00006F583124A727BA07A8679017800C312DC
:1036C00049D7501D7FA07E867D017C00AB23EB2572
:1036D000E025E024C9F582E43406F583124A8A80A5
:1036E0003CAF23EF25E025E024C9F582E43406F55C
:1036F00083124A727B607A7979FE78FFD31249D7B8
:10370000401B7F607E797DFE7CFFAB23EB25E025AF
:10371000E024C9F582E43406F583124A8A300C05A8
:10372000C20C126ED17F007E007D007C008F2B8E3C
:103730002A8D298C287F007E007D007C00AB37AA73
:1037400036A935A834C31249D760737F007E007D47
:10375000027C00AB2FAA2EA92DA82CD31249D7503A
:10376000167F007E007DFE7CFFAB2FAA2EA92DA820
:103770002CC31249D75027AF2FAE2EAD2DAC2C78CD
:1037800008124A11AB37AA36A935A83412488578F1
:1037900008124A118F2B8E2A8D298C288020AF2F5A
:1037A000AE2EAD2DAC2CAB37AA36A935A8341248B5
:1037B000857810124A118F2B8E2A8D298C28300C77
:1037C00005C20C126ED17F007E007D007C00AB3BF9
:1037D000AA3AA939A838C31249D76040AF3BAE3ADC
:1037E000AD39AC387806124A11AB23EB25E025E061
:1037F00024C9F582E43406F583124A7E124885789E
:103800000A124A11E52B2FFFE52A3EFEE5293DFD70
:10381000E5283CFC8F2B8E2A8D298C287F007E008A
:103820007D007C00AB3FAA3EA93DA83CC31249D70E
:103830006051AF23EF25E025E02425F582E434062E
:10384000F583124A7EAF23EF25E025E02463F5825D
:10385000E43405F583124A72124877AB3FAA3EA9B9
:103860003DA83C1248857810124A11E52B2FFFE540
:103870002A3EFEE5293DFDE5283CFC8F2B8E2A8D56
:10388000298C28300C05C20C126ED1E52370207FE4
:10389000007E007D007C00AB2BAA2AA929A828C3A2
:1038A0001249D74005D20E024168C20E0241687F1C
:1038B000007E007D007C00AB2BAA2AA929A828C382
:1038C0001249D74005D20F024168C20F024168AFCA
:1038D00023EF25E025E02425F582E43406F5831264
:1038E0004A7EAF23EF25E025E0240AF582E4340583
:1038F000F583124A721248778F2F8E2E8D2D8C2CC5
:103900007F007E007D007C008F278E268D258C24F5
:103910007F007E007D007C00AB37AA36A935A83435
:10392000C31249D770030239BC7F007E007D027C40
:1039300000AB2FAA2EA92DA82CD31249D750167F41
:10394000007E007DFE7CFFAB2FAA2EA92DA82CC3E4
:103950001249D75037AF2FAE2EAD2DAC2C780812B0
:103960004A11AB37AA36A935A8341248857808120F
:103970004A11E5272FFFE5263EFEE5253DFDE5241E
:103980003CFC8F278E268D258C248030AF2FAE2EC9
:10399000AD2DAC2CAB37AA36A935A83412488578A2
:1039A00010124A11E5272FFFE5263EFEE5253DFDD5
:1039B000E5243CFC8F278E268D258C247F007E00FD
:1039C0007D007C00AB3BAA3AA939A838C31249D77D
:1039D000603BAF23EF25E025E024C9F582E43406FF
:1039E000F583124A72AB3BAA3AA939A83812488526
:1039F0007810124A11E5272FFFE5263EFEE5253D0A
:103A0000FDE5243CFC8F278E268D258C247F007EAF
:103A1000007D007C00AB3FAA3EA93DA83CC31249F3
:103A2000D76051AF23EF25E025E02425F582E4346B
:103A300006F583124A7EAF23EF25E025E02463F5E7
:103A400082E43405F583124A72124877AB3FAA3EEE
:103A5000A93DA83C1248857810124A11E5272FFF8E
:103A6000E5263EFEE5253DFDE5243CFC8F278E2620
:103A70008D258C24E52370207F007E007D007C0056
:103A8000AB27AA26A925A824C31249D74005430E6F
:103A9000018023530EFE801E7F007E007D007C008F
:103AA000AB27AA26A925A824C31249D74005430E4F
:103AB000028003530EFDAE26AF27129C68EE3395AD
:103AC000E0FDFC8F278E268D258C249004D5E0FE0A
:103AD000A3E0FFEE3395E0FDFCAB27AA26A925A8BD
:103AE00024D31249D740169004D5E0FEA3E0FFEEA0
:103AF0003395E0FDFC8F278E268D258C24AF23EF98
:103B000025E02431F582E43406F583E0FEA3E0FFEE
:103B1000AB07AA06EA3395E0F9F8C3E5279BFFE572
:103B2000269AFEE52599FDE52498FC8F338E328D8B
:103B3000318C307F007E007D007C008F2B8E2A8DA3
:103B4000298C287F007E007D007C009004C9124AE9
:103B50007EC31249D7602EAF33AE32AD31AC309058
:103B600004C9124A7E1248857810124A11E52B2F9B
:103B7000FFE52A3EFEE5293DFDE5283CFC8F2B8E26
:103B80002A8D298C287F007E007D007C009004CD4A
:103B9000124A7EC31249D76039AF23EF25E025E0F2
:103BA00024D1F582E43406F583124A729004CD12D2
:103BB0004A7E1248857810124A11E52B2FFFE52A1C
:103BC0003EFEE5293DFDE5283CFC8F2B8E2A8D2904
:103BD0008C287F007E007D007C009004D1124A7EFC
:103BE000C31249D76059AF23EF25E02431F582E4B1
:103BF0003406F583E0FEA3E0FFAB07AA06EA33959F
:103C0000E0F9F8AF23EF25E025E024C1F582E434A4
:103C100006F583124A721248779004D1124A7E1236
:103C200048857810124A11E52B2FFFE52A3EFEE564
:103C3000293DFDE5283CFC8F2B8E2A8D298C287F81
:103C4000007E007D007C00AB2BAA2AA929A828C3EE
:103C50001249D750127F007E007D007C008F2B8E92
:103C60002A8D298C2880267F647E007D007C00AB15
:103C70002BAA2AA929A828D31249D740107F647EED
:103C8000007D007C008F2B8E2A8D298C28AF23EF9E
:103C900025E025E024C9F582E43406F583C083C01D
:103CA00082124A72EF252FFFEE352EFEED352DFDE7
:103CB000EC352CFCD082D083124A8AAF23EF25E06A
:103CC00025E024D1F582E43406F583C083C0821256
:103CD0004A72EF2533FFEE3532FEED3531FDEC351E
:103CE00030FCD082D083124A8AAF23EF25E025E052
:103CF00024C9F582E43406F583124A727BA07A86E1
:103D000079017800C31249D7501D7FA07E867D01BE
:103D10007C00AB23EB25E025E024C9F582E43406E2
:103D2000F583124A8A803CAF23EF25E025E024C9C1
:103D3000F582E43406F583124A727B607A7979FE63
:103D400078FFD31249D7401B7F607E797DFE7CFFD0
:103D5000AB23EB25E025E024C9F582E43406F583A6
:103D6000124A8AAF23EF25E025E024D1F582E4341E
:103D700006F583124A727BA07A8679017800C31215
:103D800049D7501D7FA07E867D017C00AB23EB25AB
:103D9000E025E024D1F582E43406F583124A8A80D6
:103DA0003CAF23EF25E025E024D1F582E43406F58D
:103DB00083124A727B607A7979FE78FFD31249D7F1
:103DC000401B7F607E797DFE7CFFAB23EB25E025E9
:103DD000E024D1F582E43406F583124A8AAF23EF5A
:103DE00025E02431F582E43406F583E0FEA3E0FF0C
:103DF000EE3395E0FDFCAB23EB25E025E024C1F597
:103E000082E43406F583124A8A024168AF23EF2523
:103E1000E025E0240AF582E43405F583124A72AB0A
:103E20002374322BF582E43405F583E0F9A80112FE
:103E30004A118F278E268D258C249004D5E0FEA371
:103E4000E0FFEE3395E0FDFCAB27AA26A925A824C8
:103E5000D31249D740169004D5E0FEA3E0FFEE331D
:103E600095E0FDFC8F278E268D258C24AE26AF276E
:103E7000129C68AD23ED25E02431F582E43406F58B
:103E800083E0FCA3E0FDC3EF9DFFEE9CFEEE3395C7
:103E9000E0FDFC8F338E328D318C30AF23EF25E087
:103EA00025E024D1F582E43406F583C083C0821274
:103EB0004A72EF2533FFEE3532FEED3531FDEC353C
:103EC00030FCD082D083124A8AAF23EF25E025E070
:103ED00024D1F582E43406F583124A727BA07A86F7
:103EE00079017800C31249D7501D7FA07E867D01DD
:103EF0007C00AB23EB25E025E024D1F582E43406F9
:103F0000F583124A8A803CAF23EF25E025E024D1D7
:103F1000F582E43406F583124A727B007A00790058
:103F20007800D31249D7401B7F007E007D007C00C3
:103F3000AB23EB25E025E024D1F582E43406F583BC
:103F4000124A8A7F007E007D007C008F2B8E2A8D96
:103F5000298C287F007E007D007C00AB43AA42A90B
:103F600041A840C31249D76030AF33AE32AD31AC57
:103F700030AB37AA36A935A8341248857810124AD2
:103F800011E52B2FFFE52A3EFEE5293DFDE5283C06
:103F9000FC8F2B8E2A8D298C287F007E007D007C53
:103FA00000AB47AA46A945A844C31249D76040AF11
:103FB00023EF25E025E024D1F582E43406F58312D1
:103FC0004A727806124A11AB47AA46A945A844127C
:103FD0004885780A124A11E52B2FFFE52A3EFEE5B7
:103FE000293DFDE5283CFC8F2B8E2A8D298C287FCE
:103FF000007E007D007C00AB4BAA4AA949A848C3BB
:104000001249D7605BAF23EF25E02431F582E43419
:1040100006F583E0FEA3E0FFAB07AA06EA3395E0CE
:10402000F9F8AF23EF25E025E024C1F582E434065A
:10403000F583124A72124877AB4BAA4AA949A8489D
:104040001248857810124A11E52B2FFFE52A3EFE13
:10405000E5293DFDE5283CFC8F2B8E2A8D298C28F7
:104060007F007E007D007C00AB2BAA2AA929A8280E
:10407000C31249D750107F007E007D007C008F2B3B
:104080008E2A8D298C28AF23EF25E02431F582E498
:104090003406F583E0FEA3E0FFEE3395E0FDFCABD4
:1040A00023EB25E025E024C1F582E43406F58312F4
:1040B0004A8AE52370227F007E007D007C00AB27CA
:1040C000AA26A925A824C31249D74006430E0102F7
:1040D0004168530EFE0241687F007E007D007C0037
:1040E000AB27AA26A925A824C31249D74005430E09
:1040F000028075530EFD8070AF23EF25E025E0248C
:104100000AF582E43405F583124A72AB2374322B2C
:10411000F582E43405F583E0F9A801124A118F2BEA
:104120008E2A8D298C28E52370207F007E007D005B
:104130007C00AB2BAA2AA929A828C31249D740057D
:10414000430E018023530EFE801E7F007E007D0003
:104150007C00AB2BAA2AA929A828C31249D740055D
:10416000430E028003530EFD300C05C20C126ED1BB
:104170007F647E007D007C00AB2BAA2AA929A82899
:10418000D31249D740107F647E007D007C008F2BC6
:104190008E2A8D298C287F9C7EFF7DFF7CFFAB2B98
:1041A000AA2AA929A828C31249D750107F9C7EFFAC
:1041B0007DFF7CFF8F2B8E2A8D298C28300C05C229
:1041C0000C126ED19004D9E0FFEF64016039AF2B7F
:1041D000AE2AAD29AC28780A124A257B647A007988
:1041E00000780012912FA804A905AA06AB07900633
:1041F0003EE0FFE4FCFDFE124885780A124A118F6A
:104200002B8E2A8D298C28300E11300F077F031238
:104210009B5C80167F01129B5C800F300F077F0232
:10422000129B5C80057F00129B5C300C05C20C1257
:104230006ED1E523700CAE2AAF2B129C68129A9CAB
:10424000800AAE2AAF2B129C68129AAC300C05C2C1
:104250000C126ED122EC4D6011E8497017ED33EC71
:104260003304600DE4FCFFFEFD22E933E833047003
:10427000F802451E1244E958046009E4CC24815038
:1042800006285009024528284003024525C0E0EBD6
:104290004A7044B98006D0E0FB024514EF4E701C12
:1042A000BD8008EBFFEAFEE9FD80EBE98DF0A4FE9E
:1042B000E5F002433EE9CDF9EAFEEBFFEF89F0A419
:1042C000FCE5F0CE89F0A42EFFE435F0CD89F0A412
:1042D0002DFEE435F08067EF4E7005BD80D780C3BA
:1042E000EF8BF0A4ACF0EE8BF0A42CFCE435F0F8EE
:1042F000EF8AF0A42CE5F038FCE433CB8DF0A42C4D
:10430000FCE5F03BF8EE8AF0A42CFCE5F038F8E48C
:1043100033CF89F0A42CFCE5F038CF3400CE89F0FF
:10432000A42FFFE5F03EFEE433C98DF0A42EFEE598
:10433000F039CD8AF0A42FFFE5F03EFEE43DFD33D9
:10434000D0E0FB50070BBB000F024528EC2CFCEF24
:1043500033FFEE33FEED33FD024500024528EC5DF0
:10436000046005E85904700302451E1244E958042C
:1043700060F6EC4860F2EC7004FDFEFF22C860DBE2
:104380002481C85009C39860025006024525985000
:10439000CAF582E9294B4A7005AB8202451475F0D3
:1043A000007C1A7880C3EF9BEE9AED99400DC3EF25
:1043B0009BFFEE9AFEED99FDE842F0DC23ACF0D0D5
:1043C000E0FFD0E0FED0E0FDAB8220E7101BEB6009
:1043D000BAEC2CFCEF33FFEE33FEED33FD0245006B
:1043E000E803F830E705C0F075F000EF2FFFEE337B
:1043F000FEED33FD40B830E7C280AA74F8CC64808B
:10440000CCC86480C8F58204604FC3EB9FF5F0EA26
:104410009E42F0E99D42F0E89C45F0603C501DE56D
:10442000825FFFE582D313CB5BCBF42B5582FB502D
:10443000280ABA002409B9002008801DE5825BFB28
:10444000E582D313CF5FCFF4C3132F5582FF5009FA
:104450000EBE00050DBD00010CC3EB9FF5F0EA9EFA
:1044600042F0E99D42F0E89C45F06007CC4820E727
:1044700001B3EC2275F020800E75F010800575F008
:10448000087D007E007F003392D530D5031249C9E4
:10449000EC334010EF33FFEE33FEED33FDEC33FC35
:1044A000D5F0ED22E5F0247EA2D513CC92E7CDCE57
:1044B000FF22EDD2E7CD33EC3392D524814006E4E0
:1044C000FFFEFDFC22FCE4CFCECDCC24E0501174E5
:1044D000FF80EDC3CC13CCCD13CDCE13CECF13CFF5
:1044E0000470F030D5DE0249C9E9D2E7C933E833B8
:1044F000F892D5EDD2E7CD33EC33FC5002B2D522A1
:10450000EC30E7100FBF000C0EBE00080DBD00041C
:104510000BEB6014A2D5EB13FCED92E7FD2274FFC8
:10452000FCFDFEFF22E480F8A2D574FF13FC7D8021
:10453000E480EFF920E73624F950037907E4F42406
:1045400002FBE582158270021583DBF6E024FB5046
:104550001BE96014E4F0E582158270021583E00423
:10456000F0B40A08E4F0D9EE7401F00A22C2D522B0
:10457000ED33EC3392D5FA602AB4FF33EDC2E77B1A
:10458000FF60067A457995E4227A45799E20D50424
:104590007A457999224E614E002B494E46002D49AD
:1045A0004E4600E47A08F0A3DAFC7B00740722C0D0
:1045B00083C082ECC0E0EDC0E0EEC0E0EFC0E0EA16
:1045C00075F010A4CAABF075F04DA42BFBE435F0E8
:1045D000FCEA2410FAEB34C5FBEC34D9FCEDC2E75D
:1045E000FF75F056A4F42411C5F0F434C58FF0A47F
:1045F0002AE5F03BE43CF020E71412479DD0E0FFB1
:10460000D0E0FED0E0FDD0E0FC12435E8014F40464
:1046100012479DD0E0FFD0E0FED0E0FDD0E0FC12DC
:104620004255D082D083E0FAEDD2E7CD33EC33248B
:1046300082FBE4C3CF33CFCE33CECD33CD33DBF3E8
:104640007B0775F00A846004F0A31B0AE5F0F0A371
:104650008FF0740AA4FFACF08EF0740AA42CFEACA8
:10466000F050010C8DF0740AA42CFDE435F0F0A399
:10467000DBDE74072202451EE86480F8E933E83384
:1046800060110460F0ED33EC337009E8FCE9FDEAF9
:10469000FEEBFF220460DED3EB9FEA9EE99DE8C2B9
:1046A000E78CF0C2F795F0400CE8CCF8E9CDF9EAD8
:1046B000CEFAEBCFFB1244E985D0F058047003200A
:1046C000D5B3E80470075002B2D502452892D5EC64
:1046D0000460F7E4CCC0E0C398F8603B941860082D
:1046E000400DD0E0FB024500E4FBFAC9FC8028E85D
:1046F00030E406E4C9FBE4CAFCE830E305E4C9CAD7
:10470000CBFCE854076010F8C3E913F9EA13FAEB9D
:1047100013FBEC13FCD8F130F52FC3E49CFCEF9BAA
:10472000FFEE9AFEED99FDD0E0FBEF4E4D4C70127E
:1047300022DB03024525EC2CFCEF33FFEE33FEEDCC
:1047400033FDED30E7EB024500EF2BFFEE3AFEEDD7
:1047500039FDD0E0FB50130BBB0003024528ED13DD
:10476000FDEE13FEEF13FFEC13FC0245003F80004B
:10477000004120000042C80000447A0000461C406E
:104780000047C35000497424004B1896804CBEBCAF
:10479000205A0E1BCA6753C21C749DC5AEFB60062F
:1047A0005407601C23231247CBEB5438600912478F
:1047B000B71247C6124255ECF8EDF9EEFAEFCB22EC
:1047C000EB1247C680F1543803241C90476DFE93CA
:1047D000FC0EEE93FD0EEE930ECE93FF22BB010670
:1047E00089828A83E0225002E722BBFE02E322890B
:1047F000828A83E49322BB010CE58229F582E5835A
:104800003AF583E0225006E92582F8E622BBFE064F
:10481000E92582F8E222E58229F582E5833AF583EB
:10482000E49322BB010689828A83F0225002F72298
:10483000BBFE01F322C5F0F8A3E028F0C5F0F8E5CF
:1048400082158270021583E038F022BB010A89824A
:104850008A83F0E5F0A3F0225006F709A7F01922A9
:10486000BBFE06F3E5F009F31922EF2BFFEE3AFE4B
:10487000ED39FDEC38FC22C3EF9BFFEE9AFEED997B
:10488000FDEC98FC22E88FF0A4CC8BF0A42CFCE982
:104890008EF0A42CFC8AF0EDA42CFCEA8EF0A4CDC2
:1048A000A8F08BF0A42DCC3825F0FDE98FF0A42CD6
:1048B000CD35F0FCEB8EF0A4FEA9F0EB8FF0A4CF89
:1048C000C5F02ECD39FEE43CFCEAA42DCE35F0FD3A
:1048D000E43CFC2275F008758200EF2FFFEE33FEFA
:1048E000CD33CDCC33CCC58233C5829BED9AEC99C8
:1048F000E58298400CF582EE9BFEED9AFDEC99FC6A
:104900000FD5F0D6E4CEFBE4CDFAE4CCF9A88222B0
:10491000B800C1B90059BA002DEC8BF084CFCECDD0
:10492000FCE5F0CBF97818EF2FFFEE33FEED33FD09
:10493000EC33FCEB33FB10D703994004EB99FB0FEE
:10494000D8E5E4F9FA227818EF2FFFEE33FEED33C5
:10495000FDEC33FCC933C910D7059BE99A4007EC3D
:104960009BFCE99AF90FD8E0E4C9FAE4CCFB227584
:10497000F010EF2FFFEE33FEED33FDCC33CCC83318
:10498000C810D7079BEC9AE899400AED9BFDEC9A7A
:10499000FCE899F80FD5F0DAE4CDFBE4CCFAE4C8F2
:1049A000F922EF5BFFEE5AFEED59FDEC58FC22EFC9
:1049B0004BFFEE4AFEED49FDEC48FC22CFF4CFCE92
:1049C000F4CECDF4CDCCF4CC22C3E49FFFE49EFE24
:1049D000E49DFDE49CFC22EB9FF5F0EA9E42F0E9A9
:1049E0009D42F0EC6480C864809845F022EB9FF50E
:1049F000F0EA9E42F0E99D42F0E89C45F022E86032
:104A00000FECC313FCED13FDEE13FEEF13FFD8F113
:104A100022E86010ECA2E713FCED13FDEE13FEEFAD
:104A200013FFD8F022E8600FEFC333FFEE33FEED43
:104A300033FDEC33FCD8F122BB010789828A830263
:104A40004A725005E9F8024D5EBBFE05E9F8024DD9
:104A50006A89828A83024D76BB010789828A830232
:104A60004A8A5005E9F8024D86BBFE05E9F8024D79
:104A70009222E0FCA3E0FDA3E0FEA3E0FF22E0F829
:104A8000A3E0F9A3E0FAA3E0FB22ECF0A3EDF0A38E
:104A9000EEF0A3EFF022A42582F582E5F03583F550
:104AA0008322E6FB08E6FA08E6F922FAE6FB0808A4
:104AB000E625F0F9F618E63AFAF622EBF608EAF6F9
:104AC00008E9F622E0FBA3E0FAA3E0F922F8E0FB14
:104AD000A3A3E0F925F0F0E582158270021583E0CA
:104AE000FA38F022EBF0A3EAF0A3E9F022D083D069
:104AF00082F8E4937012740193700DA3A393F87479
:104B00000193F5828883E4737402936860EFA3A332
:104B1000A380DFD083D082F8E49370127401937085
:104B20000DA3A393F8740193F5828883E473740250
:104B300093B5F0067403936860E9A3A3A3A380D898
:104B4000E5102582F582E50F3583F583B50F0485E1
:104B500082102210AF06858210F50F22858210F593
:104B60000FD2AF22EC8EF0A4CCC5F0CCCDF8EFA4E0
:104B7000CEC5F02DFDE43CFCE8A42EC8C5F03DFDFB
:104B8000E43CFCEFA4FFE5F028FEE43DFDE43CFC42
:104B900022E709F608DFFA8046E709F208DFFA8023
:104BA0003E88828C83E709F0A3DFFA8032E309F6BE
:104BB00008DFFA806EE309F208DFFA806688828CEB
:104BC00083E309F0A3DFFA805A89828A83E0A3F69F
:104BD00008DFFA804E89828A83E0A3F208DFFA8038
:104BE0004280D280FA80C680D4805580F2802980AD
:104BF0001080A680EA809A80A880DA80E280CA804D
:104C00002988848C8589828A83E493A30586F0A30E
:104C10000586DFF5DEF3800B89828A83E493A3F6B1
:104C200008DFF9ECFAA9F0EDFB2288848C858982F3
:104C30008A83E0A30586F0A30586DFF6DEF480E331
:104C400089828A83E493A3F208DFF980D688F0EFA3
:104C500060010E4E60CD88F0ED2402B4040050C314
:104C6000F582EB2402B4040050B92323458223903B
:104C70004BE173E709F60870FA8046E709F208701D
:104C8000FA803E88828C83E709F0A370FA8074E38F
:104C900009F60870FA806CE309F20870FA806488FB
:104CA000828C83E309F0A370FA805889828A83E0BA
:104CB000A3F60870FA804C89828A83E0A3F2087018
:104CC000FA804080D280FA80C680D4805180F28001
:104CD00027801080A680EA809A80A880DA80E2800F
:104CE000CA802788848C8589828A83E493A3058679
:104CF000F0A3058670F5800B89828A83E493A3F67E
:104D00000870F9ECFAA9F0EDFB2288848C85898281
:104D10008A83E0A30586F0A3058670F680E5898284
:104D20008A83E493A3F20870F980D888F0ED240216
:104D3000B4040050CEF582EB2402B4040050C42326
:104D400023458223904CC373A3F8E0C5F025F0F00F
:104D5000E582158270021583E0C838F0E822E6FC8F
:104D600008E6FD08E6FE08E6FF22E2FC08E2FD0890
:104D7000E2FE08E2FF22E493FC740193FD740293C7
:104D8000FE740393FF22ECF608EDF608EEF608EF4A
:104D9000F622ECF208EDF208EEF208EFF222E5510D
:104DA000248AF582E43404F583E0055122900487D7
:104DB00030080390048AE475F001124ACD0247DD01
:104DC0002001E97F2ED2018018EF540F2490D434B3
:104DD00040D4FF30050BEF24BFB41A005003246108
:104DE000FFE552600215520555E555700205543035
:104DF000080E900487E475F001124ACDEF024823B3
:104E00000296807403D2088003E4C208F55190042E
:104E100087124AE4E4F552F554F555E55260077FF0
:104E200020124DE180F57553FFC202C201C203C2D8
:104E300004C206C207C209124DADFF700D3008054D
:104E40007F00124DF2AF55AE5422B4255FC2D5C2D9
:104E500005124DADFF24D0B40A00501A75F00A783F
:104E60005230D50508B6FF0106C6A426F620D504A3
:104E70007002D20480D924CFB41A00EF5004C2E5E6
:104E8000D2050250E4D20280C6D20180C0D2038093
:104E9000BCD2D580BAD20680B47F20124DE1200367
:104EA000077401B5520040F1124D9EFF124DE10210
:104EB0004E1BD209D2078095124D9EFB124D9EFAD1
:104EC000124D9EF94A4B700679E27A517BFF20031E
:104ED0002EE552602A7E008E827583001247F660AE
:104EE000060EEE655370F0C2D5EBC0E0EAC0E0E913
:104EF000C0E0EE125145D0E0F9D0E0FAD0E0FB126C
:104F000047DDFF60AAEBC0E0EAC0E0E9C0E0124D77
:104F1000E1D0E02401F9D0E03400FAD0E0FBE55321
:104F20000460DCD553D98087D20380A21251276058
:104F3000F7E553700104124533A953600DE5536042
:104F40000914F5531251CFEF60F3EA30E702F4048D
:104F5000C3995079EAF425530430E701E404F5538A
:104F6000800D12512760C1EA05532553124533EADB
:104F70009004B6F030E701E4255304D5530420062D
:104F80000114125145E4C0E01251CF9004B6E06024
:104F90001320E70714F0124DC9802204F0D0E0146A
:104FA000C0E07F00124DC9E5536007124DC0155394
:104FB000800B300603124DC0D0E0024E1BD0E0043F
:104FC00080C4125127609EE553041245339004B605
:104FD000EAF0E553200602600104240412514574EE
:104FE000FF04C0E01251CF124DC9E5532006026004
:104FF00003124DC0D0E0B553E87F45124DD3900465
:10500000B6E07F2B30E7047F2DF404C0E0124DE1C1
:10501000D0E075F00A84C0F0124DCAD0E0124DCA3B
:10502000024E1B791080027908C207C2098008D29B
:10503000D5790A8004790AC2D5E553047002F55384
:10504000E4FAFDFEFF124D9EFC7B08200213124D78
:105050009EFD7B1030010A124D9EFE124D9EFF7B7D
:1050600020EC3382D592D55013C3E43001069FFF64
:10507000E49EFEE42002039DFDE49CFCE4CBF8C228
:1050800002EC700CCFCECDCCE824F8F870F380178A
:10509000C3EF33FFEE33FEED33FDEC33FCEB33FBBC
:1050A000994002FB0FD8E9EB300205F8D0E0C44884
:1050B000B202C0E00AEC4D4E4F78207B0070C2EA8D
:1050C000B5530040BCC0E0125147D0F0D0E0200200
:1050D00004C4C0E0C4B202C0F0124DCAD0F0D5F092
:1050E000EB024E1B124AED4EB8535023584E894CDA
:1050F0004E854250274F502F44502F494E9E4350CB
:1051000035554F62464FC2454F2C475202504E8D87
:105110002D4E912E4EB42B4E95234EB22051EB2A9C
:105120004E4D4800004EACE553B4FF0375530612D4
:105130004D9EFC124D9EFD124D9EFE124D9EFF9007
:1051400004AF024570790AA2D5200414300609B9CB
:1051500010020404B9080104A2D52007025001047A
:105160002003689203B552005034C0E07F20300421
:10517000197F30A20372077206500F12519EC203AC
:10518000C207C206C2097F30800F300603E9C0E0C3
:10519000124DE1300603D0E0F9D0E0B552CC300634
:1051A000177F30B9100C124DE17F583005077F781A
:1051B0008003B90803124DE13003057F2D024DE154
:1051C0007F202009F87F2B2007F322920380CF7FD6
:1051D00000B40700500B24AFF582E43404F583E0FB
:1051E000FF22286E756C6C2900D202124D9E30028F
:1051F000F8C202785230D50108F6024E4D2D5043C8
:105200004958124D9E2403B405004001E49051FD1D
:1052100093124DD2743A124DD2D2047552040250F8
:1052200023900004EEF0A3EFF09000067402F090DB
:105230000004E0FEA3E0FFEF8EF0124B135271006A
:1052400000528700015341000253570003536D0081
:105250000453C90005542F0006547F0007549500DD
:10526000085383000B5510000C52E4001200005547
:10527000299004BCE0FF900007EFF090001AE4F0E2
:10528000A37403F00255299004BD124A72EC124433
:10529000747B007A007980784712435E9000071291
:1052A0004A8A9004C1124A72EC1244747B007A005C
:1052B0007980784712435E90000B124A8A9004C5A9
:1052C000124A72EC1244747B007A0079807847129B
:1052D000435E90000F124A8A90001AE4F0A3740E05
:1052E000F00255299004C9124A72EC1244747B00F2
:1052F0007A007980784712435E900007124A8A90BC
:1053000004CD124A72EC1244747B007A00798078E2
:105310004712435E90000B124A8A9004D1124A72DF
:10532000EC1244747B007A007980784712435E90D7
:10533000000F124A8A90001AE4F0A3740EF002558E
:10534000299004D7E0FF900007EFF090001AE4F0F6
:10535000A37403F00255299004D8E0FF900007EFF2
:10536000F090001AE4F0A37403F00255299004D9D8
:10537000E0FF900007EFF090001AE4F0A37403F050
:1053800002552990001CE4F090001CE0FFEFC3944C
:1053900003502A90001CE0FF74DA2FF582E43404F5
:1053A000F583E0FF90001CE0FE74072EF582E434E4
:1053B00000F583EFF090001CE004F080CB90001A21
:1053C000E4F0A37405F002552990001CE4F090006D
:1053D0001CE0FFEFC39403504A90001CE0FFEF2550
:1053E000E025E024DDF582E43404F583124A72906E
:1053F000001CE0FB74DA2BF582E43404F583E0F959
:10540000A801124A1190001CE0FDED25E02407F5EB
:1054100082E43400F583EEF0A3EFF090001CE0048A
:10542000F080AB90001AE4F0A37408F002552990C4
:10543000001CE4F090001CE0FFEFC3940350349094
:10544000001CE0FFEF25E025E024E9F582E43404C8
:10545000F583124A7290001CE0FBEB25E025E02466
:1054600007F582E43400F583124A8A90001CE004B8
:10547000F080C190001AE4F0A3740EF00255299058
:1054800004F5E0FF900007EFF090001AE4F0A37439
:1054900003F002552990001CE4F090001CE0FFEF9F
:1054A000C39402506090001CE0FFEF25E025E0244B
:1054B000F6F582E43404F583124A7290001CE0FB96
:1054C000EB75F008A42407F582E43400F583124A52
:1054D0008A90001CE0FFEF25E025E024FEF582E441
:1054E0003404F583124A7290001CE0FBEB75F0085F
:1054F000A4240BF582E43400F583124A8A90001C40
:10550000E004F0809590001AE4F0A37412F0801982
:105510009004D5E0FEA3E0FF900007EEF0A3EFF0CB
:1055200090001AE4F0A37404F07B017A00790690ED
:10553000001AE0FEA3E0FFEF14FD1292A990001AFA
:10554000E0FCA3E0FD74052DF58274003CF583EFCB
:10555000F07B017A00790690001AE0FEA3E0FFAD2F
:105560000712846522900004EEF0A3EFF09000048F
:10557000E0FEA3E0FFEF8EF0124B1355AF00005595
:10558000BC0001565E0002566B00035678000456BC
:10559000B2000557300006576700075774000856D9
:1055A00085000B5844000C560D0012000058549012
:1055B0000590E0FF900514EFF00258547F007E0044
:1055C0007D807C47900590124A7E1242551244B26B
:1055D000900515124A8A7F007E007D807C479005E9
:1055E00094124A7E1242551244B2900519124A8A08
:1055F0007F007E007D807C47900598124A7E124293
:10560000551244B290051D124A8A0258547F007EFA
:10561000007D807C47900590124A7E1242551244CC
:10562000B2900521124A8A7F007E007D807C4790DF
:105630000594124A7E1242551244B2900525124A30
:105640008A7F007E007D807C47900598124A7E12FA
:1056500042551244B2900529124A8A0258549005C4
:1056600090E0FF90052FEFF0025854900590E0FF76
:10567000900530EFF0025854900590E0FF9005310E
:10568000EFF0025854754F00E54FC39403400302F6
:105690005854AF4F74902FF582E43405F583E0FF42
:1056A000AE4F74322EF582E43405F583EFF0054FEA
:1056B00080D6754F00E54FC39403506FAF4FEF2571
:1056C000E02490F582E43405F583E0FEA3E0FFEEEC
:1056D0003395E0FDFCAB4FEB25E025E02435F5826A
:1056E000E43405F583124A8AAF4FEF25E025E02424
:1056F00035F582E43405F583C083C082124A72AB6B
:105700004F74322BF582E43405F583E0F9A80112D9
:105710004A25D082D083124A8AAF4F74352FF58242
:10572000E43406F583E4F0054F808AD20A02585427
:10573000754F00E54FC394034003025854AF4FEF39
:1057400025E025E02490F582E43405F583124A72C1
:10575000AB4FEB25E025E02441F582E43405F583E9
:10576000124A8A054F80CC900590E0FF90054DEFDE
:10577000F0025854754F00E54FC39402400302589D
:1057800054AF4FEF25E025E02490F582E43405F591
:1057900083E0FEA3E0FFEE3395E0FDFCAB4FEB258D
:1057A000E025E0244EF582E43405F583124A8AAF01
:1057B0004FEF25E025E02492F582E43405F583E0FF
:1057C000FEA3E0FFEE3395E0FDFCAB4FEB25E025BB
:1057D000E02456F582E43405F583124A8AAF4FEF90
:1057E00025E025E0244EF582E43405F583C083C02E
:1057F00082124A72AB4F74322BF582E43405F58382
:10580000E0F9A801124A25D082D083124A8AAF4F0C
:10581000EF25E025E02456F582E43405F583C083C6
:10582000C082124A72AB4F74322BF582E43405F514
:1058300083E0F9A801124A25D082D083124A8A0552
:105840004F025777900590E0FEA3E0FF90052DEE04
:10585000F0A3EFF07F011292E122000D0A004669E9
:10586000726D776172652076657273696F6E3A202A
:105870000051424D4D502076362E302E30002E0DE8
:105880000A0D0A0044455649434520494E464F0DEE
:105890000A0049443A2025640D0A004E756D626580
:1058A00072206F662073656E736F72733A20256481
:1058B0000D0A0050574D204C696D69743A202564DB
:1058C0000D0A004D4F544F5220494E464F0D0A00CD
:1058D0004D6F746F72207265666572656E63657375
:1058E0003A2000256420004D6F746F7220656E6150
:1058F000626C65643A20005945530D0A004E4F0D05
:105900000A000D0A4D4541535552454D454E5453DD
:1059100020494E464F0D0A0053656E736F72207614
:10592000616C75653A0D0A002564202D3E202564C2
:1059300000566F6C7461676520286D56293A2025E2
:105940006C640043757272656E74203120286D415D
:10595000293A20256C640043757272656E7420329A
:1059600020286D41293A20256C64000D0A444556D3
:1059700049434520504152414D45544552530D0A2B
:105980000050494420436F6E74726F6C6C65723ABC
:105990000D0A0050202D3E2025660D0A0049202DBD
:1059A0003E2025660D0A0044202D3E2025660D0A66
:1059B0000043757272656E742050494420436F6EC7
:1059C00074726F6C6C65723A0D0A00537461727474
:1059D00075702061637469766174696F6E3A2059DD
:1059E00045530D0A005374617274757020616374BD
:1059F00069766174696F6E3A204E4F0D0A00496EE8
:105A0000707574206D6F64653A205553420D0A001D
:105A1000496E707574206D6F64653A2053656E73BE
:105A20006F7220330D0A00436F6E74726F6C204DDD
:105A30006F64653A2000506F736974696F6E0D0A68
:105A40000050574D0D0A0043757272656E740D0A51
:105A50000043757272656E7420616E6420706F739E
:105A60006974696F6E0D0A0053656E736F722072F0
:105A700065736F6C7574696F6E3A0D0A004D6561E0
:105A8000737572656D656E74204F66667365743AE2
:105A90000D0A002564202D3E20256C64004D6561B3
:105AA000737572656D656E74204D756C7469706C7C
:105AB0006965723A0D0A002564202D3E2025660096
:105AC000506F736974696F6E206C696D69742061C1
:105AD00063746976653A20256400506F7369746950
:105AE0006F6E206C696D6974206D6F746F72202504
:105AF000643A20696E66202D3E20256C64202000CB
:105B0000737570202D3E20256C640D0A004D617860
:105B10002073746966666E6573733A20256400436A
:105B2000757272656E74206C696D69743A202564B3
:105B30000064656275673A20256C6400900003EF8D
:105B4000F0900003E0FF8F23E523C394034003029A
:105B50005DE8300A329000047403F0900004E0FF26
:105B600014F0EF60207F007E007D007C0090000438
:105B7000E0FBEB25E025E024D9F582E43406F5834B
:105B8000124A8A80D6C20AE523701B129C88EF5401
:105B9000FFFFEE54FFFEED5403FDEC5400FC9000BB
:105BA00005124A8A8059E523B4011B129C92EF54D6
:105BB000FFFFEE54FFFEED5403FDEC5400FC90009B
:105BC00005124A8A8039E523B4021B129C9CEF54CB
:105BD000FFFFEE54FFFEED5403FDEC5400FC90007B
:105BE00005124A8A8019129CA6EF54FFFFEE54FF5B
:105BF000FEED5403FDEC5400FC900005124A8A7B34
:105C0000017A0079051286CC4003025DE890000518
:105C1000124A72EF54C0FFEE54FFFEED5403FDEC48
:105C20005400FC78021249FEC3E49FFB74809EFA84
:105C3000AF23EF25E025E02435F582E43405F58334
:105C4000124A72EB2FFFEA3EFEEE3395E0FDFC9028
:105C50000009124A8A301020900009124A72AB23C0
:105C6000EB25E025E024D9F582E43406F583124AD9
:105C70008AE523B40202C210AF23EF25E025E02419
:105C8000D9F582E43406F583124A7E900009124A5F
:105C90007212487790000D124A8A7F007EC07D0004
:105CA0007C0090000D124A7ED31249D74011AF23D9
:105CB00074352FF582E43406F583E014F0805F7FBD
:105CC000007E407DFF7CFF90000D124A7EC312498A
:105CD000D75011AF2374352FF582E43406F583E0F5
:105CE00004F0803A90000D124A72129C68D3EF942F
:105CF00000EE648094C04026AF2374E52FF582E463
:105D00003406F583E004F0AF2374E52FF582E43424
:105D100006F583E0FFEFC3940A5003025DE8AF236A
:105D200074E52FF582E43406F583E4F0900009125F
:105D30004A72AB23EB25E025E024D9F582E4340652
:105D4000F583124A8A900009124A72C004C005C045
:105D500006C007AF2374352FF582E43406F583E0DF
:105D6000FFEF3395E0FEFDFC7810124A25A804A948
:105D700005AA06AB07D007D006D005D00412486AA2
:105D8000900009124A8AAF23EF25E025E024E9F5C7
:105D900082E43404F583124A727B007A00798078B9
:105DA0003F1243FB6029900009124A72EC124474BE
:105DB000AB23EB25E025E024E9F582E43404F58308
:105DC000124A7E1242551244B2900009124A8A9039
:105DD0000009124A72AB23EB25E025E02425F58269
:105DE000E43406F583124A8A22129D451283507FBD
:105DF000647E007D007C00128A177F01129B2C12AA
:105E0000937312995E1294141290A112960B7E9DB8
:105E10007F50129753129A1B7E9D7F4D12977212DC
:105E200099737F00129A9C7F00129AAC7F00129B9C
:105E30005C7F00129B0C12998812999D1299B212E4
:105E400099C71297EB7F01129B6C900007E4F0A3B7
:105E5000E4F07B007A007D017F02128B4790000105
:105E6000EFF0128FC2900002EFF0900002E0FF907E
:105E70000002E0FB9000077486F07D067C00128033
:105E800030900002E0FFC0077B017A06791FAF0166
:105E9000AE02AD037C00EF54FFFFEE54FFFEED5465
:105EA00000FDEC5400FCAB07AA06D0077D107C4E29
:105EB000128213900001E0FF900002E0FD12923385
:105EC000900001E0FF7D011285E57F00129AFC122F
:105ED00099DC1299F1D2AF9044F474FDF07F0A7E00
:105EE000007D007C00128A179000007402F0900080
:105EF00000E0FF14F0EF60207F007E007D007C005A
:105F0000900000E0FBEB25E025E0240AF582E43474
:105F100005F583124A8A80D69000007403F0900041
:105F200000E0FF14F0EF60317F007E007D007C0018
:105F3000900000E0FBEB25E025E02425F582E43429
:105F400006F583124A8A900000E0FF74352FF5822F
:105F5000E43406F583E4F080C57B017A05790AC054
:105F600003C002C0017B017A067912A801AC02AD20
:105F700003D001D002D0037E007F09124C4D900463
:105F8000D7E0FF900512EFF090060DE4F0A3E4F0E7
:105F9000900611E4F0900512E0FF129B0C90063E73
:105FA000E4F0C20D900562E4F0C20A900561E0FFE2
:105FB000EF70077F01129B8C80057F00129B8C7F06
:105FC00000129B4C1273E1129D39EF7020300C0EC1
:105FD0007F01129B9CC20CC20B126ED180E9300B68
:105FE000E67F01129B9C90061AE4F080DA7F011292
:105FF0009B4C129D39EF640160F8129478EF30E702
:10600000BE1290A180B922900003EFF0900004EC42
:10601000F0A3EDF0900006EAF0A3EBF0900009E0A9
:10602000FFEFD394005003026206900009E0FFEFF7
:10603000D394014003026206900003E0FFEF124A8E
:10604000ED60540160540460810760AC0860D70AB9
:1060500000006102900008E0FFEFD3940F40117B35
:106060000C7A017918129C5090000AEFF002610737
:106070007B0C7A01791C129C5090000AEFF00261AF
:1060800007900008E0FFEFD3940F40107B0C7A01DB
:106090007919129C5090000AEFF0806B7B0C7A010A
:1060A000791D129C5090000AEFF0805B900008E090
:1060B000FFEFD3940F40107B0C7A01791A129C5099
:1060C00090000AEFF080407B0C7A01791E129C5000
:1060D00090000AEFF08030900008E0FFEFD3940FBB
:1060E00040107B0C7A01791B129C5090000AEFF053
:1060F00080157B0C7A01791F129C5090000AEFF0FA
:10610000800590000AE4F090000AE0FFEF3395E08C
:10611000FEFDFC7B207A0079007800124885A804F7
:10612000A905AA06AB07900004E0FEA3E0FFE4FC8B
:10613000FD12486A90000B124A8A90000B124A72B4
:10614000AB07AA06A905A804A804A905AA06AB07D7
:10615000900006E0FEA3E0FFE4FCFD1248859000FD
:1061600011124A8A7B007A8079007800900011121F
:106170004A7212491090000FEEF0A3EFF090000861
:10618000E0FFEFC3940E504790000FE0FEA3E0FF46
:10619000900008E0FDC3740E9DFDEFA80508800582
:1061A000CEC313CE13D8F9FF90000FEEF0A3EFF09B
:1061B000900008E0FFEF04FF900009E0FEEE75F0AC
:1061C00003A4248EF582E43407F583EFF080169063
:1061D0000009E0FFEF75F003A4248EF582E4340794
:1061E000F583740FF090000FE0FEA3E0FF9000092C
:1061F000E0FDED75F003A4248CF582E43407F5830B
:10620000EEF0A3EFF0227F00129A06229004D8E06D
:10621000FFEF60030263B9900541124A729004E9EE
:10622000124A7E1243FB6038900612124A72EC1238
:1062300044749004E9124A7E12435E1244B29006FE
:1062400012124A8A900612124A72EC124474900595
:1062500041124A7E1242551244B2900612124A8AE4
:10626000900545124A729004ED124A7E1243FB607B
:1062700038900616124A72EC1244749004ED124AD9
:106280007E12435E1244B2900616124A8A90061697
:10629000124A72EC124474900545124A7E1242551D
:1062A0001244B2900616124A8A900535124A72902C
:1062B00004DD124A7EC31249D76036900612124A94
:1062C00072C004C005C006C0079004DD124A7E906B
:1062D0000535124A72124877A804A905AA06AB0729
:1062E000D007D006D005D00412486A900612124A90
:1062F0008A900539124A729004E1124A7EC312490B
:10630000D76036900616124A72C004C005C006C097
:10631000079004E1124A7E900539124A72124877BA
:10632000A804A905AA06AB07D007D006D005D0045B
:1063300012486A900616124A8A9004F5E0FFEF6050
:10634000789004F6124A72900612124A7EC31249DD
:10635000D7500C9004F6124A72900612124A8A9094
:1063600004FA124A72900616124A7EC31249D75096
:106370000C9004FA124A72900616124A8A9004FE91
:10638000124A72900612124A7ED31249D7400C90DC
:1063900004FE124A72900612124A8A900502124AAC
:1063A00072900616124A7ED31249D7400C9005020D
:1063B000124A72900616124A8A7F007E00127924D1
:1063C000EF60067F011292E1227F001292E122909B
:1063D0000562E0FFEF124AED658C0063EE01649206
:1063E000026565036449046549050000658C129CDB
:1063F000F39004BD124A729006E8124A8A9004C1D2
:10640000124A729006EC124A8A9004C5124A72909F
:1064100006F0124A8A7F007E007D007C0090061202
:10642000124A8A7F007E007D007C00900616124A88
:106430008A90061AE0FFEF5403FFEF70057F031206
:106440009B0C9005627404F0229006F4E004F09036
:1064500006F4E0FFEF640A600302658C9006F4E442
:10646000F07F997E197D007C009004BD124A8A7FDE
:10647000007E007D007C009004C1124A8A7FCC7EA1
:106480004C7D007C009004C5124A8A90056274021B
:10649000F022900612124A72EF245BFFEE3400FEE7
:1064A000ED3400FDEC3400FC900612124A8A90068E
:1064B00016124A72C3EF945BFFEE9400FEED940057
:1064C000FDEC9400FC900616124A8A900631E0FE1C
:1064D000A3E0FFD3EF94E8EE648094835016900617
:1064E00033E0FEA3E0FFD3EF94E8EE6480948350A2
:1064F0000302658C90050A124A7290055EEEF0A3C5
:10650000EFF09006E8124A729004BD124A8A900693
:10651000EC124A729004C1124A8A9006F0124A7232
:106520009004C5124A8A7F007E007D007C009006A0
:1065300012124A8A7F007E007D007C0090061612AF
:106540004A8A9005627405F0229006F4E004F09007
:1065500006F4E0FFEF640A70339006F4E4F090056F
:10656000627403F02290061AE0FFEF5403FFEF700D
:10657000057F00129B0C7F087E001279247F007E2D
:1065800000127924900562E4F0129CEC2290000441
:10659000EEF0A3EFF0900006EDF0129C7E90000864
:1065A000EFF0129C74900009EEF0A3EFF090000958
:1065B000E0FEA3E0FF900004E0FCA3E0FDED6F70BF
:1065C00002EC6E70030267219043A2E0FFEF5401DA
:1065D000FF900007EFF0900008E0FFEF705E900082
:1065E00009E0FEA3E0FFEF4E600C900004E0FEA384
:1065F000E0FFEF4E7046900009E0FEA3E0FFEF4E93
:10660000701D7B027A407980900004E0FCA3E0FDDD
:10661000129BF9904082E0FFEF54BFFFEFF0229011
:106620004082E0FFEF4440FFEFF07B027A40798048
:10663000900004E0FCA3E0FD129BF922900007E02B
:10664000FFEF606C904001E4F09040107401F09016
:106650004014E4F0904008E0FFEF547FFFEFF0902B
:106660004082E0FFEF5408FF7E00EF4E600C900088
:1066700004E0FEA3E0FFEF4E70367B027A40790221
:10668000900009E0FCA3E0FD129BF9904001740723
:10669000F0904001E0FFEF5401FF7E00EF4E70F1FB
:1066A0009043A2E0FFEF54FEFFEFF0904001E4F0D2
:1066B0009043A2E0FFEF5401FF7E00EF4E603A7B73
:1066C000027A407902900004E0FCA3E0FD129BF9FD
:1066D000900006E0FFEF60047F0280027F00EF443D
:1066E00001FF904001EFF0904001E0FFEF5401FF07
:1066F0007E00EF4E602B80EF227B027A4079809003
:106700000004E0FCA3E0FD129BF99043A2C083C00B
:1067100082E0FF900007E0FEEF4EFFD082D083EFD3
:10672000F0227B007A4079807D027C00129BF790FA
:1067300040827418F07B007A4079847D007C0012DE
:106740009BF79040867450F07B007A4079887DFFFB
:106750007C0F129BF790408A741BF07B007A407983
:106760008C7D0B7C00129BF790408E7419F07B009F
:106770007A4079907D2F7C00129BF790409274189C
:10678000F07B007A4079947DEF7C00129BF790407B
:10679000967418F07CA87D7E7B007A4179007F0496
:1067A0007E001296A79043007406F0904200745247
:1067B000F07B0C7A01790F129C509046A1EFF07B90
:1067C000007A4279227D107C07129BF77B007A4287
:1067D00079207D517C12129BF7900004E4F07F1920
:1067E0007E007D007C00900000124A8A900000121A
:1067F0004A72D3EF9400EE9400404E900004E0FF04
:10680000EF64036044904225E0FFEF5401FF7E00F7
:10681000900004E0FEEE25E0FEEE4FFFEF5403FF94
:10682000900004EFF07FE07E017D007C0012930079
:10683000900000124A727BFF7AFF79FF78FF1248BE
:106840006A900000124A8A80A3900000124A72EFF8
:106850004E70057F03129A587B007A4079047D00C0
:106860007C01129BF79040047407F0904006E4F01E
:106870009040087448F0904004E4F0904009E4F03F
:106880009040017402F090400B7404F09043A2E039
:10689000FFEF443FFF9043A2EFF09043A1E0FFEFF2
:1068A0004401FF9043A1EFF09043A0E0FFEF44804C
:1068B000FF9043A0EFF022900004EEF0A3EFF090E1
:1068C0000006EDF0129CCE900008EFF0129CC490F0
:1068D0000009EEF0A3EFF0900009E0FEA3E0FF90C6
:1068E0000004E0FCA3E0FDED6F7002EC6E700302AB
:1068F0006A4B9043A2E0FFEF5402FF900007EFF0D5
:10690000900008E0FFEF705E900009E0FEA3E0FF5A
:10691000EF4E600C900004E0FEA3E0FFEF4E7046E7
:10692000900009E0FEA3E0FFEF4E701D7B027A406D
:106930007984900004E0FCA3E0FD129BF99040866E
:10694000E0FFEF54BFFFEFF022904086E0FFEF44FE
:1069500040FFEFF07B027A407984900004E0FCA3D2
:10696000E0FD129BF922900007E0FFEF606C904081
:1069700001E4F09040107402F0904014E4F0904074
:1069800008E0FFEF547FFFEFF0904086E0FFEF5408
:1069900008FF7E00EF4E600C900004E0FEA3E0FFD5
:1069A000EF4E70367B027A407902900009E0FCA33A
:1069B000E0FD129BF99040017407F0904001E0FF68
:1069C000EF5401FF7E00EF4E70F19043A2E0FFEF25
:1069D00054FDFFEFF0904001E4F09043A2E0FFEFA0
:1069E0005402FF7E00EF4E603A7B027A40790290BB
:1069F0000004E0FCA3E0FD129BF9900006E0FFEF2D
:106A000060047F0280027F00EF4401FF904001EFAD
:106A1000F0904001E0FFEF5401FF7E00EF4E602B4D
:106A200080EF227B027A407984900004E0FCA3E0AE
:106A3000FD129BF99043A2C083C082E0FF90000743
:106A4000E0FEEF4EFFD082D083EFF022900004EE04
:106A5000F0A3EFF0900006EDF0129CE2900008EF3A
:106A6000F0129CD8900009EEF0A3EFF0900009E03E
:106A7000FEA3E0FF900004E0FCA3E0FDED6F7002D8
:106A8000EC6E7003026BE09043A1E0FFEF5401FF56
:106A9000900007EFF0900008E0FFEF705E900009B3
:106AA000E0FEA3E0FFEF4E600C900004E0FEA3E0E8
:106AB000FFEF4E7046900009E0FEA3E0FFEF4E703E
:106AC0001D7B027A417900900004E0FCA3E0FD12F6
:106AD0009BF9904102E0FFEF54BFFFEFF02290419D
:106AE00002E0FFEF4440FFEFF07B027A4179009033
:106AF0000004E0FCA3E0FD129BF922900007E0FFF8
:106B0000EF606C904001E4F09040147401F090400C
:106B100010E4F0904008E0FFEF547FFFEFF0904169
:106B200002E0FFEF5408FF7E00EF4E600C9000047F
:106B3000E0FEA3E0FFEF4E70367B027A40790290D0
:106B40000009E0FCA3E0FD129BF99040017407F0FE
:106B5000904001E0FFEF5401FF7E00EF4E70F19096
:106B600043A1E0FFEF54FEFFEFF0904001E4F0900E
:106B700043A1E0FFEF5401FF7E00EF4E603A7B023D
:106B80007A407902900004E0FCA3E0FD129BF990AA
:106B90000006E0FFEF60047F0280027F00EF440107
:106BA000FF904001EFF0904001E0FFEF5401FF7EC5
:106BB00000EF4E602B80EF227B027A41790090003B
:106BC00004E0FCA3E0FD129BF99043A1C083C082C6
:106BD000E0FF900007E0FEEF4EFFD082D083EFF0A1
:106BE000229005147401F07F997E197D007C00903D
:106BF0000515124A8A7F007E007D007C00900519F1
:106C0000124A8A7FCC7ECC7D007C0090051D124A02
:106C10008A7F007E007D057C00900521124A8A7FD4
:106C2000007E007D007C00900525124A8A7FCC7E84
:106C3000CC7D007C00900529124A8A90052FE4F053
:106C4000900530E4F0900531E4F090056174FAF0BD
:106C500090054D7401F0754F00E54FC39402503A12
:106C60007FD07E8A7DFF7CFFAB4FEB25E025E024C3
:106C70004EF582E43405F583124A8A7F307E757DB5
:106C8000007C00AB4FEB25E025E02456F582E43490
:106C900005F583124A8A054F80BF754F00E54FC343
:106CA0009403502E7F007E007D807C3FAB4FEB2510
:106CB000E025E02441F582E43405F583124A8AAFE9
:106CC0004F74322FF582E43405F5837401F0054FDB
:106CD00080CB7F007E007D007C00900532E0F9A82B
:106CE00001124A25900535124A8A7F007E007D00F8
:106CF0007C00900533E0F9A801124A25900539126D
:106D00004A8A7F007E007D007C00900534E0F9A86F
:106D100001124A2590053D124A8A7FB87E0B7D00FC
:106D20007C00900532E0F9A801124A2590055EEE3C
:106D3000F0A3EFF090052D7405F0A374DCF090053E
:106D4000137401F07F007E00127924EF600E7F083B
:106D50007E00127924EF60047F0180027F00229080
:106D6000058DE0FF8F4E7B017A05798D90060DE051
:106D7000FEA3E0FFEF14FD1292A990060DE0FCA324
:106D8000E0FD748C2DF58274053CF583E0FEEFB5D3
:106D90000603D38001C34006900611E4F022E54EBD
:106DA000124AED6E51006E36016E44026E56036E4D
:106DB0005B046E73056E28066E9B096E870A6EC0B3
:106DC0000B6E10806E1C816DFE826DEC836DE6840F
:106DD0006DF2856DF8866E04876E0A896E168A6E6E
:106DE000228B00006ECB12887D026ECB128E840245
:106DF0006ECB129173026ECB1283DB026ECB127AD2
:106E0000FC026ECB12701B026ECB128DDA026ECBBF
:106E1000127ED9026ECB128F28026ECB12953102F0
:106E20006ECB1294D6026ECB90058EE0FEA3E0FFEF
:106E3000129447026ECB90058EE0FEA3E0FF125540
:106E400065026ECB90058EE0FEA3E0FF125221801A
:106E50007A1298DA807512620C80707F087E0012B8
:106E60007924EF60077F011292E1805F7F00129228
:106E7000E18058128570EF60077F011292E1804B2C
:106E80007F001292E18044126BE1EF60077F0112F4
:106E900092E180377F001292E180307F011292E10F
:106EA0007FE87E037D007C00128A177F00129B2CF6
:106EB0007FE87E037D007C00128A17129CB0800B55
:106EC0009005627401F07F011292E1900611E4F0E6
:106ED00022754D0012865AEF700302701AE54DC3F9
:106EE0009406400302701A127E228F4CE508124A63
:106EF000ED6F04006F3D016F5A026F8F036FF50451
:106F000000006ED4850C0B850D0C854C0DE50CB482
:106F10003A13E50DB43A0E750B00750C00750D00B3
:106F200075080180AFE50BB43FAAE50CB40DA5E5EB
:106F30000DB40AA07F007E0012944780979004BC95
:106F4000E0FFE54C6F6004E54C7004C2008002D2A3
:106F500000750A00750802026ED4854C0AE50AD352
:106F600094015009750A00750800026ED4E50AD331
:106F700094804009750A00750800026ED4750900F6
:106F8000200006750803026ED4750804026ED4AFA3
:106F900009743F2FF582E43406F583E54CF00509CA
:106FA000E509C3950A5003026ED420003AAF0A7E69
:106FB000007B017A06793FC003C002C0017B017AE1
:106FC00005798DA801AC02AD03D001D002D0031227
:106FD0004C4DAF0A7E0090060DEEF0A3EFF0900648
:106FE000117401F0126D5F750900750A00750800D3
:106FF000054D026ED4150AAF0AEF6003026ED47518
:107000000900750A007F01129AFC7F00129AFC7534
:107010000800054D026ED4026ED42290058EE0FE6B
:10702000A3E0FFEE3395E0FDFC8F528E518D508C26
:107030004F900590E0FEA3E0FFEE3395E0FDFC8F5E
:10704000568E558D548C53AF52AE51AD50AC4F90BF
:107050000532E0F9A801124A258F528E518D508CCD
:107060004F900506E0FEA3E0FFAB07AA06E4F9F89F
:107070009004FE124A72124877AB52AA51A950A846
:107080004FD31249D74020900506E0FEA3E0FFABA6
:1070900007AA06E4F9F89004FE124A721248778FA4
:1070A000528E518D508C4F900506E0FEA3E0FFE418
:1070B000FCFD9004F6124A7E12486AAB52AA51A90E
:1070C00050A84FC31249D7501C900506E0FEA3E01C
:1070D000FFE4FCFD9004F6124A7E12486A8F528E3D
:1070E000518D508C4F900506E0FCA3E0FDE4124466
:1070F000797B007A007900784712435EC004C005AE
:10710000C006C007AF56AE55AD54AC53EC12447434
:10711000A804A905AA06AB07D007D006D005D0045D
:107120001242551244B28F568E558D548C53E552EF
:107130002556FFE5513555FEE5503554FDE54F35F3
:1071400053FC900612124A8AC3E5529556FFE55148
:107150009555FEE5509554FDE54F9553FC90061668
:10716000124A8A227B007A4679E8129C50EF440149
:10717000FD7B007A4679E8129C5C1272A7905883D6
:10718000740AF07CA87DAC7B007A7679507F047E0F
:10719000001296A77B017A507903129C50EF4402AB
:1071A000FD7B017A507903129C5C7B017A50791344
:1071B000129C50EF4402FD7B017A507913129C5CC3
:1071C0009043A0E0FFEF4440FF9043A0EFF09043D6
:1071D000C2E0FFEF4410FF9043C2EFF07B087A1F3C
:1071E00079F0C003C002C0017B007A5179009000A1
:1071F00005124AE4D001D002D0037F0A7E00129328
:10720000E07CA87D887B007A5179C27F087E0012DD
:1072100096A77CA87D907B007A5179F07F0A7E004A
:107220001296A77CA87D9A7B007A5179107F0A7EFE
:10723000001296A77CA87DA47B007A5179227F0852
:107240007E001296A79044F47401F0904322E0FF70
:10725000EF4408FF904322EFF09046ECE0FFEFC3CD
:1072600094055006904689743AF090480074F1F005
:107270001267221291B57B007A4379A0C003C00245
:10728000C0017B007A4379B0900005124AE4D00136
:10729000D002D0037F0E7E001293E09043B0E0FF57
:1072A000EF54FDFFEFF0227F007E007D007C009018
:1072B00007B1124A8A9076007410F0907010740131
:1072C000F0907019E4F07B027A7879007DF87C0206
:1072D000129BF99078027401F090780374A3F07B0C
:1072E000027A787904C003C002C0017BFF7AA579D5
:1072F00086AF01AE02AD037C00EF54FFFFEE54FFFA
:10730000FEED5400FDEC5400FCAD07AC06D001D0FE
:1073100002D003129BF97B027A7879067D087C788B
:10732000129BF97B027A7679047D107C00129BF91E
:107330007B027A7679067D007C00129BF990702999
:10734000740BF0907039740CF0907059740FF090C9
:107350007069741FF09070797428F0907014740143
:10736000F0907018E0FFEF5401FF7E00EF4E70F1D7
:10737000907028E0FFEF5401FF7E00EF4E70F19017
:107380007038E0FFEF5401FF7E00EF4E70F1907017
:1073900058E0FFEF5401FF7E00EF4E70F1907068EF
:1073A000E0FFEF5401FF7E00EF4E70F1907078E047
:1073B000FFEF5401FF7E00EF4E70F17B087A0479F5
:1073C000C0C003C002C0017B017A51791090000552
:1073D000124AE4D001D002D0037F067E001293E06F
:1073E00022129BD990061B124A8A7F01129B6C3095
:1073F0000C05C20C126ED17F00125B3C300C05C232
:107400000C126ED17F01125B3C300C05C20C126E67
:10741000D17F02125B3C300C05C20C126ED17F0092
:107420001235A9300C05C20C126ED17F011235A99C
:10743000300C05C20C126ED112782E900562E0FF5E
:10744000EF7003D38001C340239006BFE0FEA3E0AA
:10745000FFEF64644E700B1263CF9006BFE4F0A39D
:10746000E4F09006BFE475F001124835300C05C217
:107470000C126ED17B017A067925C003C002C001CF
:107480007B017A057963A801AC02AD03D001D0027B
:10749000D0037E007F19124C4D7B017A05790AC01A
:1074A00003C002C0017B017A057984A801AC02AD5A
:1074B00003D001D002D0037E007F09124C4D7B0126
:1074C0007A067912C003C002C0017B017A05790AED
:1074D000A801AC02AD03D001D002D0037E007F0929
:1074E000124C4D300C05C20C126ED1129BD9900576
:1074F0007C124A8A7F407E4B7D4C7C0012991C2274
:1075000075930078007583467582E8E04401F000C9
:1075100090480074C0F07581569076BCE4F0A3F0FA
:10752000A3F0A3F0907010F0907019F0907020F01C
:107530009076007410F0907604E4F0A3F0A3F0A32A
:10754000F09078007800087400F0A37408F0E8B8B0
:10755000040274FFA3F0A37422F0A374BCF0A3741C
:1075600076F0A3E4F0A3E81475F008A4F0A3B8043F
:10757000D59070107401F0907014F07E707F181226
:107580002604907010F0EA9007A1F0022611750F02
:107590001F7510FD127164128F750275D8025DE9B6
:1075A000E493A3F8E493A34003F68001F208DFF428
:1075B0008029E493A3F85407240CC8C333C4540FA0
:1075C0004420C8834004F456800146F6DFE4800B73
:1075D00001020408102040809080D3E47E01936073
:1075E000BCA3FF543F30E509541FFEE493A36001A0
:1075F0000ECF54C025E060A840B8E493A3FAE4930A
:10760000A3F8E493A3C8C582C8CAC583CAF0A3C8B7
:10761000C582C8CAC583CADFE9DEE780BE90000F15
:10762000124AE4900012EDF0129659900012E0FF19
:10763000EFC39480400302771B1294A7EF6003020C
:10764000771390001374FFF090000F124AC490005B
:1076500018E4F0A37410F07F40127F89EF64076094
:107660000302770E904722E0FFEF5402FF7E00EF07
:107670004E60F1904722E0FFEF5402FF7E00EF4E94
:10768000600D904722E0FFEF1313543FFF80027F0D
:10769000FFEF7005900013E4F0900013E0FFEF702F
:1076A00067900012E0FFEFFD7C009007AFE0FB90D9
:1076B00007B0E0FF900018EFF07F401282B2EF6455
:1076C00007703D90001374FFF0904722E0FFEF54E5
:1076D00002FF7E00EF4E60F1904722E0FFEF540280
:1076E000FF7E00EF4E600D904722E0FFEF13135432
:1076F0003FFF80027FFFEF7015900013E4F0800ED3
:1077000090001374FFF0800690001374FFF012993C
:1077100048800E9000137404F080069000137401EA
:10772000F0900013E0FF22C0E0C083C082C085C09B
:1077300084C086758600C093759300C0D075D00054
:10774000C006C0079004B9E4F0A2AFE433FF900490
:10775000BAEFF0D2AF9044F474FDF0906468E0FFAB
:107760009004B8EFF09004B8E0FF9004B7EFF09009
:1077700004B8E0FFEF541EFF7E00EF4E6016900746
:1077800086E0FF9004B8E0FEEE541EFEEF4EFF9040
:107790000786EFF09004B8E0FFEF30E56690644CA8
:1077A000E0FF9004B7EFF09004B7E0FF900783E0AC
:1077B000FE74632EF582E43407F583EFF09004B98C
:1077C0007401F09004B9E0FFEF6038900761E0FFCA
:1077D000EF60069007857401F0900783E004F09055
:1077E0000783E0FFEFC394204005900783E4F09007
:1077F0000762E0FF900783E0FEEEB50706900761A1
:107800007401F09004B8E0FFEF30E50302775B907D
:1078100004BAE0FFEF24FF92AFD007D006D0D0D05B
:1078200093D086D084D085D082D083D0E032129D90
:107830003FEF700A300CF7C20C126ED180F0900648
:107840001FE0FEA3E0FFEF249AFFEE34F9FEEE33D3
:1078500095E0FDFC7BA07A077900780012488578D6
:1078600007124A11900580124A8A300C05C20C1288
:107870006ED17F007E007D007C00900580124A7EE4
:10788000D31249D75003027913128C0A300C05C267
:107890000C126ED1900621E0FEA3E0FFEF249AFFC8
:1078A000EE34F9FEEE3395E0FDFC7BAB7A647900B3
:1078B0007800124885780D124A11EE3395E0FDFCF0
:1078C0001288E5900631EEF0A3EFF0300C05C20C03
:1078D000126ED1900623E0FEA3E0FFEF249AFFEEA4
:1078E00034F9FEEE3395E0FDFC7BAB7A64790078E9
:1078F00000124885780D124A11EE3395E0FDFC1216
:10790000894B900633EEF0A3EFF0300C16C20C1248
:107910006ED122900631E4F0A3E4F0900633E4F057
:10792000A3E4F022900007EEF0A3EFF090000E74B5
:1079300001F07F00129A9C7F00129AAC129D497B45
:10794000017A057913C003C002C0017B017A047972
:10795000BBA801AC02AD03D001D002D0037E007FF2
:107960004F124C4D90000CE4F0A37405F090000A07
:10797000E4F0A3E4F090000CE0FEA3E0FF90000A26
:10798000E0FCA3E0FDC3ED9FEE6480F8EC6480981A
:10799000505A90000AE0FEA3E0FFEFC4F8540FC86D
:1079A00068FFEEC454F048FE7B017A057913E92F95
:1079B000F9EA3EFA900007E0FEA3E0FF90000AE03B
:1079C000FCA3E0FDAE05EE2FFD12761D900009EF41
:1079D000F0900009E0FFEF600790000EE4F0800CEB
:1079E00090000AE475F00112483580897B017A0421
:1079F00079BBC003C002C0017B017A057913A801DD
:107A0000AC02AD03D001D002D0037E007F4F124CF8
:107A10004D90000EE0FF22900003EFF090078DE400
:107A2000F0900003E0FFEF64016003027AFB904EE8
:107A3000007432F0904E027406F0904E037408F019
:107A4000904E04E4F0904E05E4F0904E06741FF062
:107A5000904E08E4F0904E09E4F0904E0AE4F09065
:107A60004E147401F09058847414F0905885740585
:107A7000F09058867416F0905887E4F090588A7405
:107A800044F090588B7448F090588C7401F09058E2
:107A90008E7402F090588F7422F09058907428F0F1
:107AA00090589174EBF07F52128E31905894745824
:107AB000F0905895E4F090589A7401F090589B74A7
:107AC00001F090589CE4F090589D740AF07F0012E9
:107AD000985C7F337E037D007C00900793124A8A76
:107AE0007D017F047E001268B77D017F157E001244
:107AF0006A4C7C9D7D557F1D1284EE2290058EE0A0
:107B0000FEA3E0FFEE3395E0FDFC900612124A8AD8
:107B1000900612124A72900532E0F9A801124A2525
:107B2000900612124A8A900590E0FEA3E0FFEE3321
:107B300095E0FDFC900616124A8A900616124A72CB
:107B4000900533E0F9A801124A25900616124A8AD8
:107B50009004F5E0FFEF60789004F6124A72900608
:107B600012124A7EC31249D7500C9004F6124A7280
:107B7000900612124A8A9004FA124A72900616125D
:107B80004A7EC31249D7500C9004FA124A729006EA
:107B900016124A8A9004FE124A72900612124A7E07
:107BA000D31249D7400C9004FE124A72900612126A
:107BB0004A8A900502124A72900616124A7ED31221
:107BC00049D7400C900502124A72900616124A8A52
:107BD00022129A30900004EFF0900787E0FF9000A7
:107BE00003EFF09043AAE0FFEF4401FFEFF0904372
:107BF000AAE0FFEF4410FFEFF09043BAE0FFEF443C
:107C000001FFEFF09043BAE0FFEF4410FFEFF09078
:107C100046F8E0FFEF4402FFEFF09046F9E0FFEF97
:107C20004402FFEFF0905891E0FFEF4403FFEFF0C4
:107C30007F037E001295049046F8E0FFEF54FDFFAD
:107C4000EFF09046F9E0FFEF54FDFFEFF09058772A
:107C5000E0FFEF4406FFEFF0905882747AF0904313
:107C6000A1E0FFEF4401FFEFF09043B1E0FFEF44EC
:107C700001FFEFF09043A2E0FFEF4402FFEFF0902E
:107C800043B2E0FFEF4402FFEFF09044DB7420F0DA
:107C90009044C37420F0900004E0FF1298C2229038
:107CA00007877401F0900792E4F07F101297117F1C
:107CB000101297327D077F1D128C6A9058967404BB
:107CC000F0905897E4F090589EE4F0905B07E0FF46
:107CD000EF4418FFEFF0905893E4F0905B88E4F0E5
:107CE000905B89E4F0905880740AF0905881E4F039
:107CF000905883E4F09058887412F0905889741367
:107D0000F090588DE4F0904E017414F090000874D7
:107D10000CF09000097401F07B007A807D6B7C8D03
:107D20007F02126007900787E0FFEF75F003A4243D
:107D30008EF582E43407F583E0FF904E0EEFF0906D
:107D40000787E0FFEF75F003A4248CF582E4340785
:107D5000F583E0FCA3E0FD7B027A4E790C129BF9DF
:107D6000900787E0FF127A1722900009EFF0900049
:107D70000AEDF090000BEBF090000F7401F0900012
:107D800009E0FFEFC394184003027E1C90000BE053
:107D9000FFEF5401FF7E00EF75F080A4FFAEF0907E
:107DA000000AE0FEEE547FFEEE4FFF900009E0FE79
:107DB00075F008EE907600124A96EFF090000DE014
:107DC000FFEF540FFF7E00EF75F010A4FFAEF090B0
:107DD000000CE0FEEE540FFEEE4FFF900009E0FEB7
:107DE00075F008EE907601124A96EFF090000EE0E2
:107DF000FFEF540FFF900009E0FE75F008EE90765B
:107E000002124A96EFF0900009E0FF75F008EF903B
:107E10007603124A96E4F090000FE4F090000FE031
:107E2000FF22900004E4F09044C87402F0900762CE
:107E3000E0FF900006EFF0900783E0FF900007EF6F
:107E4000F0900761E0FFEF700E900007E0FF9000F8
:107E500006E0FEEE6F6045900006E0FF74632FF5CC
:107E600082E43407F583E0FF900004EFF090000611
:107E7000E004F0900006E0FFEFC39420400590007E
:107E800006E4F0900006E0FF900762EFF0900761D3
:107E9000E0FFEF6038900761E4F08031906468E0C3
:107EA000FF900005EFF0900005E0FFEF30E51E9039
:107EB000644CE0FF900004EFF0900005E0FFEF5409
:107EC0001EFF7E00EF4E6005900004E4F09044C079
:107ED0007402F0900004E0FF2290058EE0FF90060F
:107EE0001AEFF0900531E0FFEF7018900625124A66
:107EF00072900612124A8A900629124A7290061649
:107F0000124A8A7F907E657D007C00900625124A89
:107F10007ED31249D750647F707E9A7DFF7CFF909C
:107F20000625124A7EC31249D740507F907E657D58
:107F3000007C00900629124A7ED31249D7503C7F1C
:107F4000707E9A7DFF7CFF900629124A7EC31249FB
:107F5000D740287F907E657D007C0090062D124AD8
:107F60007ED31249D750147F707E9A7DFF7CFF909C
:107F7000062D124A7EC31249D7500590061AE4F026
:107F800090061AE0FF129B0C22900014EFF0900074
:107F900015124AE490001A7407F0904722E0FFEFB0
:107FA0005402FF7E00EF4E607B90472074B6F09045
:107FB000472074D5F09047207402F0904722E0FFEC
:107FC000EF5402FF7E00EF4E7052900014E0FF90DD
:107FD0004720EFF090001BE4F0A3E4F0900018E0DD
:107FE000FEA3E0FF90001BE0FCA3E0FDC3ED9FECCF
:107FF0009E5037900015124AC490001BE0FEA3E08B
:10800000FFE92FF9EA3EFA1247DDFF904720EFF033
:1080100090001BE475F00112483580C090001A747E
:1080200009F0800690001A7404F090001AE0FF2214
:10803000900003EFF0900004ECF0A3EDF090000648
:10804000EBF09000087401F0900003E0FFEFC394A0
:1080500080507A900004E0FEA3E0FFEE54F0FE7F33
:1080600000EF4E7068900003E0FF7E08EF8EF0A4F2
:10807000FFAEF0EF2400FFEE3478FE900009EEF042
:10808000A3EFF0900009E0FEA3E0FFAA06A9077B9A
:1080900001900004E0FCA3E0FD129BF9900006E0D3
:1080A000FF900003E0FE75F008EE907802124A9609
:1080B000EFF0900007E0FF900003E0FE75F008EE9F
:1080C000907803124A96EFF0900008E4F0900008D0
:1080D000E0FF224207B580000108004206BF000110
