:40000000021415008F828E83E0540100000070F82278FFE4F6D8FD02147A900000EFF0E4F53FF540F541F54275430AC200121F87EF60057F00121FB7122067D2AF9044F4FC
:4000400074FDF0E4F53B754900754A00754B37900000E0FF70067EFF7FFF80008F4C7B017A0079017D2C7C011212FA8F3E900000E060021543E5436004E53E70C9E53E6046
:400080000302059FC3E5389407E53794004008900001E064016005753B04807E900004E0FE900003E0FDEEF53FEDF54074062540F5827400353FF583E0FE74052540F58228
:4000C0007400353FF583E0FDEEF53CEDF53DE5402407FFE4353FFED3EF9538EE95374005753B03803574072540F5827400353FF583E064176005753B04801F7B017A0079B1
:4001000001E5402404FDE4353FFC121C66EF653D7003EE653C6003753B08E4F539F53AE53B600302058E900005E0F536753B04900002E012088801553101823202083403A0
:400140007A3503883703D438020839040F3A05783B0000058B20000302058EE540453F600302058EFF120D84EF70047F0180027F00900005EFF0753900753A01E4F53B0260
:40018000058E20000302058EE5406401453F600302058EE536C39401400302058E900357E0FEA3E0F5828E83120842E4FBFA7901F81207188F24E536B5241E900357E0FE6B
:4001C000A3E0F5828E83120842E4FB7A01F9F81207187522008F238014E536D395244007E4F522F5238006752201752300E523900005F0E522A3F0A374FFF0E4A3F0F539B6
:40020000753A04F53B02058E900002E06434703C20000302058EE5406403453F600302058EE536C39440400FE536D3947F50087541007542108006754101754220AE41AF47
:40024000427D007B017A01792D1208FF20000302058EC3E5409403E53F9400500302058EE54024FDFFE53F34FFFE742D2542F974013541A801FC7D017B017A0079081209F7
:40028000E7E54024FDFFE53F34FFFEEF2542F542EE3541F541E536C394404012E536D3947F500B121DA8753F007540108006753F01754020E54265407004E541653F600369
:4002C00002036F900007E0FE900006E0FDEEF541EDF542E536D3943F506FE5367F00FEEF2542FFE5413E900259F0A3EFF0900357E0FEA3E0F5828E83120842E4FB7A01F9AA
:40030000F812071890025BEEF0A3EFF0900357E0FEA3E0F5828E83120842EFE4EF600A90025BE475F0011205DA90025BE0FEA3E0FFC390025AE09F900259E09E500B753BD5
:400340000AE4F541F54202058E7B017A01792D900263E53FF0A3E540F0AD42AC41AF36120F0BEF60047F0A80027F008F3B8003753B03E4F541F54202058E20000302058EC7
:40038000E4F541F54202059F20000302058EE5422540FFE541353FFED3EF942CEE9401502DE4F53BAE3FAF40742D2542F974013541A801FC7D017B017A0079051209E7E58F
:4003C000402542F542E53F3541F54102058E753B0302058EE540453F600302058E78257C00FD7BFF7A25791FFE7F081209E7D200753900753A08AE39AF3A78057C007D0105
:400400007B007A0079251209E7E4F53B02058E20000302058EE5406403453F600302058E900007E0FE900006E0FDEEF52FEDF530E536C394404038E536D3947F5031AE2F29
:40044000AF307C007D101208D28F348E338D328C318F4B8E4A8D498C48E4754F10F54EF54DF54CFF7E80FDFC12192C8F358050AE2FAF307C017D001208D2C004C005C006FC
:40048000C007AF36E4FCFDFEFBFA7901F812068DD003D002D001D0001206728F348E338D328C318F4B8E4A8D498C48E4F54F754E01F54DF54CFFFE7D10FC12192C8F35E588
:4004C00036D3943F5072AF367E007C207D001208D2E42FFFE43EFEED3408FDE43CFCC004A905AA06AB07AE2FAF307C007D201208D2D0001206728F348E338D328C31E4F5BA
:400500002DF52EC3E52E9420E52D9400502AE4E52E2534FFE52D3533FEE43532FDE43531A907AA06AB05121CF3EF2535F535052EE52E7002052D80CBE536702AAE2FAF301E
:40054000FCFD7BFFFAF9F8C31207C57019FD7F05120A3DC3E5359FF535E4FD7F06120A3DC3E5359FF535E535F404900005F0E4F53BF539753A018016E4FF120D84EF700604
:400580009046FA7480F01220718003753B057B017A007901853948853A49AF3B1215ED900000E0700302004330000302004322BB010689828A83E0225002E722BBFE02E399
:4005C0002289828A83E49322BB010689828A83F0225002F722BBFE01F322C5F0F8A3E028F0C5F0F8E582158270021583E038F022BB010A89828A83E0F5F0A3E022500687B6
:40060000F009E71922BBFE07E3F5F009E3192289828A83E493F5F074019322BB010789828A830205DA500B09C5F027F7C5F01937F722BBFE0D09F8E325F0F3C5F019E338A6
:40064000F322F889828A8374019325F0C5F0F8E4933822BB010A89828A83F0E5F0A3F0225006F709A7F01922BBFE06F3E5F009F31922EF2BFFEE3AFEED39FDEC38FC22C315
:40068000EF9BFFEE9AFEED99FDEC98FC22E88FF0A4CC8BF0A42CFCE98EF0A42CFC8AF0EDA42CFCEA8EF0A4CDA8F08BF0A42DCC3825F0FDE98FF0A42CCD35F0FCEB8EF0A47C
:4006C000FEA9F0EB8FF0A4CFC5F02ECD39FEE43CFCEAA42DCE35F0FDE43CFC2275F008758200EF2FFFEE33FECD33CDCC33CCC58233C5829BED9AEC99E58298400CF582EE4A
:400700009BFEED9AFDEC99FC0FD5F0D6E4CEFBE4CDFAE4CCF9A88222B800C1B90059BA002DEC8BF084CFCECDFCE5F0CBF97818EF2FFFEE33FEED33FDEC33FCEB33FB10D7C4
:4007400003994004EB99FB0FD8E5E4F9FA227818EF2FFFEE33FEED33FDEC33FCC933C910D7059BE99A4007EC9BFCE99AF90FD8E0E4C9FAE4CCFB2275F010EF2FFFEE33FE50
:40078000ED33FDCC33CCC833C810D7079BEC9AE899400AED9BFDEC9AFCE899F80FD5F0DAE4CDFBE4CCFAE4C8F922EF4BFFEE4AFEED49FDEC48FC22C3E49FFFE49EFEE49D2F
:4007C000FDE49CFC22EB9FF5F0EA9E42F0E99D42F0E89C45F022E8600FECC313FCED13FDEE13FEEF13FFD8F122E8600FEFC333FFEE33FEED33FDEC33FCD8F122BB010789DC
:40080000828A830208365005E9F8020A0DBBFE05E9F8020A1989828A83020842BB010789828A8302085E5005E9F8020A25BBFE05E9F8020A3122E0FCA3E0FDA3E0FEA3E06A
:40084000FF22E493FC740193FD740293FE740393FF22E0F8A3E0F9A3E0FAA3E0FB22ECF0A3EDF0A3EEF0A3EFF022E0FBA3E0FAA3E0F922EBF0A3EAF0A3E9F022E493FB74E9
:400880000193FA740293F922D083D082F8E4937012740193700DA3A393F8740193F5828883E4737402936860EFA3A3A380DFE5092582F582E5083583F583B50804858209B7
:4008C0002210AF06858209F50822858209F508D2AF22EC8EF0A4CCC5F0CCCDF8EFA4CEC5F02DFDE43CFCE8A42EC8C5F03DFDE43CFCEFA4FFE5F028FEE43DFDE43CFC22EF51
:400900004E6012EF60010EEDBB010B89828A83F0A3DFFCDEFA2289F05007F709DFFCA9F022BBFEFCF309DFFCA9F022E709F608DFFA8046E709F208DFFA803E88828C83E7AA
:4009400009F0A3DFFA8032E309F608DFFA806EE309F208DFFA806688828C83E309F0A3DFFA805A89828A83E0A3F608DFFA804E89828A83E0A3F208DFFA804280D280FA80F3
:40098000C680D4805580F28029801080A680EA809A80A880DA80E280CA802988848C8589828A83E493A30586F0A30586DFF5DEF3800B89828A83E493A3F608DFF9ECFAA95D
:4009C000F0EDFB2288848C8589828A83E0A30586F0A30586DFF6DEF480E389828A83E493A3F208DFF980D688F0EF60010E4E60CD88F0ED2402B4040050C3F582EB2402B455
:400A0000040050B9232345822390097B73E6FC08E6FD08E6FE08E6FF22E2FC08E2FD08E2FE08E2FF22ECF608EDF608EEF608EFF622ECF208EDF208EEF208EFF22290025D03
:400A4000EDF0AB079002627402F0E4FFFEFDFCA312085EEB1208880A79010AA6020ACB030AF0040B15050B40060B8F070B6B080BB3090BD70A00000C0190025DE0FF7E005E
:400A80007C017D001208D21207B7EF24C0FFEE34FFFEED3410FDE43CFCA312085E9002627401F0020C0C90025DE0FF7E007C017D001208D2C374C39FFF74FF9EFE74109DBD
:400AC000FDE49CFCA312085E020C0C90025DE0FF7E007C017D001208D2C374C79FFF74FF9EFE74109DFDE49CFCA312085E020C0C90025DE0FF7E007C017D001208D2C37433
:400B0000CB9FFF74FF9EFE74109DFDE49CFCA312085E020C0C90025DE0FF7E007C017D001208D2C374D09FFF74FF9EFE74109DFDE49CFCA312085E9002627401F0020C0C60
:400B400090025DE0FF7E007C017D001208D2C374D19FFF74FF9EFE74109DFDE49CFCA312085E9002627401F0020C0C90025DE0FF7E007C017D001208D2C374D69FFF74FF16
:400B80009EFE74109DFDE49CFCA312085E807D90025DE0FF7E007C017D001208D2C374D29FFF74FF9EFE74109DFDE49CFCA312085E805990025DE0FF7E007C017D00120811
:400BC000D2C374D49FFF74FF9EFE74109DFDE49CFCA312085E803590025DE0FF7E007C017D001208D2C374D89FFF74FF9EFE74109DFDE49CFCA312085E9002627404F08082
:400C00000BE4FFFEFDFC90025E12085E900262E0B4011990025E120836A907AA06AB05121CF3E4FCFDFE90026312085E900262E06402705C90025E120836EF2401FFE43E91
:400C4000FEE43DFDE43CA907AA06AB05121CF3E4FCFDFE90026312085E900263120852C000C001C002C00390025E120836A907AA06AB05121CF3E4FCFDFE78081207E9D0BA
:400C800003D002D001D0001207AA90026312085E900262E064046003020D7D90025E120836EF2403FFE43EFEE43DFDE43CA907AA06AB05121CF3E4FCFDFE90026312085E37
:400CC000900263120852C000C001C002C00390025E120836EF2402FFE43EFEE43DFDE43CA907AA06AB05121CF3E4FCFDFE78081207E9D003D002D001D0001207AA9002634F
:400D000012085E900263120852C000C001C002C00390025E120836EF2401FFE43EFEE43DFDE43CA907AA06AB05121CF3E4FCFDFE78101207E9D003D002D001D0001207AA84
:400D400090026312085E900263120852C000C001C002C00390025E120836A907AA06AB05121CF3E4FCFDFE78181207E9D003D002D001D0001207AA90026312085E90026356
:400D8000120836228F44AD447F03120A3DEF2401FFE43EFEE43DFDE43CFCE4FB7A01F9F812068DC004C005C006C007AD447F04120A3DD003D002D001D0001206728F4C8EA9
:400DC0004B8D4A8C49C201E4F54DAD447F03120A3DEF2401FFE43EFEE43DFDE43CFCE4FB7A01F9F812068D8F488E478D468C45AF4CAE4BAD4AAC49AB48AA47A946A845C337
:400E00001207C55032854882854783E493F54E6005F46002D201E54E254DF54DAF48AE47AD46AC45E47B01FAF9F81206728F488E478D468C4580B8AD447F03120A3DEF2479
:400E400001FFE43EFEE43DFDE43CFCE4FB7A01F9F812068D78031207D68F488E478D468C45E47FC07EFFFDFCAB4CAA4BA94AA849C31207C57007FF7E20FDFC800DAF4CAE21
:400E80004BAD4AAC4978031207D68F4C8E4B8D4A8C49AF4CAE4BAD4AAC49AB48AA47A946A845C31207C55039E42548FFE43547FEE5463408FDE43545A907AA06AB05121CB9
:400EC000F3EF254DF54DAF48AE47AD46AC45E47B01FAF9F81206728F488E478D468C4580B1E54DF404F54DAD447F01120A3DA804A905AA06AB07AF4DE4FCFDFEC31207C5CC
:400F000070032001037F06227F002290025EECF0A3EDF0A312087390025DEFF0E4900265F0EFD3943F500E90025DE0940140069002657401F090025DE0FFD3947F4006903A
:400F400002657401F0EFC39440400CEFD3944140069002657401F0EFD3943F501E90025EE0FEA3E0FFE4FCFDFB7A01F9F8C31207C5502F9002657401F08027D390025FE03C
:400F8000948090025EE0940040069002657401F0900263E07004A3E0641060069002657401F090026012086AE94A4B700590026504F0900265E0600302108A121EFEEF606E
:400FC0000302108490025EE0FCA3E0FDA312086A900263E0FFA3E090026CCFF0A3EFF090025DE0FF1211DE900265EFF06407600302107F904722E0540270087F01FE121EF6
:401000006480F0904722E054026009E0FF1313543FFF80027FFFEF7006900265F0800690026574FFF0900265E0705490025DE0FFA3E0FCA3E0FD900353E0FBA3E090026AD9
:40104000F0121A90900265EFF064077032904722E0540270087F01FE121E6480F0904722E054026009E0FF1313543FFF80027FFFEF7006900265F0800690026574FFF0124B
:40108000205180069002657404F0900265E0FF227B007A4679E8121CF3EF4401FD7B007A4679E8122045E4F52CE52CC3940A502CE52C75F005A42461F582E43424AF82F571
:4010C000218F22F58312087C8F82852183740393FC740493FD121F6E052C80CDE4F52CE52CC394015046E52C75F007A42413F582E43425AF82F5238F24F58312087C8B25E1
:401100008A2689278F82852383740393FE7404938E28F529740593F52A740693F52BAD29AC28FFAE2A121EB8052C80B37E207F92121DD97B017A507903121CF3EF4402FD3B
:401140007B017A5079031220457B017A507913121CF3EF4402FD7B017A5079131220459043A0E04440F09043C2E04410F07C207D827B007A5179127F087E00121EB87C2053
:401180007D8A7B007A5179227F087E00121EB89044F47401F0904322E04408F09046ECE0C394055006904689743AF090480074F1F012150690480074B1F0121F1D7B007A41
:4011C0004379A0C00179B0900005120873D0017F0E7E00121D749043B0E054FDF022900266EFF0A3ECF0A3EDF0A312087390026E7407F0904722E0540270030212EE904756
:401200002074B6F074D5F07402F0904722E0540260030212E6900266E0904720F0E490026FF0A3F090026CE0FEA3E0FF90026FE0FCA3E0FDC39FEC9E501F90026912086A8D
:40124000E92DF9EA3CFA1205AF904720F090026FE475F0011205DA80CB90026CE064017002A3E060030212F4900266E0FFD3943F40030212F47E007C207D001208D2E42F0A
:40128000FFE43EFEED3408FDE43CFCC004A905AA06AB07A3E0FEA3E0FF7C007D201208D2D00012067290027112085EE490026FF0A3F090026FE0FEA3E0FFC39420EE94005A
:4012C0005032E4FCFDA3120852120672A907AA06AB05121CF3904720EFF090026FE475F0011205DA80CC90026E7409F0800690026E7404F090026EE0FF228B448A4589469E
:401300008C478D48755505E4F54DF54EE54C75F00AA4FFC3E54E9FE54D95F0503B121B34EF6022121B347553008F54E47F19FEFDFC1218C7121B34D3EF9554E4955350E366
:40134000E4F5558013E47F01FEFDFC1218C7054EE54E7002054D80B4AB49AA4AA94BE4F5F0120653E4F54FF550121B34EFD394005003021412121B347551008F52AB49AA8D
:401380004AA94BE5518552F012061BAB49AA4AA94B1205F0C39548E5F09547505FE4F54DF54EC3E54E9552E54D95515025121C1CAB44E5462550F9E545354FFAEF1205C8C1
:4013C0000550E5507002054F054EE54E7002054D80D0AB44E55024FFFFE54F34FFFEE5462FF9E5453EFA1205AF64177003021369E47F05FEFDFC1218C7021369AB49AA4ABB
:40140000A94B1205F0C39552FFE5F095518FF0120653AF552275930078007583467582E8E04401F0009046ECE0F99046FAE0FA90034BF0B903225420B40012B8001AEA9014
:401440001FFFF07401901FFEF09046F6F0901FFEE06005901FFFE0FA90480074C0F0758156121EDE90000078007920E4F0A3D8FCD9FAEA90034BF002001175081F7509FD1F
:401480001210900214C1022079E493A3F8E493A34003F68001F208DFF48029E493A3F85407240CC8C333C4540F4420C8834004F456800146F6DFE4800B0102040810204063
:4014C00080901B83E47E019360BCA3FF543F30E509541FFEE493A360010ECF54C025E060A840B8E493A3FAE493A3F8E493A3C8C582C8CAC583CAF0A3C8C582C8CAC583CABE
:40150000DFE9DEE780BE7B007A4079807D337C001220279040827418F09043007402F09040007408F09042007403F07B0C7A017908121CF39046A1EFF07B007A4279227D68
:40154000087C001220277B007A4279207D517C12122027E4900004F07F19FEFDFC90000012085E900000120836D3EF9400EE9400403B900004E0FF64036032904225E05440
:4015800001FEEF25E04E5403900004F0E47FE07E01FDFC121D0090000012083674FFFBFAF9F812067290000012085E80B6900000120836EF4E70057F0312207F7B007A402A
:4015C00079047D007C011220279040047407F0904006E4F09040087448F0904004E4F09040017402F09043A2E04401F0228B458A46894774011205C8AB452547F9E43546AB
:40160000FAEF1205C8E549AB45E5472402F9E43546FAE5491205C8E548FFAB45E5472403F9E43546FAEF1205C8AB45AA46A947E5492404FDE43548FC121C668E4A8F4BEFCF
:40164000AB45E5492404FDE43548FCE5472DF9E5463CFAEF1205C8E54AFFAB45E5492405FDE43548FCE5472DF9E5463CFAEF1205C8AB45E5492406FFE43548FEE5472FF9FF
:40168000E5463EFA74171205C8E5492407FDE43548FC755100755200755348755496AB45AA46A947121BD122C0E0C083C082C085C084C086758600C093759300C0D075D09F
:4016C00000C001C002C003C006C007E4FBA2AF33FAD2AF9044F474FDF090646CE0FFFE541EF960069002FDE049F0EF30E54590644AE0FE9002F9E02478F582E43402F583E5
:40170000EEF07B01EB602C900276E060069002FC7401F09002F9E004F0E0C394404002E4F0900277E0FE9002F9E0B506069002767401F0EF20E5A2AF02EA24FF92AFD007BF
:40174000D006D003D002D001D0D0D093D086D084D085D082D083D0E032752106E4FF120D84EF7002F521E4F54BF54AF549F548900357E0FEA3E0F5828E831208428F4F8E82
:401780004E8D4D8C4CE4FFFE7D10FC12192C900355E0FCA3E0F5828C83E493FEC3EF9EFFF404FFB50612900357E0FEA3E0F5828E83120842EF4E70057F00121FB79046FAFB
:4017C000E054C064406004E52160099046FAE4F0FF12001A12205D22C0E0C083C082C085C084C086758600C093759300C0D075D000C006C007A2AFE433FFD2AF9044F4742E
:40180000FDF09002FAE0FE9002B8E06E602C90646EE020E2259002B8E0C394404002E4F09002B8E024B9F582E43402F583E090644DF09002B8E004F080C8EF24FF92AFD043
:4018400007D006D0D0D093D086D084D085D082D083D0E032A9079002FAE0FF9002B8E0FEEFC39E501AEE24FFFDE434FFFCEF7A00B50508EAB504047D0180027D00800CC346
:40188000EF9EB43F047D0180027D00ED70C8EEB5070D90646EE020E20690644DE9F022EFC394404002E4FF74B92FF582E43402F583E9F00F9002FAEFF090646EE030E10609
:4018C0009044D07402F02290FFFC1208AE12085E850883850982120836D3EF9400EE9480402E90034C120836121D00850883850982C083C082120836E42FFFEE3480FEEDC9
:4019000034FFFDEC34FFFCD082D08312085E80C090034212083685088385098212085212068D121D009000041208AE228F478E468D458C44E4F550D3E54F9400E54E940025
:40194000404BAF4FAE4EAD4DAC4C74FFFBFAF9F81206728F4F8E4E8D4D8C4CE547254BFFE546354AFEE5453549FDE5443548FCEF254FFFEE354EFEED354DFDEC354CA907BD
:40198000AA06AB051205AF2550F55080AAAF5022121FE190025E74FFF0121EFEEF703B7F01121E35EF6407702C7B017A0379537D021219E6EFB40215E490025EF090472228
:4019C000E0540270107F01FE121E6480F0904722E0540260D4122051800690025E7404F090025EE0FF2290025F120873900262EDF0E4A3F0900262E0FFA3E0C39F50379065
:401A00004722E054016003D38001C340097F017E00121E6480E9904720E0FF90025F12086A900263E029F9E43AFAEF1205C8900263E004F080BE900263E0FF2290025EEC49
:401A4000F0A3EDF090025DEFF0541F25E0FFE433FEE42FFFEE3444FAA9077B0112201A900260EEF0A3EFF090025DE075F002A42400FFE5F03444FAA9077B01A3E0FEA3E0EC
:401A8000FFFDAC06122029900260E0FEA3E0FF22900267ECF0A3EDF0AC077D07904722E05402603B90472074B6F074D8F07405F0904722E054027023904720ECF09002670F
:401AC000E0904720F0900267E0A3E0904720F0EBF090026AE0904720F080067D0980027D04AF0522121FE1121EFEEF703B121F3A90025EEFF06407702A904722E0540270A1
:401B0000087F01FE121E6480F0904722E054026009E0FF1313543FFF80027FFFEF700490025EF0122051800690025E7404F090025EE0FF229044C87401F09002F9E0FE905D
:401B40000277E0B5060E900276E060047F40802CE4FF80289002F9E0FE900277E0C39E500BE0FE9002F9E0C39EFF8010900277E0FEC374409EFE9002F9E02EFF9044C07420
:401B800001F022420355251A420357251B430350000000440347016E360044034200005DC04103461844034C2EE000004102FB004102B8004102FA004102FD00410277003B
:401BC0004102F900410276004102FC0041035B00008B4C8A4D894E8C4F8D50E4F555F556121E07C3E5569550E555954F501DAB4CE54E2556F9E54D3555FA1205AFFF121874
:401C0000540556E5567002055580D8AB51AA52A953E54F8550F01206537F00229044C87401F0900277E0FE9002F9E0FD900276E07004EE6D602474782EF582E43402F583EF
:401C4000E0FF0EEEC394404002E4FE900277EEF0900276E06009E4F0800590644AE0FF9044C07401F0228B4C8A4D894EE4F54FF550D3ED9400EC94004025AB4CED24FFFFD4
:401C8000EC34FFFEE54E2FF9E54D3EFA1205AF2550F550E4354FF54FED1D70011C80D2E550F4FFE54FF4FEEF2401FFE43EFE227C167DA8E4FF121A3C7D07E4FF121F55E4B7
:401CC0009002FDF090648A7469F090648C7420F07C177DD87F01121A3C7D077F01121F5590642E7406F090643E7447F090648E7402F0228B938A838982E0759300FF22000A
:401D0000EC4D4E700D78FCEF24E950032840FD2200007BF178DA0000EF28FF78FFEE38FEED38FDEC38FC50E7EF2BFFEE38FEED38FDEC38FC40F22205020304121FCC9002FD
:401D40005DEFF090649AE04420F090649CE04410F09044C07401F090649EE04410F09044D87402F09044C0F012203690025DE0FF121F9F22758600EF4E6027EF60010E75B2
:401D80009300900005E0F595A3E0F585A3E0F5848B938A838982E0A30586F0A31586DFF6DEF4E4F593F59522121FCC9043A0E04408F09043B0E04408F090470174C8F090A8
:401DC00043ACE04410F09043BCE04410F0904700E0542060F8121F9F22ACEAADA08E838F82E493F9601CA3E493F5EAA3E493F5A0A3E49360F1FAA3E493F8A3E493F2DAF6BC
:401E0000D9E48DA08CEA22121FCC90649AE04401F0E054FEF0121F9F9044C87401F0E4900277F09002F9F0900276F09002FCF09044C004F0227E07904722E05402601F9052
:401E4000472074B6F074E1F0740EF0904722E054027007904720EFF080067E0980027E04AF062200EEFA900346E0F88FF0A4FFAEF0E88AF0A42EFEE5F03400FDEF24C9FF5A
:401E800078FFEE38FEED38FDE438FC5003021D0022121FCC90649DE04401F0E054FEF0121F9F9044C87402F0E49002B8F09002FAF09044C07402F022758600EF4E601BEFCA
:401EC00060010E8C838D828B958A858984E493A30586F0A31586DFF5DEF3E4F595229046FAE054C064807015F0FD7F02120A3DEF4E600AE4FD7F02120A3D122009229002CC
:401F0000667404F0121FCC90035BE0700704F0E4900266F0121F9F900266E0FF227B0C7A0179CF121CF3EF540790586EF0EFC4540FA3F09058767444F0227F07904722E0DD
:401F40005402600E90472074B6F074E0F0740DF080027F0422AC07ED540775F020A4FFEC541F2480F582E43444F583EFF022EC4D6011ED60010C8B938A838982E4F0A3DDB0
:401F8000FCDCFA75930022121AE490025DEFF0700812199090025DEFF090025DE0FF22EF54016004D2AF8002C2AFEF5402FF9044F4E054FD4FF02290FFFF1208AEEFF090D7
:401FC00046EA7401F09000011208AE229044F4E0F84402F0E85402FF10AF012274014FFF22121FCC9043A0E04408F09043B0E04408F0121F9F229002FBE07009121CAF9087
:4020000002FB7401F0121D3B2290034BE0FA8E838F827400758101738B938A838982E0FFA3E0FE759300228B938A838982EDF0A3ECF0759300229043A2E04401F09043B26F
:40204000E04401F0228B938A838982EDF075930022121FCCE490035BF0121F9F229046FA7480F012207122121FF6121E07121E91229046F6E04401F02212175980FE2280DC
:40208000FE22007F7B007B00000030D8C800D800000016005205082309121098118814200064047E3F8A698C3A8E0F010101E204010301E6020105028702E008010604B82E
:4020C00002BE01D804DF010107021B02A702010A088501890195019901B101BF01D904DF01010B4F00400106038808010A040B111028130219641A041B0A202021082230E9
:40210000274028282A022B022E033080310232103304340836203708382239803A083C283E084028410843824A024B0152045B4068286A016B027090712072108D408E104D
:402140008F809042910493109621980199029B0C9D649E049F80A004A102A202A490A520A702AB01B021B405B602B744C00FC20FC40ECA0FCC6FCE6FD00FD208D608E0083A
:40218000E801010C4C0001021608E70A180E3F101E120114C6163918481C88208824DD262228232ADC2CC8301F320834E03A22541A560458045B045F018008824284F88698
:4021C000018704880F89028AF08D068EC792849308943996C698109C20A020A101A43FA6C0A906AA08AC30B031B106B308B501B6FFB702B982BE40BF11C062C101C5E0C6DA
:40220000CBC80EC9FFCAFFCBFFCEF0CF44D00CD804D904DA04DF01E6C0EA40EB02010D46002901100210030B04010709080209260A310D220E11108012481388151016502C
:402240001780180219021C081D021E201F20200421012208230128402920320238C839A43A083B10414042084921502053405E205F026540674887409088912093089502C2
:40228000978098409B4A9C029D259E049F04A420A504A72AB001B301C0DFC2FFC4FFCA05CC01CE0ED00CD204D6A0D8B0010E4E040906D007230B080C0C0D210E710F0E1048
:4022C00014141016AC170C18DC1A221B201E0321102410264029212A202B062D0C2F2330E03310350F361F37203A023B203F444004464049FF4A074BFF4C404D204EF04F8A
:4023000005500854015604580459045A045B045F01604061A862406320871F89198B0691019304950997029A01A506A719A919AA01AB06AF0FB201B310B507B708B908BB65
:4023400020BE04D804D904DB04DF01010F3C004404040504084809200A010B800E0810081210160418C01A011F042130224425102604270A280829212A802F2A303031047A
:402380003402370438883A103D284101500C5210581059015A886380680169046A206B406F0171407304821083408550868089048B04C005C24FC446CA7DCCC6CE6ED00101
:4023C000D60FD801E40C014005322035808180CC30E2200141038620A620E6400144058301870188C0E004E40401450F0C0857025B046401660193029889A040A301B009C2
:40240000C204D607D801E801EC0401460D8702900893029888A040A301A702AB04B40CB601E808EC02EE08014705900893029888A040A301014C0E5004544057015808607D
:40244000806702900893029888A040A301D406D607D80201500300010C010E01015101000F005100001000513000400051C000100051F000100100000A00010A800580018E
:40248000140008000140000A00014C000200015000002000008080207D050000040800130C0400030204200A031410130C0C7300088000400800004043003C404F003000DE
:4024C0000000734000303F0FC0800008002028000040003402010005C0000E12FFFFFF62A0F0410C00000000000210040404040000000100000000000040020010301000CE
:4025000010101200000000000000000000000000000000010A002493008061000026006930091E031E010100000000000000000000000000000000000000000000000000BD
:40254000000000000000000000000000000000000000000000000000000000000000000000000000000000000000000000000000000000000000000000000000000000005B
:40258000000000000000000000000000000000000000000000000000000000000000000000000000000000000000000000000000000000000000000000000000000000001B
:4025C00000000000000000000000000000000000000000000000000000000000000000000000000000000000000000000000000000000000000000000000000000000000DB
:40260000027500008F828E83E0540100000070F82278FFE4F6D8FD02758E900452124AE47BFF7A58795AC003C002C001900452124AC4A801AC02AD03D001D002D003124DAA
:402640002B900452124AC4C003C002C0017BFF7A58795B90048A124AE4D001D002D0031287A8900452124AC4C003C002C0017BFF7A58795E90048A124AE4D001D002D0036B
:402680001287A8900452124AC4C003C002C0017BFF7A58797190048A124AE4D001D002D0031287A8900452124AC4C003C002C0017BFF7A58797E90048A124AE4D001D002B2
:4026C000D0031287A8900452124AC4C003C002C0017BFF7A58798490048A124AE4D001D002D0031287A87B017A047955C003C002C0017BFF7A58799290048A124AE49004C5
:40270000BCE0FF7E0090048DEEF0A3EFF0D001D002D003124E03900452124AC4C003C002C0017B017A04795590048A124AE4D001D002D0031287A87B017A047955C003C0B2
:4027400002C0017BFF7A58799B90048A124AE490048DE4F0A37403F0D001D002D003124E03900452124AC4C003C002C0017B017A04795590048A124AE4D001D002D0031206
:4027800087A87B017A047955C003C002C0017BFF7A5879B390048A124AE490063EE0FF7E0090048DEEF0A3EFF0D001D002D003124E03900452124AC4C003C002C0017B01B3
:4027C0007A04795590048A124AE4D001D002D0031287A8900452124AC4C003C002C0017BFF7A58795B90048A124AE4D001D002D0031287A8900452124AC4C003C002C001AB
:402800007BFF7A5879C390048A124AE4D001D002D0031287A8900452124AC4C003C002C0017BFF7A5879D090048A124AE4D001D002D0031287A8754F00755000C3E55094F0
:4028400002E54F6480948040030228D17B017A047955C003C002C0017BFF7A5879E390048A124AE4E550AE4F7802C333CE33CED8F9FF74842FF58274053EF583124A72AA52
:402880004FAB5074DA2BF58274043AF583E0F9A801124A1190048DEEF0A3EFF0D001D002D003124E03900452124AC4C003C002C0017B017A04795590048A124AE4D001D058
:4028C00002D0031287A80550E5507002054F02283C900452124AC4C003C002C0017BFF7A58795B90048A124AE4D001D002D0031287A87B017A047955C003C002C0017BFF03
:402900007A5879E790048A124AE4D001D002D003124E0390058CE0FFEF5403FFEF60237B017A047955C003C002C0017BFF7A5879F790048A124AE4D001D002D0031287A898
:4029400080217B017A047955C003C002C0017BFF7A5879FD90048A124AE4D001D002D0031287A8900452124AC4C003C002C0017B017A04795590048A124AE4D001D002D0EC
:40298000031287A8900452124AC4C003C002C0017BFF7A59790290048A124AE4D001D002D0031287A8900452124AC4C003C002C0017BFF7A59791890048A124AE4D001D081
:4029C00002D0031287A8754F00755000C3E5509403E54F648094804003022A947B017A047955C003C002C0017BFF7A59792890048A124AE4E5502401FFE54F3400FE9004CD
:402A00008DEEF0A3EFF0E550AE4F7802C333CE33CED8F9FF74632FF58274053EF583124A72AA4FAB5074DA2BF58274043AF583E0F9A801124A1190048FEEF0A3EFF0D0019D
:402A4000D002D003124E03900452124AC4C003C002C0017B017A04795590048A124AE4D001D002D0031287A8900452124AC4C003C002C0017BFF7A58795B90048A124AE45B
:402A8000D001D002D0031287A80550E5507002054F0229CC7B017A047955C003C002C0017BFF7A59793190048A124AE4900580124A7290048D124A8AD001D002D003124EF5
:402AC00003900452124AC4C003C002C0017B017A04795590048A124AE4D001D002D0031287A8900452124AC4C003C002C0017BFF7A58795B90048A124AE4D001D002D0036A
:402B00001287A87B017A047955C003C002C0017BFF7A59794390048A124AE490056FE0FEA3E0FFEE3395E0FDFC90048D124A8AD001D002D003124E03900452124AC4C00343
:402B4000C002C0017B017A04795590048A124AE4D001D002D0031287A8900452124AC4C003C002C0017BFF7A58795B90048A124AE4D001D002D0031287A87B017A047955AC
:402B8000C003C002C0017BFF7A59795790048A124AE4900571E0FEA3E0FFEE3395E0FDFC90048D124A8AD001D002D003124E03900452124AC4C003C002C0017B017A0479C0
:402BC0005590048A124AE4D001D002D0031287A8900452124AC4C003C002C0017BFF7A58795B90048A124AE4D001D002D0031287A8900452124AC4C003C002C0017BFF7AAA
:402C000059796B90048A124AE4D001D002D0031287A8900452124AC4C003C002C0017BFF7A59798190048A124AE4D001D002D0031287A87B017A047955C003C002C0017B11
:402C4000FF7A59799390048A124AE49004BD124A72EC1244747B007A007980784712435E90048D124A8AD001D002D003124E03900452124AC4C003C002C0017B017A047944
:402C80005590048A124AE4D001D002D0031287A87B017A047955C003C002C0017BFF7A59799D90048A124AE49004C1124A72EC1244747B007A007980784712435E90048D81
:402CC000124A8AD001D002D003124E03900452124AC4C003C002C0017B017A04795590048A124AE4D001D002D0031287A87B017A047955C003C002C0017BFF7A5979A790E1
:402D0000048A124AE49004C5124A72EC1244747B007A007980784712435E90048D124A8AD001D002D003124E03900452124AC4C003C002C0017B017A04795590048A124A1A
:402D4000E4D001D002D0031287A8900452124AC4C003C002C0017BFF7A5979B190048A124AE4D001D002D0031287A87B017A047955C003C002C0017BFF7A59799390048A5B
:402D8000124AE49004C9124A72EC1244747B007A007980784712435E90048D124A8AD001D002D003124E03900452124AC4C003C002C0017B017A04795590048A124AE4D070
:402DC00001D002D0031287A87B017A047955C003C002C0017BFF7A59799D90048A124AE49004CD124A72EC1244747B007A007980784712435E90048D124A8AD001D002D05E
:402E000003124E03900452124AC4C003C002C0017B017A04795590048A124AE4D001D002D0031287A87B017A047955C003C002C0017BFF7A5979A790048A124AE49004D1C5
:402E4000124A72EC1244747B007A007980784712435E90048D124A8AD001D002D003124E03900452124AC4C003C002C0017B017A04795590048A124AE4D001D002D0031294
:402E800087A8900452124AC4C003C002C0017BFF7A58795B90048A124AE4D001D002D0031287A89004D7E0FFEFB40323900452124AC4C003C002C0017BFF7A5979CB9004DE
:402EC0008A124AE4D001D002D0031287A88021900452124AC4C003C002C0017BFF7A5979E590048A124AE4D001D002D0031287A89004D8E0FFEF124AED2F03002F26010099
:402F0000002F47900452124AC4C003C002C0017BFF7A5979FE90048A124AE4D001D002D0031287A88021900452124AC4C003C002C0017BFF7A5A791090048A124AE4D00103
:402F4000D002D0031287A8900452124AC4C003C002C0017BFF7A5A792790048A124AE4D001D002D0031287A89004D9E0FFEF124AED2F81002FA4012FC7022FEA03000030D0
:402F80000B900452124AC4C003C002C0017BFF7A5A793690048A124AE4D001D002D0031287A88067900452124AC4C003C002C0017BFF7A5A794190048A124AE4D001D0026C
:402FC000D0031287A88044900452124AC4C003C002C0017BFF7A5A794790048A124AE4D001D002D0031287A88021900452124AC4C003C002C0017BFF7A5A795190048A1255
:403000004AE4D001D002D0031287A8900452124AC4C003C002C0017BFF7A5A796890048A124AE4D001D002D0031287A8754F00755000C3E5509403E54F6480948040030292
:4030400030DC7B017A047955C003C002C0017BFF7A59792890048A124AE4E5502401FFE54F3400FE90048DEEF0A3EFF0AE4FAF5074DA2FF58274043EF583E0FF7E0090049B
:403080008FEEF0A3EFF0D001D002D003124E03900452124AC4C003C002C0017B017A04795590048A124AE4D001D002D0031287A8900452124AC4C003C002C0017BFF7A5887
:4030C000795B90048A124AE4D001D002D0031287A80550E5507002054F023032900452124AC4C003C002C0017BFF7A5A797D90048A124AE4D001D002D0031287A8754F00CA
:40310000755000C3E5509403E54F6480948040030231C97B017A047955C003C002C0017BFF7A5A799390048A124AE4E5502401FFE54F3400FE90048DEEF0A3EFF0E550AEE7
:403140004F7802C333CE33CED8F9FF74DD2FF58274043EF583124A72AA4FAB5074DA2BF58274043AF583E0F9A801124A1190048F124A8AD001D002D003124E039004521227
:403180004AC4C003C002C0017B017A04795590048A124AE4D001D002D0031287A8900452124AC4C003C002C0017BFF7A58795B90048A124AE4D001D002D0031287A8055008
:4031C000E5507002054F023103900452124AC4C003C002C0017BFF7A5A799D90048A124AE4D001D002D0031287A8754F00755000C3E5509403E54F6480948040030232A17D
:403200007B017A047955C003C002C0017BFF7A5A79B790048A124AE4E5502401FFE54F3400FE90048DEEF0A3EFF0E550AE4F7802C333CE33CED8F9FF74E92FF58274043E6A
:40324000F583124A7290048F124A8AD001D002D003124E03900452124AC4C003C002C0017B017A04795590048A124AE4D001D002D0031287A8900452124AC4C003C002C0B2
:40328000017BFF7A58795B90048A124AE4D001D002D0031287A80550E5507002054F0231F07B017A047955C003C002C0017BFF7A5A79C090048A124AE490054DE0FF7E0033
:4032C00090048DEEF0A3EFF0D001D002D003124E03900452124AC4C003C002C0017B017A04795590048A124AE4D001D002D0031287A8900452124AC4C003C002C0017BFF85
:403300007A58795B90048A124AE4D001D002D0031287A8754F00755000C3E5509402E54F6480948040030234367B017A047955C003C002C0017BFF7A5A79DA90048A124AB7
:40334000E4E5502401FFE54F3400FE90048DEEF0A3EFF0E550AE4F7802C333CE33CED8F9FF744E2FF58274053EF583124A72AA4FAB5074322BF58274053AF583E0F9A8019A
:40338000124A1190048F124A8AD001D002D003124E03900452124AC4C003C002C0017B017A04795590048A124AE4D001D002D0031287A87B017A047955C003C002C0017B0C
:4033C000FF7A5B790090048A124AE4E550AE4F7802C333CE33CED8F9FF74562FF58274053EF583124A72AA4FAB5074322BF58274053AF583E0F9A801124A1190048D124AA1
:403400008AD001D002D003124E03900452124AC4C003C002C0017B017A04795590048A124AE4D001D002D0031287A80550E5507002054F0233197B017A047955C003C00215
:40344000C0017BFF7A5B790D90048A124AE490055EE0FEA3E0FF900532E0FDEFA805088006CEA2E713CE13D8F8FF90048DEEF0A3EFF0D001D002D003124E03900452124A81
:40348000C4C003C002C0017B017A04795590048A124AE4D001D002D0031287A8900452124AC4C003C002C0017BFF7A58795B90048A124AE4D001D002D0031287A87B017AAE
:4034C000047955C003C002C0017BFF7A5B791F90048A124AE490052DE0FEA3E0FF90048DEEF0A3EFF0D001D002D003124E03900452124AC4C003C002C0017B017A047955DF
:4035000090048A124AE4D001D002D0031287A8900452124AC4C003C002C0017BFF7A58795B90048A124AE4D001D002D0031287A87B017A047955C003C002C0017BFF7A5B98
:40354000793190048A124AE490057C124A7E90061B124A7212487790048D124A8AD001D002D003124E03900452124AC4C003C002C0017B017A04795590048A124AE4D001E5
:40358000D002D0031287A8900452124AC4C003C002C0017BFF7A58795B90048A124AE4D001D002D0031287A822900003EFF0900003E0FF8F237F007E007D007C008F2B8EAE
:4035C0002A8D298C289004BD124A728F378E368D358C349004C1124A728F3B8E3A8D398C389004C5124A728F3F8E3E8D3D8C3C9004C9124A728F438E428D418C409004CDB2
:40360000124A728F478E468D458C449004D1124A728F4B8E4A8D498C48E523C3940240030242549004D9E0FFEF124AED363C0040F8013E0C0238CF0300004168AF23EF2591
:40364000E025E02425F582E43406F583124A7EAF23EF25E025E0240AF582E43405F583124A721248778F2F8E2E8D2D8C2C300C05C20C126ED1AF23EF25E025E024C9F58216
:40368000E43406F583C083C082124A72EF252FFFEE352EFEED352DFDEC352CFCD082D083124A8AAF23EF25E025E024C9F582E43406F583124A727BA07A8679017800C312FB
:4036C00049D7501D7FA07E867D017C00AB23EB25E025E024C9F582E43406F583124A8A803CAF23EF25E025E024C9F582E43406F583124A727B607A7979FE78FFD31249D76D
:40370000401B7F607E797DFE7CFFAB23EB25E025E024C9F582E43406F583124A8A300C05C20C126ED17F007E007D007C008F2B8E2A8D298C287F007E007D007C00AB37AA0B
:4037400036A935A834C31249D760737F007E007D027C00AB2FAA2EA92DA82CD31249D750167F007E007DFE7CFFAB2FAA2EA92DA82CC31249D75027AF2FAE2EAD2DAC2C7833
:4037800008124A11AB37AA36A935A8341248857808124A118F2B8E2A8D298C288020AF2FAE2EAD2DAC2CAB37AA36A935A8341248857810124A118F2B8E2A8D298C28300CFC
:4037C00005C20C126ED17F007E007D007C00AB3BAA3AA939A838C31249D76040AF3BAE3AAD39AC387806124A11AB23EB25E025E024C9F582E43406F583124A7E1248857819
:403800000A124A11E52B2FFFE52A3EFEE5293DFDE5283CFC8F2B8E2A8D298C287F007E007D007C00AB3FAA3EA93DA83CC31249D76051AF23EF25E025E02425F582E434063E
:40384000F583124A7EAF23EF25E025E02463F582E43405F583124A72124877AB3FAA3EA93DA83C1248857810124A11E52B2FFFE52A3EFEE5293DFDE5283CFC8F2B8E2A8D74
:40388000298C28300C05C20C126ED1E52370207F007E007D007C00AB2BAA2AA929A828C31249D74005D20E024168C20E0241687F007E007D007C00AB2BAA2AA929A828C3AC
:4038C0001249D74005D20F024168C20F024168AF23EF25E025E02425F582E43406F583124A7EAF23EF25E025E0240AF582E43405F583124A721248778F2F8E2E8D2D8C2CBE
:403900007F007E007D007C008F278E268D258C247F007E007D007C00AB37AA36A935A834C31249D770030239BC7F007E007D027C00AB2FAA2EA92DA82CD31249D750167FB6
:40394000007E007DFE7CFFAB2FAA2EA92DA82CC31249D75037AF2FAE2EAD2DAC2C7808124A11AB37AA36A935A8341248857808124A11E5272FFFE5263EFEE5253DFDE5248C
:403980003CFC8F278E268D258C248030AF2FAE2EAD2DAC2CAB37AA36A935A8341248857810124A11E5272FFFE5263EFEE5253DFDE5243CFC8F278E268D258C247F007E00C8
:4039C0007D007C00AB3BAA3AA939A838C31249D7603BAF23EF25E025E024C9F582E43406F583124A72AB3BAA3AA939A8381248857810124A11E5272FFFE5263EFEE5253DF7
:403A0000FDE5243CFC8F278E268D258C247F007E007D007C00AB3FAA3EA93DA83CC31249D76051AF23EF25E025E02425F582E43406F583124A7EAF23EF25E025E02463F502
:403A400082E43405F583124A72124877AB3FAA3EA93DA83C1248857810124A11E5272FFFE5263EFEE5253DFDE5243CFC8F278E268D258C24E52370207F007E007D007C00C0
:403A8000AB27AA26A925A824C31249D74005430E018023530EFE801E7F007E007D007C00AB27AA26A925A824C31249D74005430E028003530EFDAE26AF27129C68EE339588
:403AC000E0FDFC8F278E268D258C249004D5E0FEA3E0FFEE3395E0FDFCAB27AA26A925A824D31249D740169004D5E0FEA3E0FFEE3395E0FDFC8F278E268D258C24AF23EF4D
:403B000025E02431F582E43406F583E0FEA3E0FFAB07AA06EA3395E0F9F8C3E5279BFFE5269AFEE52599FDE52498FC8F338E328D318C307F007E007D007C008F2B8E2A8D9F
:403B4000298C287F007E007D007C009004C9124A7EC31249D7602EAF33AE32AD31AC309004C9124A7E1248857810124A11E52B2FFFE52A3EFEE5293DFDE5283CFC8F2B8ED3
:403B80002A8D298C287F007E007D007C009004CD124A7EC31249D76039AF23EF25E025E024D1F582E43406F583124A729004CD124A7E1248857810124A11E52B2FFFE52ABB
:403BC0003EFEE5293DFDE5283CFC8F2B8E2A8D298C287F007E007D007C009004D1124A7EC31249D76059AF23EF25E02431F582E43406F583E0FEA3E0FFAB07AA06EA3395A1
:403C0000E0F9F8AF23EF25E025E024C1F582E43406F583124A721248779004D1124A7E1248857810124A11E52B2FFFE52A3EFEE5293DFDE5283CFC8F2B8E2A8D298C287FD3
:403C4000007E007D007C00AB2BAA2AA929A828C31249D750127F007E007D007C008F2B8E2A8D298C2880267F647E007D007C00AB2BAA2AA929A828D31249D740107F647E56
:403C8000007D007C008F2B8E2A8D298C28AF23EF25E025E024C9F582E43406F583C083C082124A72EF252FFFEE352EFEED352DFDEC352CFCD082D083124A8AAF23EF25E0A0
:403CC00025E024D1F582E43406F583C083C082124A72EF2533FFEE3532FEED3531FDEC3530FCD082D083124A8AAF23EF25E025E024C9F582E43406F583124A727BA07A86FB
:403D000079017800C31249D7501D7FA07E867D017C00AB23EB25E025E024C9F582E43406F583124A8A803CAF23EF25E025E024C9F582E43406F583124A727B607A7979FEDB
:403D400078FFD31249D7401B7F607E797DFE7CFFAB23EB25E025E024C9F582E43406F583124A8AAF23EF25E025E024D1F582E43406F583124A727BA07A8679017800C31280
:403D800049D7501D7FA07E867D017C00AB23EB25E025E024D1F582E43406F583124A8A803CAF23EF25E025E024D1F582E43406F583124A727B607A7979FE78FFD31249D796
:403DC000401B7F607E797DFE7CFFAB23EB25E025E024D1F582E43406F583124A8AAF23EF25E02431F582E43406F583E0FEA3E0FFEE3395E0FDFCAB23EB25E025E024C1F53D
:403E000082E43406F583124A8A024168AF23EF25E025E0240AF582E43405F583124A72AB2374322BF582E43405F583E0F9A801124A118F278E268D258C249004D5E0FEA3B6
:403E4000E0FFEE3395E0FDFCAB27AA26A925A824D31249D740169004D5E0FEA3E0FFEE3395E0FDFC8F278E268D258C24AE26AF27129C68AD23ED25E02431F582E43406F5B8
:403E800083E0FCA3E0FDC3EF9DFFEE9CFEEE3395E0FDFC8F338E328D318C30AF23EF25E025E024D1F582E43406F583C083C082124A72EF2533FFEE3532FEED3531FDEC3598
:403EC00030FCD082D083124A8AAF23EF25E025E024D1F582E43406F583124A727BA07A8679017800C31249D7501D7FA07E867D017C00AB23EB25E025E024D1F582E4340697
:403F0000F583124A8A803CAF23EF25E025E024D1F582E43406F583124A727B007A0079007800D31249D7401B7F007E007D007C00AB23EB25E025E024D1F582E43406F583CB
:403F4000124A8A7F007E007D007C008F2B8E2A8D298C287F007E007D007C00AB43AA42A941A840C31249D76030AF33AE32AD31AC30AB37AA36A935A8341248857810124AA7
:403F800011E52B2FFFE52A3EFEE5293DFDE5283CFC8F2B8E2A8D298C287F007E007D007C00AB47AA46A945A844C31249D76040AF23EF25E025E024D1F582E43406F58312D8
:403FC0004A727806124A11AB47AA46A945A844124885780A124A11E52B2FFFE52A3EFEE5293DFDE5283CFC8F2B8E2A8D298C287F007E007D007C00AB4BAA4AA949A848C319
:404000001249D7605BAF23EF25E02431F582E43406F583E0FEA3E0FFAB07AA06EA3395E0F9F8AF23EF25E025E024C1F582E43406F583124A72124877AB4BAA4AA949A848FE
:404040001248857810124A11E52B2FFFE52A3EFEE5293DFDE5283CFC8F2B8E2A8D298C287F007E007D007C00AB2BAA2AA929A828C31249D750107F007E007D007C008F2B33
:404080008E2A8D298C28AF23EF25E02431F582E43406F583E0FEA3E0FFEE3395E0FDFCAB23EB25E025E024C1F582E43406F583124A8AE52370227F007E007D007C00AB27CA
:4040C000AA26A925A824C31249D74006430E01024168530EFE0241687F007E007D007C00AB27AA26A925A824C31249D74005430E028075530EFD8070AF23EF25E025E02423
:404100000AF582E43405F583124A72AB2374322BF582E43405F583E0F9A801124A118F2B8E2A8D298C28E52370207F007E007D007C00AB2BAA2AA929A828C31249D7400511
:40414000430E018023530EFE801E7F007E007D007C00AB2BAA2AA929A828C31249D74005430E028003530EFD300C05C20C126ED17F647E007D007C00AB2BAA2AA929A82897
:40418000D31249D740107F647E007D007C008F2B8E2A8D298C287F9C7EFF7DFF7CFFAB2BAA2AA929A828C31249D750107F9C7EFF7DFF7CFF8F2B8E2A8D298C28300C05C2D6
:4041C0000C126ED19004D9E0FFEF64016039AF2BAE2AAD29AC28780A124A257B647A007900780012912FA804A905AA06AB0790063EE0FFE4FCFDFE124885780A124A118F07
:404200002B8E2A8D298C28300E11300F077F03129B5C80167F01129B5C800F300F077F02129B5C80057F00129B5C300C05C20C126ED1E523700CAE2AAF2B129C68129A9C92
:40424000800AAE2AAF2B129C68129AAC300C05C20C126ED122EC4D6011E8497017ED33EC3304600DE4FCFFFEFD22E933E8330470F802451E1244E958046009E4CC24815053
:4042800006285009024528284003024525C0E0EB4A7044B98006D0E0FB024514EF4E701CBD8008EBFFEAFEE9FD80EBE98DF0A4FEE5F002433EE9CDF9EAFEEBFFEF89F0A445
:4042C000FCE5F0CE89F0A42EFFE435F0CD89F0A42DFEE435F08067EF4E7005BD80D780C3EF8BF0A4ACF0EE8BF0A42CFCE435F0F8EF8AF0A42CE5F038FCE433CB8DF0A42C6D
:40430000FCE5F03BF8EE8AF0A42CFCE5F038F8E433CF89F0A42CFCE5F038CF3400CE89F0A42FFFE5F03EFEE433C98DF0A42EFEE5F039CD8AF0A42FFFE5F03EFEE43DFD3325
:40434000D0E0FB50070BBB000F024528EC2CFCEF33FFEE33FEED33FD024500024528EC5D046005E85904700302451E1244E9580460F6EC4860F2EC7004FDFEFF22C860DB0B
:404380002481C85009C398600250060245259850CAF582E9294B4A7005AB8202451475F0007C1A7880C3EF9BEE9AED99400DC3EF9BFFEE9AFEED99FDE842F0DC23ACF0D076
:4043C000E0FFD0E0FED0E0FDAB8220E7101BEB60BAEC2CFCEF33FFEE33FEED33FD024500E803F830E705C0F075F000EF2FFFEE33FEED33FD40B830E7C280AA74F8CC6480E3
:40440000CCC86480C8F58204604FC3EB9FF5F0EA9E42F0E99D42F0E89C45F0603C501DE5825FFFE582D313CB5BCBF42B5582FB50280ABA002409B9002008801DE5825BFB14
:40444000E582D313CF5FCFF4C3132F5582FF50090EBE00050DBD00010CC3EB9FF5F0EA9E42F0E99D42F0E89C45F06007CC4820E701B3EC2275F020800E75F010800575F00F
:40448000087D007E007F003392D530D5031249C9EC334010EF33FFEE33FEED33FDEC33FCD5F0ED22E5F0247EA2D513CC92E7CDCEFF22EDD2E7CD33EC3392D524814006E4FC
:4044C000FFFEFDFC22FCE4CFCECDCC24E0501174FF80EDC3CC13CCCD13CDCE13CECF13CF0470F030D5DE0249C9E9D2E7C933E833F892D5EDD2E7CD33EC33FC5002B2D5229F
:40450000EC30E7100FBF000C0EBE00080DBD00040BEB6014A2D5EB13FCED92E7FD2274FFFCFDFEFF22E480F8A2D574FF13FC7D80E480EFF920E73624F950037907E4F4243A
:4045400002FBE582158270021583DBF6E024FB501BE96014E4F0E582158270021583E004F0B40A08E4F0D9EE7401F00A22C2D522ED33EC3392D5FA602AB4FF33EDC2E77B22
:40458000FF60067A457995E4227A45799E20D5047A457999224E614E002B494E46002D494E4600E47A08F0A3DAFC7B00740722C083C082ECC0E0EDC0E0EEC0E0EFC0E0EA66
:4045C00075F010A4CAABF075F04DA42BFBE435F0FCEA2410FAEB34C5FBEC34D9FCEDC2E7FF75F056A4F42411C5F0F434C58FF0A42AE5F03BE43CF020E71412479DD0E0FFE4
:40460000D0E0FED0E0FDD0E0FC12435E8014F40412479DD0E0FFD0E0FED0E0FDD0E0FC124255D082D083E0FAEDD2E7CD33EC332482FBE4C3CF33CFCE33CECD33CD33DBF3E5
:404640007B0775F00A846004F0A31B0AE5F0F0A38FF0740AA4FFACF08EF0740AA42CFEACF050010C8DF0740AA42CFDE435F0F0A3DBDE74072202451EE86480F8E933E83328
:4046800060110460F0ED33EC337009E8FCE9FDEAFEEBFF220460DED3EB9FEA9EE99DE8C2E78CF0C2F795F0400CE8CCF8E9CDF9EACEFAEBCFFB1244E985D0F0580470032046
:4046C000D5B3E80470075002B2D502452892D5EC0460F7E4CCC0E0C398F8603B94186008400DD0E0FB024500E4FBFAC9FC8028E830E406E4C9FBE4CAFCE830E305E4C9CA37
:40470000CBFCE854076010F8C3E913F9EA13FAEB13FBEC13FCD8F130F52FC3E49CFCEF9BFFEE9AFEED99FDD0E0FBEF4E4D4C701222DB03024525EC2CFCEF33FFEE33FEEDC6
:4047400033FDED30E7EB024500EF2BFFEE3AFEED39FDD0E0FB50130BBB0003024528ED13FDEE13FEEF13FFEC13FC0245003F8000004120000042C80000447A0000461C4062
:404780000047C35000497424004B1896804CBEBC205A0E1BCA6753C21C749DC5AEFB60065407601C23231247CBEB543860091247B71247C6124255ECF8EDF9EEFAEFCB220E
:4047C000EB1247C680F1543803241C90476DFE93FC0EEE93FD0EEE930ECE93FF22BB010689828A83E0225002E722BBFE02E32289828A83E49322BB010CE58229F582E58314
:404800003AF583E0225006E92582F8E622BBFE06E92582F8E222E58229F582E5833AF583E49322BB010689828A83F0225002F722BBFE01F322C5F0F8A3E028F0C5F0F8E5D9
:4048400082158270021583E038F022BB010A89828A83F0E5F0A3F0225006F709A7F01922BBFE06F3E5F009F31922EF2BFFEE3AFEED39FDEC38FC22C3EF9BFFEE9AFEED99B1
:40488000FDEC98FC22E88FF0A4CC8BF0A42CFCE98EF0A42CFC8AF0EDA42CFCEA8EF0A4CDA8F08BF0A42DCC3825F0FDE98FF0A42CCD35F0FCEB8EF0A4FEA9F0EB8FF0A4CF5B
:4048C000C5F02ECD39FEE43CFCEAA42DCE35F0FDE43CFC2275F008758200EF2FFFEE33FECD33CDCC33CCC58233C5829BED9AEC99E58298400CF582EE9BFEED9AFDEC99FCDE
:404900000FD5F0D6E4CEFBE4CDFAE4CCF9A88222B800C1B90059BA002DEC8BF084CFCECDFCE5F0CBF97818EF2FFFEE33FEED33FDEC33FCEB33FB10D703994004EB99FB0FB2
:40494000D8E5E4F9FA227818EF2FFFEE33FEED33FDEC33FCC933C910D7059BE99A4007EC9BFCE99AF90FD8E0E4C9FAE4CCFB2275F010EF2FFFEE33FEED33FDCC33CCC83399
:40498000C810D7079BEC9AE899400AED9BFDEC9AFCE899F80FD5F0DAE4CDFBE4CCFAE4C8F922EF5BFFEE5AFEED59FDEC58FC22EF4BFFEE4AFEED49FDEC48FC22CFF4CFCE82
:4049C000F4CECDF4CDCCF4CC22C3E49FFFE49EFEE49DFDE49CFC22EB9FF5F0EA9E42F0E99D42F0EC6480C864809845F022EB9FF5F0EA9E42F0E99D42F0E89C45F022E86088
:404A00000FECC313FCED13FDEE13FEEF13FFD8F122E86010ECA2E713FCED13FDEE13FEEF13FFD8F022E8600FEFC333FFEE33FEED33FDEC33FCD8F122BB010789828A8302A4
:404A40004A725005E9F8024D5EBBFE05E9F8024D6A89828A83024D76BB010789828A83024A8A5005E9F8024D86BBFE05E9F8024D9222E0FCA3E0FDA3E0FEA3E0FF22E0F8AB
:404A8000A3E0F9A3E0FAA3E0FB22ECF0A3EDF0A3EEF0A3EFF022A42582F582E5F03583F58322E6FB08E6FA08E6F922FAE6FB0808E625F0F9F618E63AFAF622EBF608EAF639
:404AC00008E9F622E0FBA3E0FAA3E0F922F8E0FBA3A3E0F925F0F0E582158270021583E0FA38F022EBF0A3EAF0A3E9F022D083D082F8E4937012740193700DA3A393F8743E
:404B00000193F5828883E4737402936860EFA3A3A380DFD083D082F8E4937012740193700DA3A393F8740193F5828883E473740293B5F0067403936860E9A3A3A3A380D8E0
:404B4000E5102582F582E50F3583F583B50F048582102210AF06858210F50F22858210F50FD2AF22EC8EF0A4CCC5F0CCCDF8EFA4CEC5F02DFDE43CFCE8A42EC8C5F03DFD50
:404B8000E43CFCEFA4FFE5F028FEE43DFDE43CFC22E709F608DFFA8046E709F208DFFA803E88828C83E709F0A3DFFA8032E309F608DFFA806EE309F208DFFA806688828CCF
:404BC00083E309F0A3DFFA805A89828A83E0A3F608DFFA804E89828A83E0A3F208DFFA804280D280FA80C680D4805580F28029801080A680EA809A80A880DA80E280CA8052
:404C00002988848C8589828A83E493A30586F0A30586DFF5DEF3800B89828A83E493A3F608DFF9ECFAA9F0EDFB2288848C8589828A83E0A30586F0A30586DFF6DEF480E327
:404C400089828A83E493A3F208DFF980D688F0EF60010E4E60CD88F0ED2402B4040050C3F582EB2402B4040050B92323458223904BE173E709F60870FA8046E709F2087013
:404C8000FA803E88828C83E709F0A370FA8074E309F60870FA806CE309F20870FA806488828C83E309F0A370FA805889828A83E0A3F60870FA804C89828A83E0A3F2087020
:404CC000FA804080D280FA80C680D4805180F28027801080A680EA809A80A880DA80E280CA802788848C8589828A83E493A30586F0A3058670F5800B89828A83E493A3F68B
:404D00000870F9ECFAA9F0EDFB2288848C8589828A83E0A30586F0A3058670F680E589828A83E493A3F20870F980D888F0ED2402B4040050CEF582EB2402B4040050C42388
:404D400023458223904CC373A3F8E0C5F025F0F0E582158270021583E0C838F0E822E6FC08E6FD08E6FE08E6FF22E2FC08E2FD08E2FE08E2FF22E493FC740193FD740293FC
:404D8000FE740393FF22ECF608EDF608EEF608EFF622ECF208EDF208EEF208EFF222E551248AF582E43404F583E005512290048730080390048AE475F001124ACD0247DDF6
:404DC0002001E97F2ED2018018EF540F2490D43440D4FF30050BEF24BFB41A0050032461FFE552600215520555E5557002055430080E900487E475F001124ACDEF0248232A
:404E00000296807403D2088003E4C208F551900487124AE4E4F552F554F555E55260077F20124DE180F57553FFC202C201C203C204C206C207C209124DADFF700D3008058D
:404E40007F00124DF2AF55AE5422B4255FC2D5C205124DADFF24D0B40A00501A75F00A785230D50508B6FF0106C6A426F620D5047002D20480D924CFB41A00EF5004C2E5AB
:404E8000D2050250E4D20280C6D20180C0D20380BCD2D580BAD20680B47F20124DE12003077401B5520040F1124D9EFF124DE1024E1BD209D2078095124D9EFB124D9EFAA5
:404EC000124D9EF94A4B700679E27A517BFF20032EE552602A7E008E827583001247F660060EEE655370F0C2D5EBC0E0EAC0E0E9C0E0EE125145D0E0F9D0E0FAD0E0FB12D5
:404F000047DDFF60AAEBC0E0EAC0E0E9C0E0124DE1D0E02401F9D0E03400FAD0E0FBE5530460DCD553D98087D20380A212512760F7E553700104124533A953600DE553607F
:404F40000914F5531251CFEF60F3EA30E702F404C3995079EAF425530430E701E404F553800D12512760C1EA05532553124533EA9004B6F030E701E4255304D5530420062C
:404F80000114125145E4C0E01251CF9004B6E0601320E70714F0124DC9802204F0D0E014C0E07F00124DC9E5536007124DC01553800B300603124DC0D0E0024E1BD0E0042E
:404FC00080C4125127609EE553041245339004B6EAF0E553200602600104240412514574FF04C0E01251CF124DC9E5532006026003124DC0D0E0B553E87F45124DD39004E9
:40500000B6E07F2B30E7047F2DF404C0E0124DE1D0E075F00A84C0F0124DCAD0E0124DCA024E1B791080027908C207C2098008D2D5790A8004790AC2D5E553047002F5536B
:40504000E4FAFDFEFF124D9EFC7B08200213124D9EFD7B1030010A124D9EFE124D9EFF7B20EC3382D592D55013C3E43001069FFFE49EFEE42002039DFDE49CFCE4CBF8C291
:4050800002EC700CCFCECDCCE824F8F870F38017C3EF33FFEE33FEED33FDEC33FCEB33FB994002FB0FD8E9EB300205F8D0E0C448B202C0E00AEC4D4E4F78207B0070C2EA27
:4050C000B5530040BCC0E0125147D0F0D0E0200204C4C0E0C4B202C0F0124DCAD0F0D5F0EB024E1B124AED4EB8535023584E894C4E854250274F502F44502F494E9E4350C7
:4051000035554F62464FC2454F2C475202504E8D2D4E912E4EB42B4E95234EB22051EB2A4E4D4800004EACE553B4FF03755306124D9EFC124D9EFD124D9EFE124D9EFF9051
:4051400004AF024570790AA2D5200414300609B910020404B9080104A2D52007025001042003689203B552005034C0E07F203004197F30A20372077206500F12519EC20325
:40518000C207C206C2097F30800F300603E9C0E0124DE1300603D0E0F9D0E0B552CC3006177F30B9100C124DE17F583005077F788003B90803124DE13003057F2D024DE138
:4051C0007F202009F87F2B2007F322920380CF7F00B40700500B24AFF582E43404F583E0FF22286E756C6C2900D202124D9E3002F8C202785230D50108F6024E4D2D5043BB
:405200004958124D9E2403B405004001E49051FD93124DD2743A124DD2D204755204025023900004EEF0A3EFF09000067402F0900004E0FEA3E0FFEF8EF0124B13527100B0
:4052400000528700015341000253570003536D000453C90005542F0006547F0007549500085383000B5510000C52E40012000055299004BCE0FF900007EFF090001AE4F09D
:40528000A37403F00255299004BD124A72EC1244747B007A007980784712435E900007124A8A9004C1124A72EC1244747B007A007980784712435E90000B124A8A9004C59F
:4052C000124A72EC1244747B007A007980784712435E90000F124A8A90001AE4F0A3740EF00255299004C9124A72EC1244747B007A007980784712435E900007124A8A90E4
:4053000004CD124A72EC1244747B007A007980784712435E90000B124A8A9004D1124A72EC1244747B007A007980784712435E90000F124A8A90001AE4F0A3740EF002557F
:40534000299004D7E0FF900007EFF090001AE4F0A37403F00255299004D8E0FF900007EFF090001AE4F0A37403F00255299004D9E0FF900007EFF090001AE4F0A37403F029
:4053800002552990001CE4F090001CE0FFEFC39403502A90001CE0FF74DA2FF582E43404F583E0FF90001CE0FE74072EF582E43400F583EFF090001CE004F080CB90001A1F
:4053C000E4F0A37405F002552990001CE4F090001CE0FFEFC39403504A90001CE0FFEF25E025E024DDF582E43404F583124A7290001CE0FB74DA2BF582E43404F583E0F91D
:40540000A801124A1190001CE0FDED25E02407F582E43400F583EEF0A3EFF090001CE004F080AB90001AE4F0A37408F002552990001CE4F090001CE0FFEFC3940350349029
:40544000001CE0FFEF25E025E024E9F582E43404F583124A7290001CE0FBEB25E025E02407F582E43400F583124A8A90001CE004F080C190001AE4F0A3740EF0025529905A
:4054800004F5E0FF900007EFF090001AE4F0A37403F002552990001CE4F090001CE0FFEFC39402506090001CE0FFEF25E025E024F6F582E43404F583124A7290001CE0FB95
:4054C000EB75F008A42407F582E43400F583124A8A90001CE0FFEF25E025E024FEF582E43404F583124A7290001CE0FBEB75F008A4240BF582E43400F583124A8A90001CCE
:40550000E004F0809590001AE4F0A37412F080199004D5E0FEA3E0FF900007EEF0A3EFF090001AE4F0A37404F07B017A00790690001AE0FEA3E0FFEF14FD1292A990001A93
:40554000E0FCA3E0FD74052DF58274003CF583EFF07B017A00790690001AE0FEA3E0FFAD0712846522900004EEF0A3EFF0900004E0FEA3E0FFEF8EF0124B1355AF0000553D
:40558000BC0001565E0002566B00035678000456B200055730000657670007577400085685000B5844000C560D001200005854900590E0FF900514EFF00258547F007E00CA
:4055C0007D807C47900590124A7E1242551244B2900515124A8A7F007E007D807C47900594124A7E1242551244B2900519124A8A7F007E007D807C47900598124A7E12428E
:40560000551244B290051D124A8A0258547F007E007D807C47900590124A7E1242551244B2900521124A8A7F007E007D807C47900594124A7E1242551244B2900525124A37
:405640008A7F007E007D807C47900598124A7E1242551244B2900529124A8A025854900590E0FF90052FEFF0025854900590E0FF900530EFF0025854900590E0FF90053164
:40568000EFF0025854754F00E54FC394034003025854AF4F74902FF582E43405F583E0FFAE4F74322EF582E43405F583EFF0054F80D6754F00E54FC39403506FAF4FEF2575
:4056C000E02490F582E43405F583E0FEA3E0FFEE3395E0FDFCAB4FEB25E025E02435F582E43405F583124A8AAF4FEF25E025E02435F582E43405F583C083C082124A72AB87
:405700004F74322BF582E43405F583E0F9A801124A25D082D083124A8AAF4F74352FF582E43406F583E4F0054F808AD20A025854754F00E54FC394034003025854AF4FEFE0
:4057400025E025E02490F582E43405F583124A72AB4FEB25E025E02441F582E43405F583124A8A054F80CC900590E0FF90054DEFF0025854754F00E54FC39402400302584A
:4057800054AF4FEF25E025E02490F582E43405F583E0FEA3E0FFEE3395E0FDFCAB4FEB25E025E0244EF582E43405F583124A8AAF4FEF25E025E02492F582E43405F583E003
:4057C000FEA3E0FFEE3395E0FDFCAB4FEB25E025E02456F582E43405F583124A8AAF4FEF25E025E0244EF582E43405F583C083C082124A72AB4F74322BF582E43405F583A0
:40580000E0F9A801124A25D082D083124A8AAF4FEF25E025E02456F582E43405F583C083C082124A72AB4F74322BF582E43405F583E0F9A801124A25D082D083124A8A05A0
:405840004F025777900590E0FEA3E0FF90052DEEF0A3EFF07F011292E122000D0A004669726D776172652076657273696F6E3A200051424D4D502076362E302E30002E0D27
:405880000A0D0A0044455649434520494E464F0D0A0049443A2025640D0A004E756D626572206F662073656E736F72733A2025640D0A0050574D204C696D69743A202564B2
:4058C0000D0A004D4F544F5220494E464F0D0A004D6F746F72207265666572656E6365733A2000256420004D6F746F7220656E61626C65643A20005945530D0A004E4F0D3F
:405900000A000D0A4D4541535552454D454E545320494E464F0D0A0053656E736F722076616C75653A0D0A002564202D3E20256400566F6C7461676520286D56293A202500
:405940006C640043757272656E74203120286D41293A20256C640043757272656E74203220286D41293A20256C64000D0A44455649434520504152414D45544552530D0A20
:405980000050494420436F6E74726F6C6C65723A0D0A0050202D3E2025660D0A0049202D3E2025660D0A0044202D3E2025660D0A0043757272656E742050494420436F6E91
:4059C00074726F6C6C65723A0D0A00537461727475702061637469766174696F6E3A205945530D0A00537461727475702061637469766174696F6E3A204E4F0D0A00496EA1
:405A0000707574206D6F64653A205553420D0A00496E707574206D6F64653A2053656E736F7220330D0A00436F6E74726F6C204D6F64653A2000506F736974696F6E0D0A8E
:405A40000050574D0D0A0043757272656E740D0A0043757272656E7420616E6420706F736974696F6E0D0A0053656E736F72207265736F6C7574696F6E3A0D0A004D6561ED
:405A8000737572656D656E74204F66667365743A0D0A002564202D3E20256C64004D6561737572656D656E74204D756C7469706C6965723A0D0A002564202D3E2025660095
:405AC000506F736974696F6E206C696D6974206163746976653A20256400506F736974696F6E206C696D6974206D6F746F722025643A20696E66202D3E20256C642020008E
:405B0000737570202D3E20256C640D0A004D61782073746966666E6573733A2025640043757272656E74206C696D69743A2025640064656275673A20256C6400900003EF7B
:405B4000F0900003E0FF8F23E523C394034003025DE8300A329000047403F0900004E0FF14F0EF60207F007E007D007C00900004E0FBEB25E025E024D9F582E43406F58374
:405B8000124A8A80D6C20AE523701B129C88EF54FFFFEE54FFFEED5403FDEC5400FC900005124A8A8059E523B4011B129C92EF54FFFFEE54FFFEED5403FDEC5400FC90001E
:405BC00005124A8A8039E523B4021B129C9CEF54FFFFEE54FFFEED5403FDEC5400FC900005124A8A8019129CA6EF54FFFFEE54FFFEED5403FDEC5400FC900005124A8A7B86
:405C0000017A0079051286CC4003025DE8900005124A72EF54C0FFEE54FFFEED5403FDEC5400FC78021249FEC3E49FFB74809EFAAF23EF25E025E02435F582E43405F5838C
:405C4000124A72EB2FFFEA3EFEEE3395E0FDFC900009124A8A301020900009124A72AB23EB25E025E024D9F582E43406F583124A8AE523B40202C210AF23EF25E025E0240E
:405C8000D9F582E43406F583124A7E900009124A7212487790000D124A8A7F007EC07D007C0090000D124A7ED31249D74011AF2374352FF582E43406F583E014F0805F7FED
:405CC000007E407DFF7CFF90000D124A7EC31249D75011AF2374352FF582E43406F583E004F0803A90000D124A72129C68D3EF9400EE648094C04026AF2374E52FF582E4C5
:405D00003406F583E004F0AF2374E52FF582E43406F583E0FFEFC3940A5003025DE8AF2374E52FF582E43406F583E4F0900009124A72AB23EB25E025E024D9F582E43406B6
:405D4000F583124A8A900009124A72C004C005C006C007AF2374352FF582E43406F583E0FFEF3395E0FEFDFC7810124A25A804A905AA06AB07D007D006D005D00412486A45
:405D8000900009124A8AAF23EF25E025E024E9F582E43404F583124A727B007A007980783F1243FB6029900009124A72EC124474AB23EB25E025E024E9F582E43404F5833D
:405DC000124A7E1242551244B2900009124A8A900009124A72AB23EB25E025E02425F582E43406F583124A8A22129D451283507F647E007D007C00128A177F01129B2C12C0
:405E0000937312995E1294141290A112960B7E9D7F50129753129A1B7E9D7F4D1297721299737F00129A9C7F00129AAC7F00129B5C7F00129B0C12998812999D1299B2128E
:405E400099C71297EB7F01129B6C900007E4F0A3E4F07B007A007D017F02128B47900001EFF0128FC2900002EFF0900002E0FF900002E0FB9000077486F07D067C001280A7
:405E800030900002E0FFC0077B017A06791FAF01AE02AD037C00EF54FFFFEE54FFFEED5400FDEC5400FCAB07AA06D0077D107C4E128213900001E0FF900002E0FD12923373
:405EC000900001E0FF7D011285E57F00129AFC1299DC1299F1D2AF9044F474FDF07F0A7E007D007C00128A179000007402F0900000E0FF14F0EF60207F007E007D007C00C3
:405F0000900000E0FBEB25E025E0240AF582E43405F583124A8A80D69000007403F0900000E0FF14F0EF60317F007E007D007C00900000E0FBEB25E025E02425F582E43473
:405F400006F583124A8A900000E0FF74352FF582E43406F583E4F080C57B017A05790AC003C002C0017B017A067912A801AC02AD03D001D002D0037E007F09124C4D900443
:405F8000D7E0FF900512EFF090060DE4F0A3E4F0900611E4F0900512E0FF129B0C90063EE4F0C20D900562E4F0C20A900561E0FFEF70077F01129B8C80057F00129B8C7F3F
:405FC00000129B4C1273E1129D39EF7020300C0E7F01129B9CC20CC20B126ED180E9300BE67F01129B9C90061AE4F080DA7F01129B4C129D39EF640160F8129478EF30E77A
:40600000BE1290A180B922900003EFF0900004ECF0A3EDF0900006EAF0A3EBF0900009E0FFEFD394005003026206900009E0FFEFD394014003026206900003E0FFEF124AF0
:40604000ED60540160540460810760AC0860D70A00006102900008E0FFEFD3940F40117B0C7A017918129C5090000AEFF00261077B0C7A01791C129C5090000AEFF0026114
:4060800007900008E0FFEFD3940F40107B0C7A017919129C5090000AEFF0806B7B0C7A01791D129C5090000AEFF0805B900008E0FFEFD3940F40107B0C7A01791A129C500E
:4060C00090000AEFF080407B0C7A01791E129C5090000AEFF08030900008E0FFEFD3940F40107B0C7A01791B129C5090000AEFF080157B0C7A01791F129C5090000AEFF0C8
:40610000800590000AE4F090000AE0FFEF3395E0FEFDFC7B207A0079007800124885A804A905AA06AB07900004E0FEA3E0FFE4FCFD12486A90000B124A8A90000B124A7245
:40614000AB07AA06A905A804A804A905AA06AB07900006E0FEA3E0FFE4FCFD124885900011124A8A7B007A8079007800900011124A7212491090000FEEF0A3EFF090000897
:40618000E0FFEFC3940E504790000FE0FEA3E0FF900008E0FDC3740E9DFDEFA805088005CEC313CE13D8F9FF90000FEEF0A3EFF0900008E0FFEF04FF900009E0FEEE75F012
:4061C00003A4248EF582E43407F583EFF08016900009E0FFEF75F003A4248EF582E43407F583740FF090000FE0FEA3E0FF900009E0FDED75F003A4248CF582E43407F583F1
:40620000EEF0A3EFF0227F00129A06229004D8E0FFEF60030263B9900541124A729004E9124A7E1243FB6038900612124A72EC1244749004E9124A7E12435E1244B2900617
:4062400012124A8A900612124A72EC124474900541124A7E1242551244B2900612124A8A900545124A729004ED124A7E1243FB6038900616124A72EC1244749004ED124A13
:406280007E12435E1244B2900616124A8A900616124A72EC124474900545124A7E1242551244B2900616124A8A900535124A729004DD124A7EC31249D76036900612124A7A
:4062C00072C004C005C006C0079004DD124A7E900535124A72124877A804A905AA06AB07D007D006D005D00412486A900612124A8A900539124A729004E1124A7EC31249F5
:40630000D76036900616124A72C004C005C006C0079004E1124A7E900539124A72124877A804A905AA06AB07D007D006D005D00412486A900616124A8A9004F5E0FFEF6085
:40634000789004F6124A72900612124A7EC31249D7500C9004F6124A72900612124A8A9004FA124A72900616124A7EC31249D7500C9004FA124A72900616124A8A9004FEE1
:40638000124A72900612124A7ED31249D7400C9004FE124A72900612124A8A900502124A72900616124A7ED31249D7400C900502124A72900616124A8A7F007E001279246F
:4063C000EF60067F011292E1227F001292E122900562E0FFEF124AED658C0063EE016492026565036449046549050000658C129CF39004BD124A729006E8124A8A9004C117
:40640000124A729006EC124A8A9004C5124A729006F0124A8A7F007E007D007C00900612124A8A7F007E007D007C00900616124A8A90061AE0FFEF5403FFEF70057F0312BB
:406440009B0C9005627404F0229006F4E004F09006F4E0FFEF640A600302658C9006F4E4F07F997E197D007C009004BD124A8A7F007E007D007C009004C1124A8A7FCC7E43
:406480004C7D007C009004C5124A8A9005627402F022900612124A72EF245BFFEE3400FEED3400FDEC3400FC900612124A8A900616124A72C3EF945BFFEE9400FEED9400F3
:4064C000FDEC9400FC900616124A8A900631E0FEA3E0FFD3EF94E8EE648094835016900633E0FEA3E0FFD3EF94E8EE64809483500302658C90050A124A7290055EEEF0A366
:40650000EFF09006E8124A729004BD124A8A9006EC124A729004C1124A8A9006F0124A729004C5124A8A7F007E007D007C00900612124A8A7F007E007D007C0090061612A3
:406540004A8A9005627405F0229006F4E004F09006F4E0FFEF640A70339006F4E4F09005627403F02290061AE0FFEF5403FFEF70057F00129B0C7F087E001279247F007EFF
:4065800000127924900562E4F0129CEC22900004EEF0A3EFF0900006EDF0129C7E900008EFF0129C74900009EEF0A3EFF0900009E0FEA3E0FF900004E0FCA3E0FDED6F70CB
:4065C00002EC6E70030267219043A2E0FFEF5401FF900007EFF0900008E0FFEF705E900009E0FEA3E0FFEF4E600C900004E0FEA3E0FFEF4E7046900009E0FEA3E0FFEF4E42
:40660000701D7B027A407980900004E0FCA3E0FD129BF9904082E0FFEF54BFFFEFF022904082E0FFEF4440FFEFF07B027A407980900004E0FCA3E0FD129BF922900007E0F3
:40664000FFEF606C904001E4F09040107401F0904014E4F0904008E0FFEF547FFFEFF0904082E0FFEF5408FF7E00EF4E600C900004E0FEA3E0FFEF4E70367B027A4079023C
:40668000900009E0FCA3E0FD129BF99040017407F0904001E0FFEF5401FF7E00EF4E70F19043A2E0FFEF54FEFFEFF0904001E4F09043A2E0FFEF5401FF7E00EF4E603A7B75
:4066C000027A407902900004E0FCA3E0FD129BF9900006E0FFEF60047F0280027F00EF4401FF904001EFF0904001E0FFEF5401FF7E00EF4E602B80EF227B027A4079809016
:406700000004E0FCA3E0FD129BF99043A2C083C082E0FF900007E0FEEF4EFFD082D083EFF0227B007A4079807D027C00129BF79040827418F07B007A4079847D007C00124B
:406740009BF79040867450F07B007A4079887DFF7C0F129BF790408A741BF07B007A40798C7D0B7C00129BF790408E7419F07B007A4079907D2F7C00129BF790409274180E
:40678000F07B007A4079947DEF7C00129BF79040967418F07CA87D7E7B007A4179007F047E001296A79043007406F09042007452F07B0C7A01790F129C509046A1EFF07BFD
:4067C000007A4279227D107C07129BF77B007A4279207D517C12129BF7900004E4F07F197E007D007C00900000124A8A900000124A72D3EF9400EE9400404E900004E0FF9A
:40680000EF64036044904225E0FFEF5401FF7E00900004E0FEEE25E0FEEE4FFFEF5403FF900004EFF07FE07E017D007C00129300900000124A727BFF7AFF79FF78FF12485A
:406840006A900000124A8A80A3900000124A72EF4E70057F03129A587B007A4079047D007C01129BF79040047407F0904006E4F09040087448F0904004E4F0904009E4F06D
:406880009040017402F090400B7404F09043A2E0FFEF443FFF9043A2EFF09043A1E0FFEF4401FF9043A1EFF09043A0E0FFEF4480FF9043A0EFF022900004EEF0A3EFF09070
:4068C0000006EDF0129CCE900008EFF0129CC4900009EEF0A3EFF0900009E0FEA3E0FF900004E0FCA3E0FDED6F7002EC6E7003026A4B9043A2E0FFEF5402FF900007EFF00E
:40690000900008E0FFEF705E900009E0FEA3E0FFEF4E600C900004E0FEA3E0FFEF4E7046900009E0FEA3E0FFEF4E701D7B027A407984900004E0FCA3E0FD129BF9904086B7
:40694000E0FFEF54BFFFEFF022904086E0FFEF4440FFEFF07B027A407984900004E0FCA3E0FD129BF922900007E0FFEF606C904001E4F09040107402F0904014E4F0904020
:4069800008E0FFEF547FFFEFF0904086E0FFEF5408FF7E00EF4E600C900004E0FEA3E0FFEF4E70367B027A407902900009E0FCA3E0FD129BF99040017407F0904001E0FF9A
:4069C000EF5401FF7E00EF4E70F19043A2E0FFEF54FDFFEFF0904001E4F09043A2E0FFEF5402FF7E00EF4E603A7B027A407902900004E0FCA3E0FD129BF9900006E0FFEF88
:406A000060047F0280027F00EF4401FF904001EFF0904001E0FFEF5401FF7E00EF4E602B80EF227B027A407984900004E0FCA3E0FD129BF99043A2C083C082E0FF90000789
:406A4000E0FEEF4EFFD082D083EFF022900004EEF0A3EFF0900006EDF0129CE2900008EFF0129CD8900009EEF0A3EFF0900009E0FEA3E0FF900004E0FCA3E0FDED6F7002B2
:406A8000EC6E7003026BE09043A1E0FFEF5401FF900007EFF0900008E0FFEF705E900009E0FEA3E0FFEF4E600C900004E0FEA3E0FFEF4E7046900009E0FEA3E0FFEF4E704D
:406AC0001D7B027A417900900004E0FCA3E0FD129BF9904102E0FFEF54BFFFEFF022904102E0FFEF4440FFEFF07B027A417900900004E0FCA3E0FD129BF922900007E0FF9C
:406B0000EF606C904001E4F09040147401F0904010E4F0904008E0FFEF547FFFEFF0904102E0FFEF5408FF7E00EF4E600C900004E0FEA3E0FFEF4E70367B027A4079029065
:406B40000009E0FCA3E0FD129BF99040017407F0904001E0FFEF5401FF7E00EF4E70F19043A1E0FFEF54FEFFEFF0904001E4F09043A1E0FFEF5401FF7E00EF4E603A7B0240
:406B80007A407902900004E0FCA3E0FD129BF9900006E0FFEF60047F0280027F00EF4401FF904001EFF0904001E0FFEF5401FF7E00EF4E602B80EF227B027A4179009000D2
:406BC00004E0FCA3E0FD129BF99043A1C083C082E0FF900007E0FEEF4EFFD082D083EFF0229005147401F07F997E197D007C00900515124A8A7F007E007D007C0090051976
:406C0000124A8A7FCC7ECC7D007C0090051D124A8A7F007E007D057C00900521124A8A7F007E007D007C00900525124A8A7FCC7ECC7D007C00900529124A8A90052FE4F051
:406C4000900530E4F0900531E4F090056174FAF090054D7401F0754F00E54FC39402503A7FD07E8A7DFF7CFFAB4FEB25E025E0244EF582E43405F583124A8A7F307E757DAB
:406C8000007C00AB4FEB25E025E02456F582E43405F583124A8A054F80BF754F00E54FC39403502E7F007E007D807C3FAB4FEB25E025E02441F582E43405F583124A8AAFF0
:406CC0004F74322FF582E43405F5837401F0054F80CB7F007E007D007C00900532E0F9A801124A25900535124A8A7F007E007D007C00900533E0F9A801124A25900539124F
:406D00004A8A7F007E007D007C00900534E0F9A801124A2590053D124A8A7FB87E0B7D007C00900532E0F9A801124A2590055EEEF0A3EFF090052D7405F0A374DCF090058C
:406D4000137401F07F007E00127924EF600E7F087E00127924EF60047F0180027F002290058DE0FF8F4E7B017A05798D90060DE0FEA3E0FFEF14FD1292A990060DE0FCA397
:406D8000E0FD748C2DF58274053CF583E0FEEFB50603D38001C34006900611E4F022E54E124AED6E51006E36016E44026E56036E5B046E73056E28066E9B096E870A6EC0B7
:406DC0000B6E10806E1C816DFE826DEC836DE6846DF2856DF8866E04876E0A896E168A6E228B00006ECB12887D026ECB128E84026ECB129173026ECB1283DB026ECB127A7B
:406E0000FC026ECB12701B026ECB128DDA026ECB127ED9026ECB128F28026ECB129531026ECB1294D6026ECB90058EE0FEA3E0FF129447026ECB90058EE0FEA3E0FF125588
:406E400065026ECB90058EE0FEA3E0FF125221807A1298DA807512620C80707F087E00127924EF60077F011292E1805F7F001292E18058128570EF60077F011292E1804B90
:406E80007F001292E18044126BE1EF60077F011292E180377F001292E180307F011292E17FE87E037D007C00128A177F00129B2C7FE87E037D007C00128A17129CB0800B78
:406EC0009005627401F07F011292E1900611E4F022754D0012865AEF700302701AE54DC39406400302701A127E228F4CE508124AED6F04006F3D016F5A026F8F036FF5047D
:406F000000006ED4850C0B850D0C854C0DE50CB43A13E50DB43A0E750B00750C00750D0075080180AFE50BB43FAAE50CB40DA5E50DB40AA07F007E0012944780979004BC62
:406F4000E0FFE54C6F6004E54C7004C2008002D200750A00750802026ED4854C0AE50AD394015009750A00750800026ED4E50AD394804009750A00750800026ED475090089
:406F8000200006750803026ED4750804026ED4AF09743F2FF582E43406F583E54CF00509E509C3950A5003026ED420003AAF0A7E007B017A06793FC003C002C0017B017AE4
:406FC00005798DA801AC02AD03D001D002D003124C4DAF0A7E0090060DEEF0A3EFF09006117401F0126D5F750900750A00750800054D026ED4150AAF0AEF6003026ED47547
:407000000900750A007F01129AFC7F00129AFC750800054D026ED4026ED42290058EE0FEA3E0FFEE3395E0FDFC8F528E518D508C4F900590E0FEA3E0FFEE3395E0FDFC8FD3
:40704000568E558D548C53AF52AE51AD50AC4F900532E0F9A801124A258F528E518D508C4F900506E0FEA3E0FFAB07AA06E4F9F89004FE124A72124877AB52AA51A950A8E1
:407080004FD31249D74020900506E0FEA3E0FFAB07AA06E4F9F89004FE124A721248778F528E518D508C4F900506E0FEA3E0FFE4FCFD9004F6124A7E12486AAB52AA51A9A0
:4070C00050A84FC31249D7501C900506E0FEA3E0FFE4FCFD9004F6124A7E12486A8F528E518D508C4F900506E0FCA3E0FDE41244797B007A007900784712435EC004C0055D
:40710000C006C007AF56AE55AD54AC53EC124474A804A905AA06AB07D007D006D005D0041242551244B28F568E558D548C53E5522556FFE5513555FEE5503554FDE54F3526
:4071400053FC900612124A8AC3E5529556FFE5519555FEE5509554FDE54F9553FC900616124A8A227B007A4679E8129C50EF4401FD7B007A4679E8129C5C1272A790588342
:40718000740AF07CA87DAC7B007A7679507F047E001296A77B017A507903129C50EF4402FD7B017A507903129C5C7B017A507913129C50EF4402FD7B017A507913129C5CF4
:4071C0009043A0E0FFEF4440FF9043A0EFF09043C2E0FFEF4410FF9043C2EFF07B087A1F79F0C003C002C0017B007A517900900005124AE4D001D002D0037F0A7E001293CE
:40720000E07CA87D887B007A5179C27F087E001296A77CA87D907B007A5179F07F0A7E001296A77CA87D9A7B007A5179107F0A7E001296A77CA87DA47B007A5179227F082D
